:020000040000FA
:06000000E0EF00F0120029
:020006000000F8
:0800080077D8170EE126D9CFCD
:10001000E9FFDACFEAFF480EEE6E650EEE6E6C0E6B
:10002000EE6EEE6E6F0EEE6E200EEE6E770EEE6ED4
:100030006F0EEE6E720EEE6E6C0EEE6E640EEE6E67
:10004000210EEE6E200EEE6E2D0EEE6E200EEE6E7A
:10005000340EEE6E350EEE6E320EEE6E300EEE6E2D
:10006000200EEE6E0A0EEE6E0D0EEE6EEE6A8B8EAA
:100070008B8CAB8EAC8EAC9CAC8AAC98AC84AB8ECB
:10008000AB9CAB9AAB88AB96AB94AB92B896400E58
:10009000AF6EACA2FED7D9CFE6FFDACFE6FF0CD821
:1000A000E552E552F6D728D8ACA2FED71DD8AD6EE2
:1000B000E552E7CFD9FF12001FD816D80FE0FD0E8A
:1000C000DBCFE6FFFE0EDBCFE6FFEDDFE552E552CC
:1000D000FD0EDB2AFE0EF1E3DB2AEFD7F36AF46AAA
:1000E000E552E7CFD9FF1200FD0EDBCFE9FFFE0E90
:1000F000DBCFEAFFEF501200D9CFE6FFE1CFD9FF07
:020100001200EB
:0E010200060EF66E000EF76E000EF86E00018F
:100110000900F550856F0900F550866F03E185678A
:1001200001D03DD00900F550806F0900F550816F76
:100130000900F550826F09000900F550E96E0900C9
:10014000F550EA6E090009000900F550836F0900B7
:10015000F550846F09000900F6CF87F0F7CF88F0DB
:10016000F8CF89F080C0F6FF81C0F7FF82C0F8FFAA
:100170000001835302E1845307E00900F550EE6E5D
:100180008307F8E28407F9D787C0F6FF88C0F7FF36
:1001900089C0F8FF00018507000E865BBFD71200FB
:1001A000000EF36E00EE00F0060E01D81200EA60B9
:1001B00002D0EE6AFCD7F350E9601200EE6AFCD779
:1001C00015EE00F025EE00F0F86A019C81EC00F0DD
:0C01D000EEEC00F004EC00F0FBD7120095
:0201DC0012000F
:020000040030CA
:0100010002FC
:0100020018E5
:010003001EDE
:010005008179
:010006008475
:010008000FE8
:01000900C036
:01000A000FE6
:01000B00E014
:01000C000FE4
:01000D0040B2
:00000001FF
