:020000040000FA
:06000000FAEF01F012000E
:020006000000F8
:080008000000000000000000F0
:1000100000000000000000000000000000000000E0
:1000200012003C0EE66EDAEC01F0E5521200140EFE
:10003000E66EDAEC01F0E5521200BBD84DD9470E5E
:100040003ED9E66A010EE66EE2D8E552E552650E4B
:1000500036D900018A6B8B6BD8908B5104E6D00E99
:100060008A5D070E8B59EAE28A2B000E8B23F4D7A8
:10007000D9CFE6FFE1CFD9FF020EE1269580958228
:10008000958495868C8C000000008350DF6E8C9CDC
:10009000DF50100D010EF3CFDBFF8C8C0000000051
:1000A0008350DF6E8C9C000EDB98DB9ADB9CDB9E22
:1000B000010EDBCFE7FFDF50E712010EE7CFDBFFDA
:1000C0009590959295949596010EDB5000D0106E08
:1000D000020EE15C02E2E16AE552E16E1050E55287
:1000E000E7CFD9FF1200D9CFE6FFE1CFD9FF030E4A
:1000F000E126010EDB6A020EDB6A8C988C8AB8DF7F
:10010000DF6ED950010FE96EDACFEAFFE80EEE1884
:1001100002E1030EED1804E18A828A848A86FCD704
:10012000010EDB2A020E01E3DB2ADFBEE8D78C9A40
:100130000400010EDB6A020EDB6A030EE15C02E2E0
:10014000E16AE552E16EE552E7CFD9FF1200D9CF5F
:10015000E6FFE1CFD9FFE652FE0EDB5002E08C98BD
:1001600001D08C888C9A8C8C8C968C948C928C90F0
:10017000000000008C50DF6E000EDB90DB92DB9401
:10018000DB96FD0EDB500F0BDF108C6E00000000C5
:100190008C9CE552E552E7CFD9FF120098D8FD0EAE
:1001A000DB380F0BE66EA7D8FD0EDBCFE6FFA3D83A
:1001B0008AD0959E959C959A9598959095929594B0
:1001C00095968C9E8C8E8C988C9A8C9C8C8C8BDFCC
:1001D000020E98D8020E96D8080E94D8E66A4FD828
:1001E0000C0E90D8E66A4BD8010EE66E8ED8E66A01
:1001F00046D8020E87D8040E85D80E0E83D86CD848
:100200008C8E1200010EE66EE66E5AEF01F05FD89A
:10021000FD0EDB50010812E3FE0EDB500F080EE36B
:10022000FD0EDB0404E1FE0EDB50C00903D0FE0E20
:10023000DB508009E66E010EE66E3CD844D047D80C
:10024000FE0EDBCFE6FFE66A35D83DD040D84BD86E
:100250000750300F34D847D80350300F30D833D040
:1002600036D8E652DF6ADFCF10F00CD806E0DF5058
:10027000DF2A106E07D823D8F6D7E55224D0010E16
:1002800085EF01F0116A126AD950FC0FE96EFF0E7A
:10029000DA20EA6EEE501024F36EEE501120F46E68
:1002A000EE501220F86EF4CFF7FFF3CFF6FF080000
:1002B000F550120073DFE552E55273EF00F0E66E81
:1002C000BEDFE5521200E552E7CFD9FF1200D9CFC9
:1002D000E6FFE1CFD9FF120095DFE66AE66A97DF15
:1002E000E552E55212000A0E106E0C6EFE0EDBCFC8
:1002F00007F008EF02F0FE0EDBCFE6FF28DFE55245
:10030000E5521200E66E3FEF01F0E66E20DFE552A7
:06031000E55273EF00F05E
:0A031600060EF66E000EF76E000EE4
:10032000F86E00010900F550856F0900F550866FE1
:1003300003E1856701D03DD00900F550806F0900C9
:10034000F550816F0900F550826F09000900F550E2
:10035000E96E0900F550EA6E090009000900F55040
:10036000836F0900F550846F09000900F6CF87F00C
:10037000F7CF88F0F8CF89F080C0F6FF81C0F7FF93
:1003800082C0F8FF0001835302E1845307E00900B3
:10039000F550EE6E8307F8E28407F9D787C0F6FFC1
:1003A00088C0F7FF89C0F8FF00018507000E865B53
:0403B000BFD71200A1
:0C03B400FF0EE350136E480E01D04C0EFB
:1003C000E76EE72EFED7E76AE72EFED7132EF7D7A4
:0403D0000000120017
:0C03D400000EF36E00EE00F0060E01D8E3
:1003E0001200EA6002D0EE6AFCD7F350E960120016
:0403F000EE6AFCD7DE
:0C03F40015EE00F025EE00F0F86A0F9CFA
:100400008BEC01F016EC02F01DEC00F0FBD71200B3
:10041000036A080EE76ED890073603360C50035C6B
:0C04200002E3036E072AE72EF7D7120054
:02042C001200BC
:020000040030CA
:0100010002FC
:0100020018E5
:010003001EDE
:010005008179
:010006008475
:010008000FE8
:01000900C036
:01000A000FE6
:01000B00E014
:01000C000FE4
:01000D0040B2
:00000001FF
