:020000040000FA
:0600000058EF06F01200AB
:020006001200E6
:0800080007EF00F01200DACF4F
:10001000E4FFE2CFDAFFE9CFE4FFEACFE4FFF6CF77
:10002000E4FFF7CFE4FFF5CFE4FFF3CFE4FFF4CF35
:10003000E4FFFACFE4FF00EE00F0140EE80403E35F
:10004000EECFE4FFFBD700EE14F0040EE80403E368
:10005000EECFE4FFFBD7E65201EC05F0F294F2900C
:10006000E55200EE17F0040EE80403E3E5CFEDFFE0
:10007000FBD700EE13F0140EE80403E3E5CFEDFF29
:10008000FBD7E5CFFAFFE5CFF4FFE5CFF3FFE5CFF0
:10009000F5FFE5CFF7FFE5CFF6FFE5CFEAFFE5CFC8
:0800A000E9FFE5CFDAFF1100D2
:0800A8000200F00C0000D10081
:1000B000000002000000D20C0000A10000001E00A1
:0200C00000003E
:0E00C200D08EF28EF28CF2941200F29EF29C1E
:1000D0001200FCDFF28AD59CD59AD584F80ED76E33
:1000E000300ED66E936E816AF18EF00EC1140F0938
:1000F000C16EF286F29061EF00F044DA0B0E04DA82
:1001000024DA6C0EEE6E6F0EEE6E630E37DA6C0E46
:1001100070DA0B0EE15C02E2E16AE552E1D132DA1B
:100120000C0EF2D912DA720E58DA6D0EEE6E6F0EF8
:10013000EE6E740EEE6E650E5CDA0C0EE15C02E2A1
:10014000E16AE552CDD11EDA080EDED9460E16DA86
:10015000630EEE6E740EEE6E6F0EEE6E720EEE6E3F
:10016000790E47DA080EE15C02E2E16AE552B8D1A5
:1001700009DA060EC9D9450EEE6E520EEE6E4EDA53
:10018000520EA3D9060EE15C02E2E16AE552A8D163
:10019000F9D90F0EB9D9D3D906DA97D90F0EE15C88
:1001A00002E2E16AE5529CD1EDD90A0EADD9DBD964
:1001B000630EEE6E6F0EEE6E750EEE6E6E0EEE6EE2
:1001C000740E83D90A0EE15C02E2E16AE55288D13D
:1001D000D9D9050E99D9540ECAD9520EEE6E450ED4
:1001E00074D9050EE15C02E2E16AE55279D1CAD91F
:1001F000110E07DA470EEE6E520EB9D94D0EE5D943
:10020000146E110EE15C02E2E16AE552B4D1BAD992
:10021000120EF7D94F0EEE6E550EEE6E4E0EEE6EBE
:10022000430EEE6E450ED1D9146E120EE15C02E261
:10023000E16AE552A0D1A6D9110E66D980D9460E41
:1002400096D9430EEE6E540EE9D9520EEE6E590E4B
:100250003CD9110EE15C02E2E16AE55241D192D94A
:100260000A0E52D9430E8AD96C0EEE6E690EEE6EEE
:10027000620EEE6E720E82D9740EEE6E650E25D988
:100280000A0EE15C02E2E16AE5522AD17BD90D0E49
:100290003BD969D9530E72D96D0EEE6E700EEE6EAB
:1002A0006C0E9BD9200EEE6E4E0E0FD90D0EE15C3A
:1002B00002E2E16AE55214D165D9150E6BD939D93C
:1002C000200EEE6E520EEE6E450E51D9440EEE6EBD
:1002D000490EEE6E4E0EEE6E470E77D9150EE15CAE
:1002E00002E2E16AE552FCD04DD9100E53D9EE6E10
:1002F000530EEE6E540E3BD9540EEE6E490EEE6E5A
:10030000530EEE6E540EEE6E490EEE6E430E5DD938
:10031000100EE15C02E2E16AE552E2D033D90E0E42
:1003200036D9200E4AD9200EEE6E5BD9CED80E0EED
:10033000E15C02E2E16AE552D3D024D90B0EE4D8A5
:1003400050D9EE6E200EEE6E4C0E68D9430E0FD9CA
:100350004C0EBBD80B0EE15C02E2E16AE552C0D064
:1003600011D9050ED1D8480E38D96C0EEE6E700E2C
:10037000ACD8050EE15C02E2E16AE552B1D0EBD8FF
:100380000B0E081801E109504CE00A0E081801E1B3
:10039000095045E0090E081801E109503EE0080E39
:1003A000081801E1095037E0070E081801E109506B
:1003B00030E0060E081801E1095029E0050E081882
:1003C00001E1095022E0040E081801E109501BE088
:1003D000030E081801E1095014E0020E081801E1AB
:1003E00009500DE0010E081801E1095006E008501F
:1003F0001AE1095018E1D8DE17D0CADE15D0E8DEC0
:1004000013D0F5DE11D003DF0FD015DF0DD027DFBD
:100410000BD03CDF09D050DF07D066DF05D07EDF90
:1004200003D09EDF01D0A4DED4D05CD8310E72D8C8
:1004300002E2E16AE55254D055D8320E6BD802E29E
:10044000E16AE5524DD04ED8330E64D802E2E16A3B
:10045000E55246D080D8030E081801E109501CE08F
:10046000020E081801E1095015E0010E081801E11B
:1004700009500EE0085012E1095010E1FB0EDBCFED
:10048000E6FFFC0EDBCFE6FF7ADFE552E55207D050
:10049000CCDF05D0D1DF03D0D6DF01D069DE99D023
:1004A000010E936E100E926E81B0FED781B00CD00B
:1004B0008184E80EE66E030EE66EE9EC03F0E55289
:1004C000E552819481A0FED71200EE6EEE6AD9CF7C
:1004D000E6FFDACFE6FF42EC04F0E552E552120007
:1004E000E16E77D04FD80C0EE126D950020FE96E9D
:1004F000DACFEAFF450EEE6E6E0EEE6E740E6DD81C
:10050000720E6BD8640E79D0E126D9CFE9FFDACF2D
:10051000EAFF1200EE6EEE6AD950020FE66E000E90
:10052000DA20E66E42EC04F0E552E5520C0EE15C96
:100530001200EE6E38D8EE6E540EEE6E120067D8D2
:100540005F0E3BD85F0EEE6E1200750EEE6E730EF0
:1005500044D8720E52D016D8FD0EDBCF08F0FE0E36
:10056000DBCF09F01200530E38D8740E46D0EE6E71
:10057000410EEE6E1200E16E14502BD0EE6E610E45
:10058000EE6E1200D9CFE6FFE1CFD9FF1200BCDF3B
:1005900007EF03F0B9DF530EEE6E480E3FD8570E4B
:1005A000EE6E200E1200570EEE6E450EEE6E490EE8
:1005B000EE6E470EEE6E480E1200EE6E4D0E2ED809
:1005C000440EEE6E450EEE6E1200EE6E530E65EFAB
:1005D00002F0E552E7CFD9FF1200EE6E650EEE6E27
:1005E0001200550EEE6E530EEE6E450EEE6E520E6E
:1005F00012006BDFF36AF46A1200EE6E200EEE6EEC
:100600001200C5DF5F0E95DF5F0EEE6E1200530E17
:10061000EE6E450EEE6E540EEE6E1200EE6E4F0E46
:04062000EE6E120068
:0C062400AED9020EE126DE6ADD6A1FD8A6
:10063000FB0EDBCFE6FFFC0EDBCFE6FF94D932D812
:10064000E552E552E552E55273D90AE071D9E66EFA
:1006500018D8E5520CD9DF2A010EF6E3DB2AF4D7CD
:10066000020EE15C02E2E16AE552E16E78D1C00E71
:10067000E66EEDD8E552C10EE66EE9D8E55237EFE9
:1006800004F064D9FE0EDB380F0B0F0BD009DF6EC0
:10069000FE0EDB500F0BD0093BD902E2E16AE552B6
:1006A000E16E5DD153D966D9EE50ED1007E1FB0E36
:1006B000DB50E76E020EE7CFDBFF15D05BD9010EF2
:1006C000EE1811E1ED500FE1400EE76EFB0EDBCFAF
:1006D00014F0FC0EDBCF15F0E7501426000E1522A7
:1006E000020E14C0DBFF020EDB380F0B0F0BC80924
:1006F000DF6E020EDB500F0BC0090AD902E2E16A7D
:10070000E552E16E2CD1D9CFE6FFE1CFD9FF020E41
:10071000E126DE6ADD6A959E959C959A959895905E
:100720009592959495968C9E8C8E8C988C9A8C9C98
:100730008C8CDE6ADD6ADECF14F0DDCF15F0D89048
:10074000155004E6E80E145C030E155806E200008E
:10075000DF2A010E01E3DB2AEED7C20EE66E77D860
:10076000E55285D8C20EE66E72D8E55280D8C80E22
:10077000E66E6DD8E5527BD8C00EE66E68D8E552BD
:1007800076D8CC0EE66E63D8E55271D8C00EE66E10
:100790005ED8E5526CD8C10EE66E59D8E55267D8DE
:1007A000C00EE66E54D8E55262D8C60EE66E4FD83B
:1007B000E5525DD88C8E0000000000000000020EA3
:1007C000E15C02E2E16AE552E16EE552E7CFD9FF72
:1007D0001200D9CFE6FFE1CFD9FF020EE126DE6A93
:1007E000DD6A020E086E096AFD0EDBCF0DF0FE0E0B
:1007F000DBCF0EF0EAEC05F0FD0E06C0DBFFFE0ECF
:1008000007C0DBFFDECF14F0DDCF15F0FD0EDBCF30
:1008100016F0FE0EDBCF17F015501718E8AE02D019
:10082000173404D01650145C1750155806E2000017
:10083000DF2A010E01E3DB2AE5D7020EE15C02E2CA
:10084000E16AE552E16EE552E7CFD9FF1200D9CF58
:10085000E6FFE1CFD9FFFE0EDB508C6E00000000FA
:100860008C9C00000000E552E7CFD9FF120089D828
:10087000E6528C988C8A958613D8DF6EDFBEFCD743
:10088000E5526DD07ED8F3DF6ED8000EE66EE66AD4
:10089000E66EE66AC7DE146E060EE15E14505FD0A7
:1008A000D9CFE6FFE1CFD9FF020EE12695869584E8
:1008B000958295808C8C000000008350DF6E8C9CAC
:1008C000DF50100D010EF3CFDBFF8C8C0000000019
:1008D0008350DF6E8C9C0D0EDF14DF6E010EDB503B
:1008E000DF10E76E010EE7CFDBFF959695949592AA
:1008F0009590010EDB5000D0146E020EE15C02E216
:10090000E16AE552E16E1450E552E7CFD9FF1200DB
:10091000E76E010EE7CFDBFFDFCFE6FF98DFE552A2
:10092000010EDBCFE6FF93DFE552030EE15C120020
:10093000F90EDBCF14F0FA0EDBCF15F0DE501424E5
:10094000E96EDD501520EA6EEF5012001AD8030E42
:10095000E126DF6A010EDB6A020EDB6A1200E55255
:10096000E7CFD9FF1200FD0EDBCFE6FFFE0EDBCF97
:10097000E6FF1200D950FD0FE96EFF0EDA20EA6E95
:0C0980001200D9CFE6FFE1CFD9FF120032
:04098C000001C96B32
:10099000CA6BCD69CE697FD8C9C0CBF0CAC0CCF0D4
:1009A00012000001CB51C91902E1CC51CA1911E062
:1009B000C9C0E6FFCAC0E6FFBFEC01F0E552E55250
:1009C000C9C0CBF0CAC0CCF00001CD6BCE6B63D8F0
:1009D000E8D70001CF51CD1902E1D051CE1910E076
:1009E000C9C0E6FFCAC0E6FFCDC0E6FFCEC0E6FF45
:1009F0002AEC02F0E552E552E552E5524CD8E9D72F
:100A0000120081A81FD037D881B818D00001C92B97
:100A1000000ECA2339D80001D2510001CA19E8AE2C
:100A200002D0CA3507D0C9510001D15D0001CA51B9
:100A30000001D25903E20001C96BCA6BF80ED76EF0
:100A4000300ED66E81AA16D016D881BA0FD000010A
:100A5000CD2B000ECE2318D80001CE3507E2CD51A4
:100A60000308000ECE5502E2CD6BCE6BF80ED76EAA
:100A7000300ED66E1200E80EE66E030EE66EE9EC5E
:100A800003F0E552E5521200816A640EE66EE9EC6D
:100A900003F0E5521200CDC0CFF0CEC0D0F012006E
:100AA000A80EF66E000EF76E000EF86E000109003B
:100AB000F550C46F0900F550C56F03E1C46701D05C
:100AC0003DD00900F550BF6F0900F550C06F090017
:100AD000F550C16F09000900F550E96E0900F550A5
:100AE000EA6E090009000900F550C26F0900F550CF
:100AF000C36F09000900F6CFC6F0F7CFC7F0F8CFF3
:100B0000C8F0BFC0F6FFC0C0F7FFC1C0F8FF0001CA
:100B1000C25302E1C35307E00900F550EE6EC2076D
:100B2000F8E2C307F9D7C6C0F6FFC7C0F7FFC8C0D1
:0E0B3000F8FF0001C407000EC55BBFD712001E
:020B3E003FD89E
:100B4000630EEE6E6F0EEE6E750EEE6E6E0EEE6E48
:100B5000740E1CD802E2E16AE552E16EE552E7CF7D
:100B6000D9FF12002CD8770EEE6E650EEE6E690E70
:100B7000EE6E670EEE6E680E09D802E2E16AE5528B
:100B8000E16EE552E7CFD9FF12001200EE6E200EA3
:100B9000EE6E6D0EEE6E6F0EEE6E640EEE6E650E08
:100BA000EE6EEE6AD9CFE6FFDACFE6FF42EC04F054
:100BB000E552E552F36AF46A0B0EE15C1200D9CFFC
:100BC000E6FFE1CFD9FF0B0EE126D9CFE9FFDACF5F
:040BD000EAFF120026
:0C0BD40009C013F008C012F008500D0218
:100BE000F4CF07F0F3CF06F009500E02F4CF09F06E
:100BF000F3CF08F00D02F3500726F4500822E86AFC
:100C0000092212500E02F3500726F4500822E86A17
:100C100009220EAE10EF06F01250085E1350095A6A
:0E0C200013AE000C0D50085E0E50095A000C69
:020C2E00D9CF1C
:100C3000E6FFE552E7CFD9FF1200D9CFE6FFE1CFBB
:100C4000D9FF37EC04F0FD0EDBCFE6FFFE0EDBCF65
:100C5000E6FF000EE66EE66AE66EE66A12EC03F068
:100C6000146E060EE15E1450E552E7CFD9FF120074
:100C700069EC00F083EC03F0C6EC04F0000EE66EC5
:100C8000E66ABFEC01F0E552E552D1EC04F0FDD785
:100C9000000EF36E00EE00F0060E01D81200EA60BE
:100CA00002D0EE6AFCD7F350E9601200EE6AFCD77E
:100CB00015EE00F025EE00F0F86A019C50EC05F00E
:0C0CC00068EC06F038EC06F0FBD71200E0
:040CCC001200120000
:020CD000120010
:0E0CD200000000000000000000000000000014
:100CE0000000000000000F000000010000000900EB
:020CF0000B00F7
:020000040030CA
:0100010022DC
:010003000EEE
:010006008178
:00000001FF
