:020000040000FA
:06000000EDEF04F0120018
:020006001200E6
:060008006AEF01F0120096
:02000E000000F0
:06001000010000000000E9
:08001800B7EF01F01200D9CF8F
:10002000E6FFE1CFD9FF700EE126DE6ADD6AD95026
:10003000020FEFD9530EEE6E650EEE6E6E0EEE6E83
:10004000640EEE6E200EEE6E490EEE6E6E0EEE6ECD
:10005000700EEE6E750EEE6E740EEE6E3A0EDDD90B
:100060000E0FD7D90D0EEE6E0A0ED7D9110FB9D9D2
:10007000520EC9D91B0FB5D9500EC5D9250FC9D9F4
:10008000530EEE6E740EEE6E610EEE6E720EEE6E2E
:10009000740EC3D92B0FBDD9440EEE6E450EEE6E15
:1000A000420EEE6E550EEE6E470EEE6E0A0EEE6EC0
:1000B0000D0EB3D9330F7BD9EE6AD950350FA9D9BC
:1000C000300EABD9370FA5D9300EABD93A0F6FD957
:1000D00096D93D0F9ED9320EA4D9400F9AD9330E2E
:1000E000A0D9430F96D9340E9CD9460F92D9350E1C
:1000F00098D9490F8ED9360E94D94C0F8AD9370E1C
:1001000090D94F0F86D9380E8CD9520F82D9390E1B
:1001100088D9550F4CD9300E80D9580F48D97DD980
:100120005B0F45D9320E79D95E0F41D9330E75D99F
:10013000610F3DD9340E71D9640F39D9350E6DD99F
:10014000670F35D9360EEE6EEE6A6A0EDB6A6B0EFD
:10015000DB6A6C0EDB6A6D0EDB6A6E0EDB6A6F0E9D
:10016000DB6AD2EC03F0CCEC03F09AEC02F04EEC3C
:1001700003F0000EE66EE66AE66EE66A6AEC02F0EE
:10018000E552E552E552E5524EEC03F050EC02F038
:100190001BD9D950250F0FD9D9500E0F0CD914D90E
:1001A0000001F151F211FCE046D9E5EC03F0E55213
:1001B000E552D9500E0FFFD80001F16BF26B6E0EB5
:1001C000DBCF08F06F0EDBCF09F0020E081801E15B
:1001D00009506BE0010E081801E109502CE00850AD
:1001E00001E1095004E0D9502B0FE5D8D9D7D950F7
:1001F0003A0FE66E000EDA20CBD80CE1010EF36E5A
:100200006A0EF3CFDBFF6B0EDB6A6E0EDB2A6F0E1E
:10021000C7E30FD0D950370FE66E000EDA20B8D8FA
:10022000BFE16A0EDB6A6B0EDB6A6E0EDB2A6F0EB5
:10023000B7E3DB2AB5D7DE6ADD6ADECF14F0DDCFA7
:1002400015F0D890155004E6110E145C000E1558E8
:10025000A7E2D950370F186EDACF19F0030E086EE7
:10026000096ADECF0DF0DDCF0EF090EC04F01850EF
:100270000624166E19500720176E16C0E6FF88D8A0
:100280000FE1D9CFE9FFDACFEAFF6C0EEECFDBFF4B
:100290006D0EEDCFDBFF6E0EDB2A6F0E01E3DB2A66
:1002A000DF2A010ECAE3DB2AC8D750EC02F0C3D81C
:1002B0006C0EDBCFE6FF6D0EDBCFE6FF6A0EDBCF09
:1002C000E6FF6B0EDBCFE6FFAFD86E0EDB6A6F0E7C
:1002D000DB6A66D7DACFE4FFE2CFDAFFE9CFE4FFEB
:1002E000EACFE4FFF6CFE4FFF7CFE4FFF5CFE4FF7A
:1002F000F3CFE4FFF4CFE4FFFACFE4FF00EE00F029
:10030000140EE80403E3EECFE4FFFBD700EE14F095
:10031000060EE80403E3EECFE4FFFBD7E6529EAA05
:1003200002D00CEC04F0E55200EE19F0060EE804E1
:1003300003E3E5CFEDFFFBD700EE13F0140EE80466
:1003400003E3E5CFEDFFFBD7E5CFFAFFE5CFF4FF01
:10035000E5CFF3FFE5CFF5FFE5CFF7FFE5CFF6FFFC
:10036000E5CFEAFFE5CFE9FFE5CFDAFF1100D8CF0F
:10037000E4FFE0CFE4FFE46EDACFE4FFE652E552BB
:10038000E5CFDAFFE550E5CFE0FFE5CFD8FF10007D
:10039000E66E51D8BDEC04F0E552E552E552E55267
:1003A000F3CF14F0F4CF15F0F350F410120031D85D
:1003B000310EEE6E1200E66E000EDA20E66EE5EC0F
:1003C00003F0E552E5521200D950020FE66E000E1E
:1003D000DA20E66E000EE66EE66AE66EE66A14EF76
:1003E00002F017D8450EEE6E6E0EEE6E740EEE6EC7
:1003F000650EEE6E720EEE6E200EEE6E1200EE6A5E
:10040000EE6AD9501200EE6E3A0EEE6E200E0DEF2F
:1004100002F0E96EDACFEAFF1200EE6EEE6AD95012
:100420001200EE6EFFEF01F027EC02F0146E060EE4
:10043000E15E14501200800EE66E000EE66E1200B1
:0E04400001000E000000F100000008000000A6
:02044E009FD934
:10045000020EE126DE6ADD6A23D8FB0EDBCFE6FF63
:10046000FC0EDBCFE6FFFD0EDBCFE6FFFE0EDBCFA3
:10047000E6FF30D8E552E552E552E55265D90AE08B
:1004800063D9E66E17D8E55209D9DF2A010EF6E3E3
:10049000DB2AF4D7020EE15C02E2E16AE5526BD19D
:1004A000C00EE66EEBD8E552C10EE66EE7D8E55217
:1004B0004EEF03F057D9FE0EDB380F0B0F0BD009B0
:1004C000DF6EFE0EDB500F0BD0092ED902E2E16A7F
:1004D000E55251D147D954D9EE50ED1007E1FB0E4A
:1004E000DB50E76E020EE7CFDBFF15D049D9010ED6
:1004F000EE1811E1ED500FE1400EE76EFB0EDBCF81
:1005000014F0FC0EDBCF15F0E7501426000E152278
:10051000020E14C0DBFF020EDB380F0B0F0BC809F5
:10052000DF6E020EDB500F0BC009FED802E2E16A5B
:10053000E55221D1D9CFE6FFE1CFD9FF020EE12666
:10054000DE6ADD6A959E959C959A95989590959210
:10055000959495968C9E8C8E8C988C9A8C9C8C8C79
:10056000DE6ADD6ADECF14F0DDCF15F0D8901550CD
:1005700004E6100E145C270E155806E20000DF2A70
:10058000010E01E3DB2AEED7C20EE66E77D8E55204
:1005900085D8C20EE66E72D8E55280D8C80EE66ED7
:1005A0006DD8E5527BD8C00EE66E68D8E55276D895
:1005B000CC0EE66E63D8E55271D8C00EE66E5ED8FA
:1005C000E5526CD8C10EE66E59D8E55267D8C00E18
:1005D000E66E54D8E55262D8C60EE66E4FD8E552A4
:1005E0005DD88C8E0000000000000000020EE15C6F
:1005F00002E2E16AE552E16EE552E7CFD9FF12006F
:10060000D9CFE6FFE1CFD9FF020EE126DE6ADD6A2F
:10061000020E086E096AFD0EDBCF0DF0FE0EDBCF79
:100620000EF090EC04F0FD0E06C0DBFFFE0E07C0DE
:10063000DBFFDECF14F0DDCF15F0FD0EDBCF16F0C3
:10064000FE0EDBCF17F015501718E8AE02D01734A6
:1006500004D01650145C1750155806E20000DF2A2B
:10066000010E01E3DB2AE5D7020EE15C02E2E16A5A
:10067000E552E16EE552E7CFD9FF1200D9CFE6FF90
:10068000E1CFD9FFFE0EDB508C6E000000008C9C89
:1006900000000000E552E7CFD9FF120078D8E652FB
:1006A0008C988C8A958608D8DF6EDFBEFCD7E55221
:1006B000E552E7CFD9FF1200D9CFE6FFE1CFD9FF4E
:1006C000020EE12695869584958295808C8C00009B
:1006D00000008350DF6E8C9CDF50100D010EF3CFB5
:1006E000DBFF8C8C000000008350DF6E8C9C0D0EB5
:1006F000DF14DF6E010EDB50DF10E76E010EE7CF77
:10070000DBFF9596959495929590010EDB5000D065
:10071000146E020EE15C02E2E16AE552E16E1450F1
:10072000E552E7CFD9FF1200E76E010EE7CFDBFFFE
:10073000DFCFE6FFA3DFE552010EDBCFE6FF9EDF52
:10074000E552030EE15C1200F90EDBCF14F0FA0E55
:10075000DBCF15F0DE501424E96EDD501520EA6E73
:10076000EF50120014D8030EE126DF6A010EDB6A97
:10077000020EDB6A1200E16EE552E7CFD9FF1200EC
:10078000D950FD0FE96EFF0EDA20EA6E1200D9CFC4
:08079000E6FFE1CFD9FF1200E2
:08079800D08E9D8A9F8AF28E2B
:1007A000F28C12008B8E8B8CAB8EAC8EAC9CAC8A98
:1007B000AC98AC84AB8EAB9CAB9AAB88AB96AB944D
:1007C000AB92B896400EAF6E1200D9CFE6FFE1CFE4
:1007D000D9FF4FD80FE0FD0EDBCFE6FFFE0EDBCFDB
:1007E000E6FF0ED8E552E552FD0EDB2AFE0EF1E3E0
:1007F000DB2AEFD7F36AF46AE552E7CFD9FF12009C
:10080000D9CFE6FFE1CFD9FFACA2FED732D8AD6E8B
:10081000E552E7CFD9FF1200800E000124D8AECFF9
:10082000EFFF800E20D8EF500D080BE1010E000104
:10083000F16FF26B800E000116D8EF6AF56BF66B64
:100840001200800E10D8EF500001E619E66F00018B
:10085000F52B000EF623100EF51904E1F65102E116
:10086000F56BF66B1200F525E96E000EF621EA6EC7
:100870001200FD0EDBCFE9FFFE0EDBCFEAFFEF50EB
:02088000120064
:0E088200400EF66E040EF76E000EF86E0001CA
:100890000900F550EC6F0900F550ED6F03E1EC67CE
:1008A00001D03DD00900F550E76F0900F550E86F21
:1008B0000900F550E96F09000900F550E96E0900DB
:1008C000F550EA6E090009000900F550EA6F0900C9
:1008D000F550EB6F09000900F6CFEEF0F7CFEFF01F
:1008E000F8CFF0F0E7C0F6FFE8C0F7FFE9C0F8FF87
:1008F0000001EA5302E1EB5307E00900F550EE6E08
:10090000EA07F8E2EB07F9D7EEC0F6FFEFC0F7FF12
:10091000F0C0F8FF0001EC07000EED5BBFD712003E
:1009200009C013F008C012F008500D02F4CF07F010
:10093000F3CF06F009500E02F4CF09F0F3CF08F020
:100940000D02F3500726F4500822E86A09221250DB
:100950000E02F3500726F4500822E86A09220EAE70
:10096000B6EF04F01250085E1350095A13AE000C93
:0A0970000D50085E0E50095A000CED
:06097A00D9CFE6FFDACF41
:10098000E6FFFA0EE3CFD9FFFB0EE3CFDAFFFC0E52
:10099000E3CFE9FFFD0EE3CFEAFFDE50EF5C02E1BB
:1009A000EE66FBD7F36EFF0EE3CFDAFFE552FF0EE4
:0A09B000E3CFD9FFE552F350120027
:0609BA00000EF36E00EEDA
:1009C00000F0060E01D81200EA6002D0EE6AFCD7F1
:0A09D000F350E9601200EE6AFCD754
:0609DA0015EE00F025EE11
:1009E00000F0F86A019C41EC04F003EC00F00FEC1D
:0609F00000F0FBD712002D
:020000040030CA
:0100010002FC
:0100020018E5
:010003001EDE
:010005008179
:010006008475
:010008000FE8
:01000900C036
:01000A000FE6
:01000B00E014
:01000C000FE4
:01000D0040B2
:00000001FF
