:020000040000FA
:060000008AEF07F0120078
:020006001200E6
:0600080075EF01F012008B
:02000E001200DE
:08001800C3EF01F01200D9CF83
:10002000E6FFE1CFD9FF6C0EE126DE6ADD6AD9502A
:10003000020FE96EDACFEAFF530EEE6E650EEE6E3A
:100040006E0EEE6E640EEE6E200EEE6E490EEE6ECD
:100050006E0EEE6E700EEE6E750EEE6E740EEE6E31
:100060003A0EEE6EEE6AD9500E0FE96EDACFEAFF65
:100070000D0EEE6E0A0EEE6EEE6AD950110FE96E9D
:10008000DACFEAFF450EEE6E6E0EEE6E740EEE6E79
:10009000650EEE6E720EEE6E200EEE6E520EEE6E6F
:1000A0003A0EEE6E200EEE6EEE6AD9501B0FE96E20
:1000B000DACFEAFF450EEE6E6E0EEE6E740EEE6E49
:1000C000650EEE6E720EEE6E200EEE6E500EEE6E41
:1000D0003A0EEE6E200EEE6EEE6AD950250FE96EE6
:1000E000DACFEAFF530EEE6E740EEE6E610EEE6E18
:1000F000720EEE6E740EEE6EEE6AD9502B0FE96E34
:10010000DACFEAFF440EEE6E450EEE6E420EEE6E54
:10011000550EEE6E470EEE6E0A0EEE6E0D0EEE6E84
:10012000EE6AD950330FE96EDACFEAFF310EEE6E88
:10013000EE6AD950350FE96EDACFEAFF300EEE6E77
:10014000EE6AD950370FE96EDACFEAFF300EEE6E65
:10015000EE6AEE6AD9503A0FE96EDACFEAFF310E55
:10016000EE6EEE6AEE6AD9503D0FE96EDACFEAFF25
:10017000320EEE6EEE6AEE6AD950400FE96EDACFBB
:10018000EAFF330EEE6EEE6AEE6AD950430FE96E67
:10019000DACFEAFF340EEE6EEE6AEE6AD950460F01
:1001A000E96EDACFEAFF350EEE6EEE6AEE6AD950EE
:1001B000490FE96EDACFEAFF360EEE6EEE6AEE6AAE
:1001C000D9504C0FE96EDACFEAFF370EEE6EEE6AC9
:1001D000EE6AD9504F0FE96EDACFEAFF380EEE6EB5
:1001E000EE6AEE6AD950520FE96EDACFEAFF390EA5
:1001F000EE6EEE6AEE6AD950550FE96EDACFEAFF7D
:10020000310EEE6E300EEE6EEE6AD950580FE96E7A
:10021000DACFEAFF310EEE6EEE6EEE6AD9505B0F6A
:10022000E96EDACFEAFF310EEE6E320EEE6EEE6A56
:10023000D9505E0FE96EDACFEAFF310EEE6E330E63
:10024000EE6EEE6AD950610FE96EDACFEAFF310E39
:10025000EE6E340EEE6EEE6AD950640FE96EDACFB0
:10026000EAFF310EEE6E350EEE6EEE6AD950670F74
:10027000E96EDACFEAFF310EEE6E360EEE6EEE6A02
:100280006A0EDB6A6B0EDB6A2DEC05F011D928ECE7
:1002900004F025EC05F09CEC03F0D950020FE66E5B
:1002A000000EDA20E66E000EE66EE66AE66EE66A9C
:1002B00054EC03F0146E060EE15E1450D950250F75
:1002C000E66E000EDA20E66E40EC05F0E552E552EF
:1002D000D9500E0FE66E000EDA20E66E40EC05F007
:1002E000E552E552CCEC05F0FDD7DACFE4FFE2CFE2
:1002F000DAFFE9CFE4FFEACFE4FFF6CFE4FFF7CF80
:10030000E4FFF5CFE4FFF3CFE4FFF4CFE4FFFACF4F
:10031000E4FF00EE00F0140EE80403E3EECFE4FF88
:10032000FBD700EE14F0040EE80403E3EECFE4FF85
:10033000FBD7E6529EAA03D073EC05F09E9AE552D5
:1003400000EE17F0040EE80403E3E5CFEDFFFBD762
:1003500000EE13F0140EE80403E3E5CFEDFFFBD746
:10036000E5CFFAFFE5CFF4FFE5CFF3FFE5CFF5FFEB
:10037000E5CFF7FFE5CFF6FFE5CFEAFFE5CFE9FFF1
:10038000E5CFDAFF1100D8CFE4FFE0CFE4FFE46E61
:10039000DACFE4FFE2CFDAFFE9CFE4FFEACFE4FF10
:1003A000F6CFE4FFF7CFE4FFF5CFE4FFF3CFE4FFB0
:1003B000F4CFE4FFFACFE4FF00EE00F0140EE804FF
:1003C00003E3EECFE4FFFBD700EE14F0040EE804E5
:1003D00003E3EECFE4FFFBD7E6529EAC40D0C4501F
:1003E0000101806F816BD89080378137D89080373A
:1003F0008137060EC3CFE7FF070B04E0E742E79E15
:10040000E806FCE1E75002E1000E01D0010E186E93
:10041000196A18BE1968010180511810806F815146
:100420001910816FC28280C1E6FFE66E670EE66E2C
:10043000010EE66E56D8E552E552E552E552670EDA
:10044000E66E010EE66E000EE66EE66AE66EE66A9F
:1004500054EC03F0186E060EE15E18509E9CE552B7
:1004600000EE17F0040EE80403E3E5CFEDFFFBD741
:1004700000EE13F0140EE80403E3E5CFEDFFFBD725
:10048000E5CFFAFFE5CFF4FFE5CFF3FFE5CFF5FFCA
:10049000E5CFF7FFE5CFF6FFE5CFEAFFE5CFE9FFD0
:1004A000E5CFDAFFE550E5CFE0FFE5CFD8FF10005C
:1004B000C284C296C298C29AC180C182C184C196C8
:1004C000C198C19AC080C082C084C096C098C08ABA
:1004D000C09EC28000000000000000000000C28238
:1004E0001200D9CFE6FFE1CFD9FF060EE126DE6A82
:1004F000DD6AFB0EDBCF08F0FC0EDBCF09F0020E4D
:1005000008C0DBFF030E09C0DBFF040EDB6A050E2B
:10051000DB6A020EDBCF14F0030EDBCF15F01534CF
:100520001FE214500008000E15541AE2DF2A010ED3
:1005300001E3DB2A0A0E146E156A020EDBCF08F007
:10054000030EDBCF09F014C00DF015C00EF021EC46
:1005500006F0020E08C0DBFF030E09C0DBFFD9D78F
:10056000FB0EDBCF08F0FC0EDBCF09F0020E08C05B
:10057000DBFF030E09C0DBFFD9CFE9FFDACFEAFFCB
:10058000040EEECFDBFF050EEDCFDBFFDECF14F068
:10059000DDCF15F0153447E214500008000E155455
:1005A00042E2020EDBCF16F0030EDBCF17F00A0E8D
:1005B0000D6E0E6A16C008F017C009F021EC06F0A7
:1005C00004C016F005C017F0300E1626000E1722D4
:1005D000FD0EDBCF14F0FE0EDBCF15F0DE50142441
:1005E000E96EDD501520EA6EE906000EEA5A16C0E3
:1005F000EFFFDF06010E01E2DB060A0E146E156A3C
:10060000020EDBCF08F0030EDBCF09F014C00DF0B3
:1006100015C00EF021EC06F0020E08C0DBFF030E41
:1006200009C0DBFFB3D7040EDBCF14F0050EDBCF20
:1006300015F0FD0EDB501424E96EFE0EDB50152084
:10064000EA6E2C0EEF6E040EDB2A050E01E3DB2AA8
:10065000040EDBCF14F0050EDBCF15F0FD0EDB50E2
:100660001424E96EFE0EDB501520EA6EEF6A060ECA
:10067000E15C02E2E16AE552E16EE552E7CFD9FFC3
:02068000120066
:0E0682000300A90F00008801000071000000B5
:10069000430F00008000000066000000300F0000E3
:0806A000E60000001300000059
:0806A800D9CFE6FFE1CFD9FF35
:1006B000020EE126DE6ADD6A3FD8FB0EDBCFE6FFE5
:1006C000FC0EDBCFE6FFFD0EDBCFE6FFFE0EDBCF41
:1006D000E6FF68D8E552E552E552E552F90EDBCF68
:1006E00014F0FA0EDBCF15F0DE501424E96EDD5065
:1006F0001520EA6EEF5016E0F90EDBCF14F0FA0E7B
:10070000DBCF15F0DE501424E96EDD501520EA6EC3
:10071000EF50E66E1BD8E5524FD9DF2A010EDEE31B
:10072000DB2ADCD7020EE15C02E2E16AE552E16E0F
:10073000E552E7CFD9FF1200C00EE66E2DD9E55283
:10074000C10EE66E29D9E552DCEF04F0D9CFE6FF01
:10075000E1CFD9FF030EE126DF6A010EDB6A020E4C
:10076000DB6AFE0EDB380F0B0F0BD009DF6EFE0EBF
:10077000DB500F0BD009E76E010EE7CFDBFFDFCFB9
:10078000E6FF0AD9E552010EDBCFE6FF05D9E552B7
:10079000030EE15C02E2E16AE552E16EE552E7CF69
:1007A000D9FF1200D9CFE6FFE1CFD9FF030EE12632
:1007B000DF6A010EDB6A020EDB6AD950FD0FE96EBB
:1007C000FF0EDA20EA6EEE50ED1007E1FB0EDB5073
:1007D000E76E020EE7CFDBFF1AD0D950FD0FE96EAE
:1007E000FF0EDA20EA6E010EEE1811E1ED500FE176
:1007F000400EE76EFB0EDBCF14F0FC0EDBCF15F0E6
:10080000E7501426000E1522020E14C0DBFF020E64
:10081000DB380F0B0F0BC809DF6E020EDB500F0B1E
:10082000C009E76E010EE7CFDBFFDFCFE6FFB4D8EC
:10083000E552010EDBCFE6FFAFD8E552030EE15CD7
:1008400002E2E16AE552E16EE552E7CFD9FF12001C
:10085000D9CFE6FFE1CFD9FF020EE126DE6ADD6ADD
:10086000959E959C959A9598959095929594959628
:100870008C9E8C8E8C988C9A8C9C8C8CDE6ADD6A1B
:10088000DECF14F0DDCF15F0D890155004E6100E31
:10089000145C270E155806E20000DF2A010E01E362
:1008A000DB2AEED7C20EE66E77D8E55285D8C20EA7
:1008B000E66E72D8E55280D8C80EE66E6DD8E55265
:1008C0007BD8C00EE66E68D8E55276D8CC0EE66EC0
:1008D00063D8E55271D8C00EE66E5ED8E5526CD88A
:1008E000C10EE66E59D8E55267D8C00EE66E54D8F0
:1008F000E55262D8C60EE66E4FD8E5525DD88C8EB2
:100900000000000000000000020EE15C02E2E16A6B
:10091000E552E16EE552E7CFD9FF1200D9CFE6FFED
:10092000E1CFD9FF020EE126DE6ADD6A020E086E13
:10093000096AFD0EDBCF0DF0FE0EDBCF0EF047ECAB
:1009400006F0FD0E06C0DBFFFE0E07C0DBFFDECFAC
:1009500014F0DDCF15F0FD0EDBCF16F0FE0EDBCF71
:1009600017F015501718E8AE02D0173404D01650FF
:10097000145C1750155806E20000DF2A010E01E34F
:10098000DB2AE5D7020EE15C02E2E16AE552E16EA4
:10099000E552E7CFD9FF1200D9CFE6FFE1CFD9FF6B
:1009A000FE0EDB508C6E000000008C9C00000000EE
:1009B000E552E7CFD9FF1200D9CFE6FFE1CFD9FF4B
:1009C000E6528C988C8A958608D8DF6EDFBEFCD7FD
:1009D000E552E552E7CFD9FF1200D9CFE6FFE1CFCC
:1009E000D9FF020EE12695869584958295808C8CA0
:1009F000000000008350DF6E8C9CDF50100D010E54
:100A0000F3CFDBFF8C8C000000008350DF6E8C9CEA
:100A10000D0EDF14DF6E010EDB50DF10E76E010EEE
:100A2000E7CFDBFF9596959495929590010EDB505C
:100A300000D0146E020EE15C02E2E16AE552E16E62
:0A0A40001450E552E7CFD9FF120071
:060A4A00D08E9D8A9D8CF8
:100A50009F9C9F8AF28EF28C12008B8E8B8CAB8EB9
:100A6000AC8EAC9CAC8AAC98AC84AB8EAB9CAB9A95
:100A7000AB88AB96AB94AB92B896400EAF6E1200BB
:100A8000D9CFE6FFE1CFD9FFFD0EDBCFE9FFFE0EA8
:100A9000DBCFEAFFEF500FE0FD0EDBCFE6FFFE0EEF
:100AA000DBCFE6FF0ED8E552E552FD0EDB2AFE0E47
:100AB000EBE3DB2AE9D7F36AF46AE552E7CFD9FF23
:100AC0001200D9CFE6FFE1CFD9FFACA2FED7FD0ED1
:100AD000DBCFE9FFFE0EDBCFEAFFEF50AD6EE55254
:100AE000E7CFD9FF1200D9CFE6FFE1CFD9FFE65219
:100AF000AE50DF6E000E0001EA25E96E010EEB211B
:100B0000EA6EDFCFEFFF000EEA25E96E010EEB2162
:100B1000EA6EEF500D080DE1010E0001E66FE76B84
:100B2000000E0001EA25E96E010EEB21EA6EEF6A84
:100B300013D0000EEA25E96E010EEB21EA6EEF50AC
:100B400001016619666F0001EA2B000EEB23100EFF
:100B5000EA1904E1EB5102E1EA6BEB6BE552E55275
:100B6000E7CFD9FF12000001F96BFA6B110EFAAF53
:100B700002D0D89003D0F95D000EFA590CE2000EB5
:100B8000F925E96E010EFA21EA6E300EEF6EF92BAF
:080B9000000EFA23EBD712005E
:080B9800D9CFE6FFE1CFD9FF40
:100BA000020EE126DE6ADD6AD9CFE9FFDACFEAFF7D
:100BB000EE50ED103CE10001F96BFA6B040EFAAF58
:100BC00002D0D89003D0F95D000EFA59EDE2F9C0D9
:100BD00014F0FAC015F00F0E1502F3CF15F0140241
:100BE000F3CF14F0F4501526BA0E1426010E152278
:100BF00014C0E6FF15C0E6FF000EE66E010EE66EBD
:100C000044EC07F0E552E552E552E55200090AE1ED
:100C1000F9C0E6FFFAC0E6FFC3EC06F0E552E55284
:100C2000B3EC05F00001F92B000EFA23C7D7020E32
:100C3000E15C02E2E16AE552E16EE552E7CFD9FFFD
:020C40001200A0
:0E0C4200006A0EAE2AEF06F00D6C0E1EE86A78
:100C50000E22001E09AE32EF06F0086C091EE86A8B
:100C60000922001E64EC07F009BE42EF06F000AE58
:100C7000000C086C091EE86A0922046C051EE86A6B
:100C80000522000C00BE39EF06F00188FF0C09C0F8
:100C900013F008C012F008500D02F4CF07F0F3CFA4
:100CA00006F009500E02F4CF09F0F3CF08F00D0260
:100CB000F3500726F4500822E86A092212500E0267
:100CC000F3500726F4500822E86A09220EAE6DEFB1
:100CD00006F01250085E1350095A13AE000C0D5066
:080CE000085E0E50095A000CD9
:080CE800820EF66E060EF76E97
:100CF000000EF86E02010900F550056F0900F5506D
:100D0000066F03E1056701D03DD00900F550006F83
:100D10000900F550016F0900F550026F0900090044
:100D2000F550E96E0900F550EA6E09000900090066
:100D3000F550036F0900F550046F09000900F6CF64
:100D400007F2F7CF08F2F8CF09F200C2F6FF01C2AE
:100D5000F7FF02C2F8FF0201035302E1045307E068
:100D60000900F550EE6E0307F8E20407F9D707C251
:100D7000F6FF08C2F7FF09C2F8FF02010507000EDF
:060D8000065BBFD7120064
:0A0D8600D9CFE6FFE1CFD9FFFD0E43
:100D9000DBCF08F0FE0EDBCF09F0030E081801E1EF
:100DA00009501AE0020E081801E1095011E0010E85
:100DB000081801E1095008E0085012E1095010E15B
:100DC000B80EE66E000E0FD0800EE66E000E0BD051
:100DD000960EE66E000E07D0A40EE66E000E03D04F
:100DE000DB0EE66E000EE66E40EC05F0E552E552D5
:100DF000E30EE66E000EE66E40EC05F0E552E552BD
:080E0000E552E7CFD9FF120013
:080E0800D9CFE6FFE1CFD9FFCD
:100E10000F0EE126D9CFE9FFDACFEAFF530EEE6ECF
:100E2000450EEE6E540EEE6E5F0EEE6E4D0EEE6ED5
:100E30004F0EEE6E440EEE6E450EEE6E5F0EEE6ED3
:100E4000430EEE6E4F0EEE6E550EEE6E4E0EEE6EC5
:100E5000540EEE6EEE6AD9CFE6FFDACFE6FF000E53
:100E6000E66EE66AE66EE66A54EC03F0146E060E71
:100E7000E15E14500F0EE15C02E2E16AE552E16EC0
:080E8000E552E7CFD9FF120093
:080E8800D9CFE6FFDACFE6FF47
:100E9000FA0EE3CFD9FFFB0EE3CFDAFFFC0EE3CF70
:100EA000E9FFFD0EE3CFEAFFDE50EF5C02E1EE6604
:100EB000FBD7F36EFF0EE3CFDAFFE552FF0EE3CF71
:080EC000D9FFE552F3501200C6
:080EC800056A046A100EE76ED2
:100ED000D89008360936043605360D50045C0E509D
:100EE000055805E30D50045E0E50055A082AE72EFA
:040EF000F0D7120025
:0C0EF400000EF36E00EE00F0060E01D8B8
:100F00001200EA6002D0EE6AFCD7F350E9601200EA
:040F1000EE6AFCD7B2
:0C0F140015EE00F025EE00F0F86A019CDC
:100F200074EC06F007EC00F00FEC00F0FBD71200B9
:100F300000000100000000007965730A0D006E6F6B
:030F40000A0D0097
:0D0F4300596F752061726520696E20776519
:100F5000696768206D6F646500546172696E67200F
:100F60007363616C65730063616C6962726174695B
:100F70006E67207363616C65733A00546865206620
:100F80006F6C6C6F77696E6720636F6D6D616E64F7
:100F900073206172652076616C69643A0A00646549
:090FA0006661756C74000D0A0015
:070FA90057656C636F6D6575
:100FB00020746F20666163746F7279206D6F646551
:100FC0002E0A0D2074797065202748454C50270A59
:100FD0000D000A0D006D73673A200048454C500023
:100FE000000000000000000000005745494748008D
:100FF00000000000000000000054415245000000C5
:10100000000000000000000043414C49425241549E
:0A101000450000000000000D0A007A
:020000040030CA
:0100010002FC
:0100020018E5
:010003001EDE
:010005008179
:010006008475
:010008000FE8
:01000900C036
:01000A000FE6
:01000B00E014
:01000C000FE4
:01000D0040B2
:00000001FF
