:020000040000FA
:06000000BEEF07F0120044
:020006001200E6
:060008004CEF01F01200B4
:02000E001200DE
:080018009AEF01F01200D9CFAC
:10002000E6FFE1CFD9FF6C0EE126DE6ADD6AD9502A
:10003000020FE96EDACFEAFF530EEE6E650EEE6E3A
:100040006E0EEE6E640EEE6E200EEE6E490EEE6ECD
:100050006E0EEE6E700EEE6E750EEE6E740EEE6E31
:100060003A0EEE6EEE6AD9500E0FE96EDACFEAFF65
:100070000D0EEE6E0A0EEE6EEE6AD950110FE96E9D
:10008000DACFEAFF450EEE6E6E0EEE6E740EEE6E79
:10009000650EEE6E720EEE6E200EEE6E520EEE6E6F
:1000A0003A0EEE6E200EEE6EEE6AD9501B0FE96E20
:1000B000DACFEAFF450EEE6E6E0EEE6E740EEE6E49
:1000C000650EEE6E720EEE6E200EEE6E500EEE6E41
:1000D0003A0EEE6E200EEE6EEE6AD950250FE96EE6
:1000E000DACFEAFF530EEE6E740EEE6E610EEE6E18
:1000F000720EEE6E740EEE6EEE6AD9502B0FE96E34
:10010000DACFEAFF440EEE6E450EEE6E420EEE6E54
:10011000550EEE6E470EEE6E0A0EEE6E0D0EEE6E84
:10012000EE6AD950330FE96EDACFEAFF310EEE6E88
:10013000EE6AD950350FE96EDACFEAFF300EEE6E77
:10014000EE6AD950370FE96EDACFEAFF300EEE6E65
:10015000EE6AEE6AD9503A0FE96EDACFEAFF310E55
:10016000EE6EEE6AEE6AD9503D0FE96EDACFEAFF25
:10017000320EEE6EEE6AEE6AD950400FE96EDACFBB
:10018000EAFF330EEE6EEE6AEE6AD950430FE96E67
:10019000DACFEAFF340EEE6EEE6AEE6AD950460F01
:1001A000E96EDACFEAFF350EEE6EEE6AEE6AD950EE
:1001B000490FE96EDACFEAFF360EEE6EEE6AEE6AAE
:1001C000D9504C0FE96EDACFEAFF370EEE6EEE6AC9
:1001D000EE6AD9504F0FE96EDACFEAFF380EEE6EB5
:1001E000EE6AEE6AD950520FE96EDACFEAFF390EA5
:1001F000EE6EEE6AEE6AD950550FE96EDACFEAFF7D
:10020000310EEE6E300EEE6EEE6AD950580FE96E7A
:10021000DACFEAFF310EEE6EEE6EEE6AD9505B0F6A
:10022000E96EDACFEAFF310EEE6E320EEE6EEE6A56
:10023000D9505E0FE96EDACFEAFF310EEE6E330E63
:10024000EE6EEE6AD950610FE96EDACFEAFF310E39
:10025000EE6E340EEE6EEE6AD950640FE96EDACFB0
:10026000EAFF310EEE6E350EEE6EEE6AD950670F74
:10027000E96EDACFEAFF310EEE6E360EEE6EEE6A02
:100280006A0EDB6A6B0EDB6A04EC05F0E8D8FFEC63
:1002900003F0FCEC04F0FFD7DACFE4FFE2CFDAFFA3
:1002A000E9CFE4FFEACFE4FFF6CFE4FFF7CFE4FFC6
:1002B000F5CFE4FFF3CFE4FFF4CFE4FFFACFE4FFA0
:1002C00000EE00F0140EE80403E3EECFE4FFFBD7EA
:1002D00000EE14F0040EE80403E3EECFE4FFFBD7D6
:1002E000E6529EAA03D04AEC05F09E9AE55200EE33
:1002F00017F0040EE80403E3E5CFEDFFFBD700EEB3
:1003000013F0140EE80403E3E5CFEDFFFBD7E5CFD0
:10031000FAFFE5CFF4FFE5CFF3FFE5CFF5FFE5CF3B
:10032000F7FFE5CFF6FFE5CFEAFFE5CFE9FFE5CF41
:10033000DAFF1100D8CFE4FFE0CFE4FFE46EDACFBC
:10034000E4FFE2CFDAFFE9CFE4FFEACFE4FFF6CF44
:10035000E4FFF7CFE4FFF5CFE4FFF3CFE4FFF4CF02
:10036000E4FFFACFE4FF00EE00F0140EE80403E32C
:10037000EECFE4FFFBD700EE14F0040EE80403E335
:10038000EECFE4FFFBD7E6529EAC40D0C450030151
:10039000806F816BD89080378137D89080378137D4
:1003A000060EC3CFE7FF070B04E0E742E79EE8062F
:1003B000FCE1E75002E1000E01D0010E186E196A4F
:1003C00018BE1968030180511810806F81511910EF
:1003D000816F80C3E6FFE66E670EE66E030EE66E83
:1003E00057D8E552E552E552E552670EE66E030E28
:1003F000E66E000EE66EE66AE66EE66A2BEC03F049
:10040000186E060EE15E18509E9CC282E55200EE08
:1004100017F0040EE80403E3E5CFEDFFFBD700EE91
:1004200013F0140EE80403E3E5CFEDFFFBD7E5CFAF
:10043000FAFFE5CFF4FFE5CFF3FFE5CFF5FFE5CF1A
:10044000F7FFE5CFF6FFE5CFEAFFE5CFE9FFE5CF20
:10045000DAFFE550E5CFE0FFE5CFD8FF1000C2841A
:10046000C296C298C29AC180C182C184C196C18815
:10047000C18AC080C082C084C096C098C08AC09E15
:10048000C28000000000000000000000C2821200D4
:10049000D9CFE6FFE1CFD9FF060EE126DE6ADD6A9D
:1004A000FB0EDBCF08F0FC0EDBCF09F0020E08C01C
:1004B000DBFF030E09C0DBFF040EDB6A050EDB6AFF
:1004C000020EDBCF14F0030EDBCF15F015341FE264
:1004D00014500008000E15541AE2DF2A010E01E341
:1004E000DB2A0A0E146E156A020EDBCF08F0030E2B
:1004F000DBCF09F014C00DF015C00EF096EC06F03D
:10050000020E08C0DBFF030E09C0DBFFD9D7FB0ECC
:10051000DBCF08F0FC0EDBCF09F0020E08C0DBFFDA
:10052000030E09C0DBFFD9CFE9FFDACFEAFF040EE3
:10053000EECFDBFF050EEDCFDBFFDECF14F0DDCF1E
:1005400015F0153447E214500008000E155442E22D
:10055000020EDBCF16F0030EDBCF17F00A0E0D6E86
:100560000E6A16C008F017C009F096EC06F004C039
:1005700016F005C017F0300E1626000E1722FD0EDD
:10058000DBCF14F0FE0EDBCF15F0DE501424E96E45
:10059000DD501520EA6EE906000EEA5A16C0EFFF9C
:1005A000DF06010E01E2DB060A0E146E156A020E6A
:1005B000DBCF08F0030EDBCF09F014C00DF015C03F
:1005C0000EF096EC06F0020E08C0DBFF030E09C029
:1005D000DBFFB3D7040EDBCF14F0050EDBCF15F035
:1005E000FD0EDB501424E96EFE0EDB501520EA6E82
:1005F0002C0EEF6E040EDB2A050E01E3DB2A040E3F
:10060000DBCF14F0050EDBCF15F0FD0EDB5014240C
:10061000E96EFE0EDB501520EA6EEF6A060EE15C15
:1006200002E2E16AE552E16EE552E7CFD9FF12003E
:100630000300A510000000020000E9000000AB0F5D
:10064000000000010000FA000000980F0000E9021D
:0606500000001300000091
:0A065600D9CFE6FFE1CFD9FF020E75
:10066000E126DE6ADD6A3FD8FB0EDBCFE6FFFC0E3B
:10067000DBCFE6FFFD0EDBCFE6FFFE0EDBCFE6FFB6
:1006800068D8E552E552E552E552F90EDBCF14F099
:10069000FA0EDBCF15F0DE501424E96EDD50152084
:1006A000EA6EEF5016E0F90EDBCF14F0FA0EDBCF56
:1006B00015F0DE501424E96EDD501520EA6EEF507F
:1006C000E66E1BD8E5524FD9DF2A010EDEE3DB2AA6
:1006D000DCD7020EE15C02E2E16AE552E16EE5522E
:1006E000E7CFD9FF1200C00EE66E2DD9E552C10E3C
:1006F000E66E29D9E552B3EF04F0D9CFE6FFE1CF9A
:10070000D9FF030EE126DF6A010EDB6A020EDB6A07
:10071000FE0EDB380F0B0F0BD009DF6EFE0EDB5029
:100720000F0BD009E76E010EE7CFDBFFDFCFE6FF4F
:100730000AD9E552010EDBCFE6FF05D9E552030EDB
:10074000E15C02E2E16AE552E16EE552E7CFD9FFF2
:100750001200D9CFE6FFE1CFD9FF030EE126DF6A11
:10076000010EDB6A020EDB6AD950FD0FE96EFF0E47
:10077000DA20EA6EEE50ED1007E1FB0EDB50E76E7B
:10078000020EE7CFDBFF1AD0D950FD0FE96EFF0E46
:10079000DA20EA6E010EEE1811E1ED500FE1400E85
:1007A000E76EFB0EDBCF14F0FC0EDBCF15F0E7504D
:1007B0001426000E1522020E14C0DBFF020EDB38D9
:1007C0000F0B0F0BC809DF6E020EDB500F0BC009B9
:1007D000E76E010EE7CFDBFFDFCFE6FFB4D8E552CF
:1007E000010EDBCFE6FFAFD8E552030EE15C02E27B
:1007F000E16AE552E16EE552E7CFD9FF1200D9CFA9
:10080000E6FFE1CFD9FF020EE126DE6ADD6A959EA2
:10081000959C959A959895909592959495968C9E81
:100820008C8E8C988C9A8C9C8C8CDE6ADD6ADECFE8
:1008300014F0DDCF15F0D890155004E6100E145CBE
:10084000270E155806E20000DF2A010E01E3DB2A1D
:10085000EED7C20EE66E77D8E55285D8C20EE66EA8
:1008600072D8E55280D8C80EE66E6DD8E5527BD8B6
:10087000C00EE66E68D8E55276D8CC0EE66E63D828
:10088000E55271D8C00EE66E5ED8E5526CD8C10E46
:10089000E66E59D8E55267D8C00EE66E54D8E552D8
:1008A00062D8C60EE66E4FD8E5525DD88C8E000039
:1008B000000000000000020EE15C02E2E16AE55285
:1008C000E16EE552E7CFD9FF1200D9CFE6FFE1CFC5
:1008D000D9FF020EE126DE6ADD6A020E086E096AA1
:1008E000FD0EDBCF0DF0FE0EDBCF0EF0BCEC06F004
:1008F000FD0E06C0DBFFFE0E07C0DBFFDECF14F0EF
:10090000DDCF15F0FD0EDBCF16F0FE0EDBCF17F0BE
:1009100015501718E8AE02D0173404D01650145CE6
:100920001750155806E20000DF2A010E01E3DB2A0A
:10093000E5D7020EE15C02E2E16AE552E16EE552C2
:10094000E7CFD9FF1200D9CFE6FFE1CFD9FFFE0EE6
:10095000DB508C6E000000008C9C00000000E55213
:10096000E7CFD9FF1200D9CFE6FFE1CFD9FFE6529A
:100970008C988C8A958608D8DF6EDFBEFCD7E5524E
:10098000E552E7CFD9FF1200D9CFE6FFE1CFD9FF7B
:10099000020EE12695869584958295808C8C0000C8
:1009A00000008350DF6E8C9CDF50100D010EF3CFE2
:1009B000DBFF8C8C000000008350DF6E8C9C0D0EE2
:1009C000DF14DF6E010EDB50DF10E76E010EE7CFA4
:1009D000DBFF9596959495929590010EDB5000D093
:1009E000146E020EE15C02E2E16AE552E16E14501F
:0809F000E552E7CFD9FF120028
:0809F800D08E9D8A9D8C9F9C0E
:100A00009F8AF28EF28C12008B8E8B8CAB8EAC8E0A
:100A1000AC9CAC8AAC98AC84AB8EAB9CAB9AAB88EC
:100A2000AB96AB94AB92B896400EAF6E1200D9CF96
:100A3000E6FFE1CFD9FFFD0EDBCFE9FFFE0EDBCFF6
:100A4000EAFFEF500FE0FD0EDBCFE6FFFE0EDBCF3F
:100A5000E6FF0ED8E552E552FD0EDB2AFE0EEBE373
:100A6000DB2AE9D7F36AF46AE552E7CFD9FF12002F
:100A7000D9CFE6FFE1CFD9FFACA2FED7FD0EDBCF89
:100A8000E9FFFE0EDBCFEAFFEF50AD6EE552E7CF98
:100A9000D9FF1200D9CFE6FFE1CFD9FFE652AE5021
:100AA000DF6E000E0201ED25E96E030EEE21EA6E07
:100AB000DFCFEFFF000EED25E96E030EEE21EA6EAB
:100AC000EF500D080DE1010E0201E96FEA6B000E17
:100AD0000201ED25E96E030EEE21EA6EEF6A13D0F6
:100AE000000EED25E96E030EEE21EA6EEF500301D4
:100AF0006619666F0201ED2B000EEE23100EED1944
:100B000004E1EE5102E1ED6BEE6BE552E552E7CF09
:100B1000D9FF12000201FC6BFD6B110EFDAF02D07C
:100B2000D89003D0FC5D000EFD590CE2000EFC25B0
:100B3000E96E030EFD21EA6E300EEF6EFC2B000E07
:060B4000FD23EBD71200BB
:0A0B4600D9CFE6FFE1CFD9FFFD0E85
:100B5000DBCF08F0FE0EDBCF09F0010E081801E133
:100B6000095001E18AD0090E081801E1095071E02D
:100B7000080E081801E1095068E00A0E081801E1A2
:100B800009505FE0070E081801E1095056E0060E13
:100B9000081801E109504DE0050E081801E109505F
:100BA00044E0040E081801E109503BE00B0E081860
:100BB00001E1095032E0030E081801E1095029E073
:100BC000020E081801E1095020E0085046E10950E2
:100BD00044E1380EE66E010EE66E17EC05F0E552C4
:100BE000E5525C0EE66E010EE66E17EC05F0E5527E
:100BF000E552890EE66E010EE66E17EC05F0E55241
:100C0000E552BC0EE66E010E2BD0000EE66E010E14
:100C100027D0160EE66E010E23D0240EE66E010ECE
:100C20001FD0D30EE66E010E23D0D70EE66E010E56
:100C30001FD0DB0EE66E010E1BD0DF0EE66E010E3E
:100C400017D0EB0EE66E010E13D0E30EE66E010E2A
:100C50000FD0E70EE66E010E0BD0EF0EE66E010E22
:100C6000E66E17EC05F0E552E552F70EE66E010E62
:100C7000E66E17EC05F0E552E552E552E7CFD9FFF5
:020C8000120060
:0E0C8200D9CFE6FFE1CFD9FF020EE126DE6AF0
:100C9000DD6AD9CFE9FFDACFEAFFEE50ED103CE193
:100CA0000201FC6BFD6B0C0EFDAF02D0D89003D09F
:100CB000FC5D000EFD59EDE2FCC214F0FDC215F022
:100CC0000F0E1502F3CF15F01402F3CF14F0F45009
:100CD0001526320E1426020E152214C0E6FF15C08A
:100CE000E6FF000EE66E030EE66E78EC07F0E552C6
:100CF000E552E552E55200090AE1FCC2E6FFFDC2F9
:100D0000E6FFA3EC05F0E552E5528AEC05F002019E
:100D1000FC2B000EFD23C7D7020EE15C02E2E16A64
:0C0D2000E552E16EE552E7CFD9FF12006A
:040D2C00006A0EAE9D
:100D30009FEF06F00D6C0E1EE86A0E22001E09AE33
:100D4000A7EF06F0086C091EE86A0922001E98EC5D
:100D500007F009BEB7EF06F000AE000C086C091EE4
:100D6000E86A0922046C051EE86A0522000C00BE30
:100D7000AEEF06F00188FF0C09C013F008C012F0B6
:100D800008500D02F4CF07F0F3CF06F009500E0221
:100D9000F4CF09F0F3CF08F00D02F3500726F4501A
:100DA0000822E86A092212500E02F3500726F45076
:100DB0000822E86A09220EAEE2EF06F01250085E41
:100DC0001350095A13AE000C0D50085E0E50095A0C
:020DD000000C15
:0E0DD200300EF66E060EF76E000EF86E030180
:100DE0000900F5508D6F0900F5508E6F03E18D6796
:100DF00001D03DD00900F550886F0900F550896F8A
:100E00000900F5508A6F09000900F550E96E0900E4
:100E1000F550EA6E090009000900F5508B6F0900D2
:100E2000F5508C6F09000900F6CF8FF3F7CF90F3E0
:100E3000F8CF91F388C3F6FF89C3F7FF8AC3F8FFA1
:100E400003018B5302E18C5307E00900F550EE6E6D
:100E50008B07F8E28C07F9D78FC3F6FF90C3F7FF33
:100E600091C3F8FF03018D07000E8E5BBFD7120000
:100E7000D9CFE6FFE1CFD9FF0F0EE126D9CFE9FFA9
:100E8000DACFEAFF530EEE6E450EEE6E540EEE6EA6
:100E90005F0EEE6E4D0EEE6E4F0EEE6E440EEE6E6B
:100EA000450EEE6E5F0EEE6E430EEE6E4F0EEE6E64
:100EB000550EEE6E4E0EEE6E540EEE6EEE6AD9CFFD
:100EC000E6FFDACFE6FF000EE66EE66AE66EE66A59
:100ED0002BEC03F0146E060EE15E14500F0EE15C75
:100EE00002E2E16AE552E16EE552E7CFD9FF120076
:100EF000D9CFE6FFDACFE6FFFA0EE3CFD9FFFB0E3C
:100F0000E3CFDAFFFC0EE3CFE9FFFD0EE3CFEAFF0C
:100F1000DE50EF5C02E1EE66FBD7F36EFF0EE3CF2F
:100F2000DAFFE552FF0EE3CFD9FFE552F35012008E
:100F3000056A046A100EE76ED89008360936043642
:100F400005360D50045C0E50055805E30D50045E47
:0C0F50000E50055A082AE72EF0D71200B8
:040F5C00000EF36E22
:100F600000EE00F0060E01D81200EA6002D0EE6A30
:0C0F7000FCD7F350E9601200EE6AFCD7D9
:040F7C0015EE00F07E
:100F800025EE00F0F86A019CE9EC06F007EC00F0B1
:080F90000FEC00F0FBD712008A
:080F9800000001000000000050
:0B0FA0007965730A0D006E6F0A0D00EA
:050FAB00596F75206183
:100FB000726520696E207765696768206D6F64656A
:100FC00000546172696E67207363616C65730063BE
:100FD000616C6962726174696E67207363616C65CC
:100FE000733A0054686520666F6C6C6F77696E6742
:100FF00020636F6D6D616E64732061726520766130
:101000006C69643A0A0D0048454C502C20555345F4
:10101000522C2057454947482C20544152452C20FA
:10102000434F554E542C205345545F4752414D5326
:10103000200A0D005345545F4F554E4345532C2015
:10104000464143544F52592C205745494748545F15
:1010500052454144494E47532C205354415449531F
:10106000544943530A0D005345545F53414D504C6E
:1010700045532C2043414C49425241544500310ACA
:101080000D00320A0D00330A0D00340D0A00350D33
:101090000A00360D0A00370D0A0064656661756C3A
:0510A00074000D0A00C0
:0B10A50057656C636F6D6520746F2051
:1010B000666163746F7279206D6F64652E0A0D200E
:1010C00074797065202748454C50270A0D000A0D99
:1010D000006D73673A200048454C50000000000046
:1010E00000000000000055534552000000000000C1
:1010F000000000000057454947480000000000007C
:1011000000000000544152450000000000000000B3
:10111000000000434F554E54000000000000000046
:1011200000005345545F4752414D530000000000FA
:10113000005345545F4F554E434553000000000097
:10114000464143544F5259003D3D3D3D3D3D3D5785
:1011500045494748545F52454144494E47535354CB
:10116000415449535449435300000000005345542F
:101170005F53414D504C45530000000043414C49E2
:0E11800042524154450000000000000D0A00DC
:020000040030CA
:0100010002FC
:0100020018E5
:010003001EDE
:010005008179
:010006008475
:010008000FE8
:01000900C036
:01000A000FE6
:01000B00E014
:01000C000FE4
:01000D0040B2
:00000001FF
