:020000040000FA
:0600000006EF05F01200FE
:020006001200E6
:0600080054EF01F01200AC
:08001800A1EF01F01200D9CFA5
:10002000E6FFE1CFD9FF720EE126DE6ADD6AD95024
:10003000020FF2D9530EEE6E650EEE6E6E0EEE6E80
:10004000640EEE6E200EEE6E490EEE6E6E0EEE6ECD
:10005000700EEE6E750EEE6E740EEE6E3A0EE0D908
:100060000E0FDAD90D0EEE6E0A0EDAD9110F9AD9EB
:10007000520ECCD91B0F96D9500EC8D9250FCCD90A
:10008000530EEE6E740EEE6E610EEE6E720EEE6E2E
:10009000740EC6D92B0FC0D9440EEE6E450EEE6E0F
:1000A000420EEE6E550EEE6E470EEE6E0A0EEE6EC0
:1000B0000D0EB6D9330F69D9EE6AD950350FACD9C8
:1000C000300EAED9370FA8D9300EAED93A0F5DD960
:1000D0008BD93D0FA1D9320EA7D9400F9DD9330E30
:1000E000A3D9430F99D9340E9FD9460F95D9350E10
:1000F0009BD9490F91D9360E97D94C0F8DD9370E10
:1001000093D94F0F89D9380E8FD9520F85D9390E0F
:100110008BD9550F3AD9300E83D9580F36D980D99B
:100120005B0F33D9320E7CD95E0F2FD9330E78D9BD
:10013000610F2BD9340E74D9640F27D9350E70D9BD
:10014000670F23D9360EEE6EEE6A6A0EDB6A6B0E0F
:10015000DB6A6C0EDB6A6D0EDB6A6E0EDB6A6F0E9D
:10016000DB6A0B0EF36E700EF3CFDBFF710EDB6AF2
:10017000CFEC03F0C9EC03F0F5D897EC02F04DECAE
:1001800002F0D950020FE66E000EDA2020D9D950C5
:10019000250F2ED9D9500E0F2BD9010E0101806FDA
:1001A000816B866F876B826B836B80C184F181C1A9
:1001B00085F1010185350AE284510008000E85555C
:1001C00005E2822B000E832332D9F3D7300E82252D
:1001D000676F686B80C184F181C185F182C1DEFFE8
:1001E00083C1DDFF010183351FE282510008000E4B
:1001F00083551AE284C114F085C115F0CAD804C031
:1002000014F005C015F0300E1426000E1522010161
:100210008207835B670E8225E96E010E8321EA6EF9
:1002200014C0EFFF04D9DED7CBD801E3DB2AE9D82D
:100230002C0EEF6EC5D801E3DB2AE3D80A0EEF6E71
:10024000BFD801E3DB2ADDD80D0EEF6EB9D801E38C
:10025000DB2AD7D8EF6A670EE66E010EE66EE2EC97
:1002600003F0E552E552670EE66E010EB0D80101CB
:1002700080518625806F81518721816FE83408E2A3
:100280008051E808030E815503E2866987698BD7A0
:10029000813504E280510008000E815501E283D7C8
:1002A000010E866F876B7FD7DACFE4FFE2CFDAFFEC
:1002B000E9CFE4FFEACFE4FFF6CFE4FFF7CFE4FFB6
:1002C000F5CFE4FFF3CFE4FFF4CFE4FFFACFE4FF90
:1002D00000EE00F0140EE80403E3EECFE4FFFBD7DA
:1002E00000EE14F0040EE80403E3EECFE4FFFBD7C6
:1002F000E6529EAA02D009EC04F0E55200EE17F097
:10030000040EE80403E3E5CFEDFFFBD700EE13F0A6
:10031000140EE80403E3E5CFEDFFFBD7E5CFFAFFCA
:10032000E5CFF4FFE5CFF3FFE5CFF5FFE5CFF7FF2E
:10033000E5CFF6FFE5CFEAFFE5CFE9FFE5CFDAFF4E
:100340001100D8CFE4FFE0CFE4FFE46EDACFE4FFA2
:10035000E652E552E5CFDAFFE550E5CFE0FFE5CF25
:10036000D8FF1000C280C294C296C298C29AC190AF
:10037000C192C194C196C198C19AC080C092C094E4
:10038000C096C098C09AC09E120046D8310EEE6E3C
:1003900012000A0E0D6E0E6A84C108F085C109F0C4
:1003A0003EEF04F039D8450EEE6E6E0EEE6E740E12
:1003B000EE6E650EEE6E720EEE6E200EEE6E12009A
:1003C000DFCFE9FFDF2A010EDBCFEAFF1200E66E86
:1003D000000EE66EE66AE66EE66A24EC02F0146E43
:1003E000060EE15E14501200EE6AEE6AD950120059
:1003F000E66E000EDA20E66EE2EC03F0E552E5521E
:100400001200670EE926010EEA221200EE6E3A0E85
:10041000EE6E200E10EF02F0E96EDACFEAFF120066
:10042000EE6EEE6AD9501200EE6EF4EF01F0B1DF1D
:0A04300008C084F109C085F1120034
:06043A000100280A000089
:08044000880100001300000018
:080448009FD9020EE126DE6AD5
:10045000DD6A23D8FB0EDBCFE6FFFC0EDBCFE6FF29
:10046000FD0EDBCFE6FFFE0EDBCFE6FF30D8E55218
:10047000E552E552E55265D90AE063D9E66E17D830
:10048000E55209D9DF2A010EF6E3DB2AF4D7020E82
:10049000E15C02E2E16AE5526BD1C00EE66EEBD898
:1004A000E552C10EE66EE7D8E5524BEF03F057D99F
:1004B000FE0EDB380F0B0F0BD009DF6EFE0EDB508C
:1004C0000F0BD0092ED902E2E16AE55251D147D98A
:1004D00054D9EE50ED1007E1FB0EDB50E76E020E33
:1004E000E7CFDBFF15D049D9010EEE1811E1ED5031
:1004F0000FE1400EE76EFB0EDBCF14F0FC0EDBCFFE
:1005000015F0E7501426000E1522020E14C0DBFF72
:10051000020EDB380F0B0F0BC809DF6E020EDB502B
:100520000F0BC009FED802E2E16AE55221D1D9CF12
:10053000E6FFE1CFD9FF020EE126DE6ADD6A959E75
:10054000959C959A959895909592959495968C9E54
:100550008C8E8C988C9A8C9C8C8CDE6ADD6ADECFBB
:1005600014F0DDCF15F0D890155004E6100E145C91
:10057000270E155806E20000DF2A010E01E3DB2AF0
:10058000EED7C20EE66E77D8E55285D8C20EE66E7B
:1005900072D8E55280D8C80EE66E6DD8E5527BD889
:1005A000C00EE66E68D8E55276D8CC0EE66E63D8FB
:1005B000E55271D8C00EE66E5ED8E5526CD8C10E19
:1005C000E66E59D8E55267D8C00EE66E54D8E552AB
:1005D00062D8C60EE66E4FD8E5525DD88C8E00000C
:1005E000000000000000020EE15C02E2E16AE55258
:1005F000E16EE552E7CFD9FF1200D9CFE6FFE1CF98
:10060000D9FF020EE126DE6ADD6A020E086E096A73
:10061000FD0EDBCF0DF0FE0EDBCF0EF064EC04F030
:10062000FD0E06C0DBFFFE0E07C0DBFFDECF14F0C1
:10063000DDCF15F0FD0EDBCF16F0FE0EDBCF17F091
:1006400015501718E8AE02D0173404D01650145CB9
:100650001750155806E20000DF2A010E01E3DB2ADD
:10066000E5D7020EE15C02E2E16AE552E16EE55295
:10067000E7CFD9FF1200D9CFE6FFE1CFD9FFFE0EB9
:10068000DB508C6E000000008C9C00000000E552E6
:10069000E7CFD9FF120078D8E6528C988C8A9586DD
:1006A00008D8DF6EDFBEFCD7E552E552E7CFD9FFB1
:1006B0001200D9CFE6FFE1CFD9FF020EE1269586E1
:1006C0009584958295808C8C000000008350DF6EAD
:1006D0008C9CDF50100D010EF3CFDBFF8C8C0000E3
:1006E00000008350DF6E8C9C0D0EDF14DF6E010E58
:1006F000DB50DF10E76E010EE7CFDBFF9596959498
:1007000095929590010EDB5000D0146E020EE15CC4
:1007100002E2E16AE552E16E1450E552E7CFD9FFFB
:100720001200E76E010EE7CFDBFFDFCFE6FFA3DFAE
:10073000E552010EDBCFE6FF9EDFE552030EE15CE2
:100740001200F90EDBCF14F0FA0EDBCF15F0DE50FD
:100750001424E96EDD501520EA6EEF50120014D813
:10076000030EE126DF6A010EDB6A020EDB6A12006D
:10077000E16EE552E7CFD9FF1200D950FD0FE96EC7
:10078000FF0EDA20EA6E1200D9CFE6FFE1CFD9FFE3
:02079000120055
:0E079200D08E9D8A9F8AF28EF28C12008B8E82
:1007A0008B8CAB8EAC8EAC9CAC8AAC98AC84AB8E94
:1007B000AB9CAB9AAB88AB96AB94AB92B896400E21
:1007C000AF6E1200D9CFE6FFE1CFD9FF4FD80FE0CF
:1007D000FD0EDBCFE6FFFE0EDBCFE6FF0ED8E552C7
:1007E000E552FD0EDB2AFE0EF1E3DB2AEFD7F36ABA
:1007F000F46AE552E7CFD9FF1200D9CFE6FFE1CF87
:10080000D9FFACA2FED732D8AD6EE552E7CFD9FF03
:100810001200000E010124D8AECFEFFF000E20D849
:10082000EF500D080BE1010E0101886F896B000E7E
:10083000010116D8EF6A8C6B8D6B1200000E10D878
:10084000EF5001016619666F01018C2B000E8D239C
:10085000100E8C1904E18D5102E18C6B8D6B12002E
:100860008C25E96E010E8D21EA6E1200FD0EDBCFA4
:0C087000E9FFFE0EDBCFEAFFEF501200A4
:04087C00006A0EAE52
:1008800047EF04F00D6C0E1EE86A0E22001E09AE42
:100890004FEF04F0086C091EE86A0922001EE0EC24
:1008A00004F009BE5FEF04F000AE000C086C091EF6
:1008B000E86A0922046C051EE86A0522000C00BEE5
:1008C00056EF04F00188FF0C09C013F008C012F0C5
:1008D00008500D02F4CF07F0F3CF06F009500E02D6
:1008E000F4CF09F0F3CF08F00D02F3500726F450CF
:1008F0000822E86A092212500E02F3500726F4502B
:100900000822E86A09220EAE8AEF04F01250085E4F
:100910001350095A13AE000C0D50085E0E50095AC0
:02092000000CC9
:0E0922003A0EF66E040EF76E000EF86E01012E
:100930000900F550A06F0900F550A16F03E1A06711
:1009400001D03DD00900F5509B6F0900F5509C6F18
:100950000900F5509D6F09000900F550E96E090086
:10096000F550EA6E090009000900F5509E6F090074
:10097000F5509F6F09000900F6CFA2F1F7CFA3F160
:10098000F8CFA4F19BC1F6FF9CC1F7FF9DC1F8FF12
:1009900001019E5302E19F5307E00900F550EE6EFE
:1009A0009E07F8E29F07F9D7A2C1F6FFA3C1F7FFA0
:1009B000A4C1F8FF0101A007000EA15BBFD7120080
:1009C000056A046A100EE76ED890083609360436B8
:1009D00005360D50045C0E50055805E30D50045EBD
:0C09E0000E50055A082AE72EF0D712002E
:0409EC00000EF36E98
:1009F00000EE00F0060E01D81200EA6002D0EE6AA6
:0C0A0000FCD7F350E9601200EE6AFCD74E
:040A0C0015EE00F0F3
:100A100025EE00F0F86A019C91EC04F003EC00F084
:080A20000FEC00F0FBD71200FF
:080A28000000010000000000C5
:0B0A30007965730A0D006E6F0A0D005F
:020000040030CA
:0100010002FC
:0100020018E5
:010003001EDE
:010005008179
:010006008475
:010008000FE8
:01000900C036
:01000A000FE6
:01000B00E014
:01000C000FE4
:01000D0040B2
:00000001FF
