:020000040000FA
:0600000071EF22F0120076
:020006001200E6
:060008006EEF01F0120092
:02000E001200DE
:080010000000010000000000E7
:08001800C0EF01F01200D9CF86
:10002000E6FFE1CFD9FF6C0EE126DE6ADD6AD9502A
:10003000020FE96EDACFEAFF530EEE6E650EEE6E3A
:100040006E0EEE6E640EEE6E200EEE6E490EEE6ECD
:100050006E0EEE6E700EEE6E750EEE6E740EEE6E31
:100060003A0EEE6EEE6AD9500E0FE96EDACFEAFF65
:100070000D0EEE6E0A0EEE6EEE6AD950110FE96E9D
:10008000DACFEAFF450EEE6E6E0EEE6E740EEE6E79
:10009000650EEE6E720EEE6E200EEE6E520EEE6E6F
:1000A0003A0EEE6E200EEE6EEE6AD9501B0FE96E20
:1000B000DACFEAFF450EEE6E6E0EEE6E740EEE6E49
:1000C000650EEE6E720EEE6E200EEE6E500EEE6E41
:1000D0003A0EEE6E200EEE6EEE6AD950250FE96EE6
:1000E000DACFEAFF530EEE6E740EEE6E610EEE6E18
:1000F000720EEE6E740EEE6EEE6AD9502B0FE96E34
:10010000DACFEAFF440EEE6E450EEE6E420EEE6E54
:10011000550EEE6E470EEE6E0A0EEE6E0D0EEE6E84
:10012000EE6AD950330FE96EDACFEAFF310EEE6E88
:10013000EE6AD950350FE96EDACFEAFF300EEE6E77
:10014000EE6AD950370FE96EDACFEAFF300EEE6E65
:10015000EE6AEE6AD9503A0FE96EDACFEAFF310E55
:10016000EE6EEE6AEE6AD9503D0FE96EDACFEAFF25
:10017000320EEE6EEE6AEE6AD950400FE96EDACFBB
:10018000EAFF330EEE6EEE6AEE6AD950430FE96E67
:10019000DACFEAFF340EEE6EEE6AEE6AD950460F01
:1001A000E96EDACFEAFF350EEE6EEE6AEE6AD950EE
:1001B000490FE96EDACFEAFF360EEE6EEE6AEE6AAE
:1001C000D9504C0FE96EDACFEAFF370EEE6EEE6AC9
:1001D000EE6AD9504F0FE96EDACFEAFF380EEE6EB5
:1001E000EE6AEE6AD950520FE96EDACFEAFF390EA5
:1001F000EE6EEE6AEE6AD950550FE96EDACFEAFF7D
:10020000310EEE6E300EEE6EEE6AD950580FE96E7A
:10021000DACFEAFF310EEE6EEE6EEE6AD9505B0F6A
:10022000E96EDACFEAFF310EEE6E320EEE6EEE6A56
:10023000D9505E0FE96EDACFEAFF310EEE6E330E63
:10024000EE6EEE6AD950610FE96EDACFEAFF310E39
:10025000EE6E340EEE6EEE6AD950640FE96EDACFB0
:10026000EAFF310EEE6E350EEE6EEE6AD950670F74
:10027000E96EDACFEAFF310EEE6E360EEE6EEE6A02
:100280006A0EDB6A6B0EDB6A0001D46BD56BD66B32
:10029000D76BD86BD96BDA6BDB6BDC6BDD6B2DEC62
:1002A0001DF0A6D842EC18F018EC1DF0020E00016B
:1002B000B96FBA6BB1EC1DF0020E0001B91901E182
:1002C000BA5109E0010EB91901E1BA51F5E0B9518D
:1002D000F3E1BA51F1D73FEC19F0EED7DACFE4FFF2
:1002E000E2CFDAFFE9CFE4FFEACFE4FFF6CFE4FFA5
:1002F000F7CFE4FFF5CFE4FFF3CFE4FFF4CFE4FF63
:10030000FACFE4FF00EE20F0140EE80403E3EECF92
:10031000E4FFFBD700EE00F0200EE80403E3EECF8D
:10032000E4FFFBD7E6529EAA07D073EC1DF09E9A1D
:10033000010E0001B56FB66BE55200EE1FF0200E06
:10034000E80403E3E5CFEDFFFBD700EE33F0140E36
:10035000E80403E3E5CFEDFFFBD7E5CFFAFFE5CFF8
:10036000F4FFE5CFF3FFE5CFF5FFE5CFF7FFE5CFEE
:10037000F6FFE5CFEAFFE5CFE9FFE5CFDAFF1100B1
:10038000D8CFE4FFE0CFE4FFE46EDACFE4FFE6523B
:100390009EAC25D0C4500001D46FD56BD890D43713
:1003A000D537D890D437D537060EC3CFE7FF070B24
:1003B00004E0E742E79EE806FCE1E75002E1000EB8
:1003C00001D0010E346E356A34BE35680001D45157
:1003D0003410D46FD5513510D56FC2829E9CE55232
:1003E000E5CFDAFFE550E5CFE0FFE5CFD8FF10001D
:1003F000C284C296C298C29AC180C182C184C19689
:10040000C188C18AC080C082C084C096C098C08A9A
:10041000C09EC28000000000000000000000C282F8
:020420001200C8
:0E042200050010000000F302000008000000BA
:10043000CA46000000020000E9000000CC450000B0
:1004400000010000FE000000914500008000000057
:100450003B000000FE440000000300009300000089
:10046000D9CFE6FFDACFE6FFE1CFD9FFE2CFDAFF5F
:100470004B0EE12402E3E168E652E16ECCEC06F0BB
:10048000D950060FF1EC06F073EC07F042EC07F0E0
:1004900002E2E16AE552E16E0050DF6ED9500D0FC5
:1004A000F1EC06F0AAEC07F042EC07F002E2E16A98
:1004B000E552E16E0050E76E010EE7CFDBFFBCECCA
:1004C00007F0A5EC06F0A6EC07F0000EE66EE66A73
:1004D00079EC07F002E2E16AE552E16E0050190E94
:1004E000DB5003E01A0EDB6A16D0A6EC07F0010E13
:1004F000E66EE66A79EC07F002E2E16AE552E16E47
:100500000050190EDB5002E1030E01D0050EF36E10
:100510001A0EF3CFDBFF010EDB0455E0FA0EDBCF42
:1005200000F0FB0EDBCF01F0FC0EDBCF02F0FD0E86
:10053000DBCF03F080EC07F046E0800EDF5C04E0E8
:10054000010EDB50800804E156EC07F07F0E5BD013
:10055000DF040CE1130EDB500FE0EDDB7F0E5DECF2
:1005600007F0210E0201FB6FFC6B0DD0040EDF5C67
:1005700022E1130EDB5003E021EC07F004D0DBDBBB
:100580007F0E5DEC07F01A0EDBA469D30C0EDB5076
:1005900001E165D3F6EC06F096EC07F0020E27C0F9
:1005A000DBFF030E28C0DBFF040E29C0DBFF050EB6
:1005B0002AC0DBFF54D3010EDB50040816E173DBC5
:1005C00080EC07F003E1B7DB3F0E1DD0130EDB50CC
:1005D00004E086EC07F004E106D086EC07F003E1C6
:1005E00021EC07F03CD3A7DB0DD00C0EDB500EE066
:1005F0001A0EDB50010B0AE1210E0201FB6FFC6BAE
:1006000056EC07F07F0E5DEC07F029D3ABDB80ECF6
:1006100007F002E1C1DB23D3D9501B0FE2DB73ECFF
:1006200007F07AEC1EF0006E060EE15C02E2E16A71
:10063000E552E16E005089DB0C0EDB5003E1180E31
:10064000DB6A16D030DB96EC07F0140E27C0DBFF18
:10065000150E28C0DBFF160E29C0DBFF170E2AC0BF
:10066000DBFF1A0EDB50040BE76E180EE7CFDBFF43
:100670001ADBF30E2C6E040E2D6E350E2E6E3F0E11
:100680002F6E0DDB7FEC0FF0010A17E1010EE66E15
:10069000E66AD950140F8DEC07F0DEEC1DF0006E09
:1006A000060EE15C02E2E16AE552E16E00504DDBCC
:1006B0001B0EDB061C0E01E2DB06F60EDBCF27F07D
:1006C000F70EDBCF28F0F80EDBCF29F0F90EDBCFE9
:1006D0002AF041EC0FF01D0E26C0DBFF1E0E27C0D6
:1006E000DBFF1F0E28C0DBFF200E29C0DBFF1B0E27
:1006F000DBCF28F01C0EE6DB250E27C0DBFF260E25
:1007000028C0DBFF270E29C0DBFF280E2AC0DBFF35
:1007100036DBF60EDBCF2CF0F70EDBCF2DF0F80E2C
:10072000DBCF2EF0F90ED2DB41EC0FF0210E26C00C
:10073000DBFF220E27C0DBFF230E28C0DBFF240EC9
:1007400029C0DBFFD950210F85DB08E6010EEE5CE6
:10075000800EEE58FF0EEE58FF0EEE581AE3210EF3
:10076000DBCF27F0220EDBCF28F0230EDBCF29F0E2
:10077000240EDBCF2AF02A34000E2A1809E6D8808E
:10078000FF0E27547F0E2854000E2954000E2A54C1
:1007900002E266DBEED1D9501D0F5CDB08E6800E6D
:1007A000EE5CFF0EEE58FF0EEE58FF0EEE580CE218
:1007B00075DB03E0800E006E05D0D9501B0F3DDBCA
:1007C0001FE1006A016A29D01D0EDBCF27F01E0E43
:1007D000DBCF28F01F0EDBCF29F0200EDBCF2AF075
:1007E0002A34000E2A1809E6D880800E2754000EFD
:1007F0002854000E2954000E2A5422E24FDB04E054
:10080000800E006E016809D0D9501B0F16DB02E183
:10081000006A02D0800E006E016A390E00C0DBFF54
:100820003A0E01C0DBFF370EDB6A380EDB6A2D0E95
:10083000DB6A2E0EDB6A2F0EDB6A300EDB6ACFD04E
:100840001D0EDBCF28F01E0EDBCF29F0370E28C09F
:10085000DBFF380E29C0DBFF210EDBCF28F0220E94
:10086000DBCF29F0390E28C0DBFF3A0E29C0DBFFB1
:10087000110EDBCF00F0120EDBCF01F07F0E005E19
:10088000000E015A080E005E000E015A350E00C01F
:10089000DBFF360E01C0DBFF59DB350EDBCFE6FF99
:1008A000360EDBCFE6FF25DB02E2E16AE552E16EC0
:1008B0000050470E26C0DBFF480E27C0DBFF490E65
:1008C00028C0DBFF4A0E29C0DBFF4CDA470EDBCF26
:1008D00004F0480EDBCF05F0490EDBCF06F04A0EE0
:1008E000DBCF07F004C02CF005C02DF006C02EF0C1
:1008F00007C02FF0D4D910EC0DF0430E27C0DBFF5A
:10090000440E28C0DBFF450E29C0DBFF460E2AC07F
:10091000DBFF35DA470EDBCF2CF0480EDBCF2DF0B6
:10092000490EDBCF2EF04A0ED1DAA3DA390EDBCF37
:1009300028F03A0EC7DA27C008F028C009F029C00D
:100940000AF02AC00BF03BDAD7DA10EC0DF0C2DA6D
:1009500016DA430EDBCF2CF0440EDBCF2DF0450E24
:10096000DBCF2EF0460EB2DA27C00CF028C00DF017
:1009700029C00EF02AC00FF022DA91D911EC0DF047
:100980003F0E27C0DBFF400E28C0DBFF410E29C011
:10099000DBFF420E2AC0DBFF3F0EDBCF00F0400E34
:1009A000DBCF01F0410EDBCF02F0420EDBCF03F0D4
:1009B000180E2C6E720E2D6E310E2E6E3F0E2F6E97
:1009C0006ED9A3EC0CF02D0E27C0DBFF2E0E28C035
:1009D000DBFF2F0E29C0DBFF300E2AC0DBFFC2D9A0
:1009E000370EDBCF28F0380E6DDA43DAE8D957D965
:1009F00010EC0DF03B0E27C0DBFF3C0E28C0DBFFE8
:100A00003D0E29C0DBFF3E0E2AC0DBFF3B0EDBCFD5
:100A100004F03C0EDBCF05F03D0EDBCF06F03E0EC2
:100A2000F2D9140F7ADAF1EC14F04AD9D9502D0F1B
:100A300069D911EC0DF0CCD9370EDBCF00F0380EB0
:100A4000DBCF01F00001800E011410E02868296856
:100A5000370EDBCF2DF0380EDBCF2EF001EC0EF091
:100A6000370E26C0DBFF380E27C0DBFF290EDB6AFE
:100A70002A0EDB6A800EF36E2B0EF3CFDBFF3F0EE8
:100A8000F36E2C0EF3CFDBFFD950370FD6D919E018
:100A9000370EDB50010B04E006D9D950290F4ADA92
:100AA000D950370F3EDA010E0F0B06E0EC52D8900A
:100AB000ED32EF32E806FAE1F6D8D950140F3ADAFF
:100AC000E3D7130EDB5021E0276A286A800E296ED7
:100AD0003F0E2A6E290EDBCF2CF02A0EDBCF2DF035
:100AE0002B0EDBCF2EF02C0EDBCF2FF050EC0CF0CA
:100AF000F1D9290E27C0DBFF2A0E28C0DBFF2B0E01
:100B000029C0DBFF2C0E2AC0DBFF390EDBCFE6FF4E
:100B10003A0EDBCFE6FF290EDBCF04F02A0EDBCF47
:100B200005F02B0EDBCF06F02C0E6DD92D0FF5D96D
:100B300088EC0FF0C5D827C0E6FF28C0E6FF29C023
:100B4000E6FF2AC0E6FFDEEC1DF00C6E060EE15C4F
:100B500002E2E16AE552E16E0C50310E26C0DBFF85
:100B6000320E27C0DBFF330E28C0DBFF340E29C056
:100B7000DBFFD950060F35D9D950310FCED982D9E4
:100B800002E2E16AE552E16E0050DF6E850EDF148D
:100B90003CE0220E0201FB6FFC6BEED926C000F098
:100BA00027C001F028C002F029C003F0BDD826C03C
:100BB00027F0C5D97FEC0FF0010A03E1130EDB50DB
:100BC00014E1DAD926C004F027C005F028C006F0E9
:100BD00029C007F0A9D826C027F0C2D95DEC0EF0D5
:100BE000010A12E1130EDB500FE1310EDB6A320E07
:100BF000DB6A800EF36E330EF3CFDBFF7F0EF36EF6
:100C0000340EF3CFDBFF01D02BD9180EDB500FE0F1
:100C1000310EDBCF04F0320EDBCF05F0330EDBCF2D
:100C200006F0340EDBCF07F001D9A1D90CD0310E7C
:100C3000DBCF00F0320EDBCF01F0330EDBCF02F062
:100C4000340EDBCF03F0020E00C0DBFF030E01C049
:100C5000DBFF040E02C0DBFF050E03C0DBFFC6D8BE
:100C600000C026F001C027F002C028F003C029F020
:100C70004B0EE15C02E2E16AE552E16EE552E5CF3E
:100C8000DAFFE7CFD9FF1200DA20EA6EEECFE6FFF7
:100C9000EECFE6FFEECFE6FFEFCFE6FF120000C09B
:100CA00027F09FEF07F0140EDBCF00F0150EDBCF1F
:100CB00001F0160EDBCF02F0170EDBCF03F01200AF
:100CC000E552E552E552E552E552E7CF07F0E5522D
:100CD000E7CF06F0E552E7CF05F0E552E7CF04F0A5
:100CE00026C008F027C009F028C00AF029C00BF080
:100CF00026C02CF027C02DF028C02EF029C02FF0E0
:100D0000B7EF07F00ED9EECF27F0EECF28F0EECFF9
:100D100029F0EFCF2AF000C02CF001C02DF002C066
:100D20002EF003C02FF012002C6A2D6A800E2E6E5A
:100D30003F0E2F6E1200020EDB6A030EDB6A800E7E
:100D4000F36E040EF3CFDBFF1200140E26C0DBFFA0
:100D5000150E27C0DBFF160E28C0DBFF170E29C0BB
:100D6000DBFF1200F60EDBCF00F0F70EDBCF01F059
:100D7000F80EDBCF02F0F90EDBCF03F01200250EE8
:100D8000DBCF27F0260EDBCF28F0270EDBCF29F0B4
:100D9000280EDBCF2AF01200D950FA0FE96EFF0EB1
:100DA000DA20EA6E020EEECFDBFF030EEECFDBFFA2
:100DB000040EEECFDBFF050EEECFDBFF120027C0E7
:100DC0002CF028C02DF029C02EF02AC02FF01200E0
:100DD0002AC0EDFF29C0EDFF28C0EDFF27C0EFFFBF
:100DE0001200E66E000EDA20E66E1200020EDBCF75
:100DF00000F0030EDBCF01F0040EDBCF02F0050E96
:100E0000DBCF03F01200DBCF07F004C0E6FF05C024
:100E1000E6FF06C0E6FF07C0E6FFD9501200C6ECA9
:100E200021F0E552E552E552E55212002C6A2D6A96
:100E3000800E2E6EBF0E2F6E120073D8EE50ED1086
:100E40001200020EDB6A030EDB6A040EDB6A050E7B
:100E5000DB6A120066D8D880030EEB50FF0A12003E
:100E6000310EDB6A320EDB6A330EDB6A340EDB6A6C
:100E7000120027C004F028C005F029C006F02AC0DF
:100E800007F012000CEC1FF0006E060EE15C120081
:100E9000E1EC1AF0006E080EE15C12001B0E1C0E55
:100EA000DBCF03F00001800E03141200020EDB689A
:100EB000030EDB68040EDB681200F36E050EF3CF41
:100EC000DBFF1200DBCF29F03DEF0CF0DBCF2FF082
:100ED000A3EF0CF027C000F028C001F029C002F0F9
:100EE0002AC003F01200D950FA0FE96EFF0E44EF4A
:100EF00006F030D848EF07F004C027F0B0EF07F055
:100F000013DFCDDE78EC0FF0010A1200CCDE0CDF2F
:100F1000C6DE7FEC0FF0010A1200E96E000E44EF0E
:100F200006F0E96E000EDA20EA6E12007FDFB7DE0F
:100F3000A3EF0CF0E7DEA3EC0CF0E8EF06F001C045
:100F400028F002C029F003C02AF01200D950190F6E
:100F5000F1EF06F0D950F60FE96EFF0E44EF06F000
:100F600005C028F006C029F007C02AF01200C4DF2F
:0E0F7000A3EC0CF06AEF07F0B6DF0FEF07F00E
:020F7E00D9CFC9
:100F8000E6FFE1CFD9FF360EE126D950140FE96E06
:100F9000DACFEAFF530EEE6E450EEE6E540EEE6E95
:100FA000430EEE6E4F0EEE6E550EEE6E4E0EEE6E64
:100FB000540EEE6EEE6AD9501D0FE96EDACFEAFFDD
:100FC000530EEE6E480EEE6E4F0EEE6E570EEE6E38
:100FD000430EEE6E4F0EEE6E550EEE6E4E0EEE6E34
:100FE000540EEE6EEE6AD950270FE96EDACFEAFFA3
:100FF000420EEE6E410EEE6E430EEE6E4B0EEE6E38
:10100000EE6A0B0EE66E030EE66E40EC1DF0E55246
:10101000E5520201F36BF46B240EE66E030EE66EEE
:1010200040EC1DF0E552E552080EE66E030EE66E4A
:1010300040EC1DF0E552E5520201F351F411FCE0E1
:10104000F36BF46BD950140FE66E000EDA20E66EE7
:10105000930EE66E030EE66EF9EC21F0E552E552D2
:10106000E552E552000901E07FD0660EE66E030E00
:10107000E66E40EC1DF0E552E552080EE66E030EFA
:10108000E66E40EC1DF0E552E5520201F351F41119
:10109000FCE0F36BF46B930EE66E030EE66E9FDAE4
:1010A000E552E552F3CF00F0F4CF01F0F350F41025
:1010B00011E1810EE66E030EE66E40EC1DF0E55286
:1010C000E552080EE66E030EE66E40EC1DF0E552AA
:1010D000E552CBD7930EE66E030EE66EEEDAE552DE
:1010E000E552F3CF00F3F4CF01F3010E030101AF9A
:1010F00002D0D89003D0005D000E015907E30135FE
:101100001AE20051F408010E015515E2810EE66E57
:10111000030EE66E40EC1DF0E552E552080EE66E59
:10112000030EE66E40EC1DF0E552E552010E0301A0
:10113000006F016B9AD72AEC1CF00001B751000137
:10114000D65D006ED7510001B855016E00C028F081
:10115000296E00C32DF001C32EF0A7EC0DF028C0BE
:1011600002F329C003F358D7D9501D0FE66E000EC5
:10117000DA20E66E930EE66E030EE66EF9EC21F0D1
:10118000E552E552E552E552000901E071D12AEC41
:101190001CF00001010EB31901E1B45101E179D055
:1011A0000001B7510001D65D046ED7510001B8555A
:1011B000056E04C028F0296E3DEC0CF027C000F04D
:1011C00028C001F029C002F02AC003F002C328F0B1
:1011D00003C329F03DEC0CF027C006F028C007F04F
:1011E00029C008F02AC009F027C02CF028C02DF033
:1011F00029C02EF02AC02FF000C027F001C028F02F
:1012000002C029F003C02AF050EC0CF027C004F310
:1012100028C005F329C006F32AC007F327C0E6FF5C
:1012200028C0E6FF29C0E6FF2AC0E6FF27EC20F031
:10123000E552E552E552E55226C004F027C005F01C
:1012400028C006F029C007F026C02CF027C02DF0DA
:1012500028C02EF029C02FF004C327F005C328F0C2
:1012600006C329F007C32AF010EC0DF027C000F0E8
:1012700028C001F029C002F02AC003F02C6A2D6AB0
:101280002E6A3F0E2F6E5DEC0EF0010A01E18AD04E
:10129000A8D00001B7510001D65D046ED7510001FE
:1012A000B855056E04C028F0296E3DEC0CF027C03F
:1012B00000F028C001F029C002F02AC003F002C3E8
:1012C00028F003C329F03DEC0CF027C00AF028C039
:1012D0000BF029C00CF02AC00DF0CD0E2C6ECC0EF8
:1012E0002D6EE20E2E6E410E2F6EA3EC0CF027C079
:1012F00006F028C007F029C008F02AC009F027C06E
:101300002CF028C02DF029C02EF02AC02FF000C0EC
:1013100027F001C028F002C029F003C02AF050ECE9
:101320000CF027C004F328C005F329C006F32AC037
:1013300007F327C0E6FF28C0E6FF29C0E6FF2AC062
:10134000E6FF27EC20F0E552E552E552E55226C0D3
:1013500004F027C005F028C006F029C007F026C019
:101360002CF027C02DF028C02EF029C02FF004C388
:1013700027F005C328F006C329F007C32AF010ECB4
:101380000DF027C000F028C001F029C002F02AC0EB
:1013900003F02C6A2D6A2E6A3F0E2F6E5DEC0EF064
:1013A000010A1FE104C3E6FF05C3E6FF06C3E6FF2B
:1013B00007C3E6FFAFEC20F0E552E552E552E552F7
:1013C00026C008F027C009F028C00AF029C00BF099
:1013D00026C027F009C028F00AC029F00BC02AF067
:1013E0001ED004C3E6FF05C3E6FF06C3E6FF07C33E
:1013F000E6FF27EC20F0E552E552E552E55226C023
:101400000CF027C00DF028C00EF029C00FF026C048
:1014100027F00DC028F00EC029F00FC02AF02EECE6
:101420000EF028C091F329C092F37A0EE66E030EF7
:10143000E66E40EC1DF0E552E552080EE66E030E36
:10144000E66E40EC1DF0E552E55291C3E6FF92C313
:10145000E6FFD9CFE6FFDACFE6FF21EC14F0E55244
:10146000E552E552E552D9CFE6FFDACFE6FF1AD0D2
:10147000D950270FE66E000EDA20E66E930EE66E68
:10148000030EE66EF9EC21F0E552E552E552E55225
:10149000000904E1360EE15C14E211D0810EE66E23
:1014A000030EE66E40EC1DF0E552E552080EE66EC6
:1014B000030EE66E40EC1DF0E552E552ADD5E16A53
:1014C000E552E16EE552E7CFD9FF1200D9CFE6FF32
:1014D000E1CFD9FF170EE126FD0EDBCF00F0FE0EA7
:1014E000DBCF01F0640E2D6E2E6A00C028F001C023
:1014F00029F0A7EC0DF0300E2824DF6EFD0EDBCFB7
:1015000000F0FE0EDBCF01F0640E2D6E2E6A00C0DF
:1015100028F001C029F0A7EC0DF024C000F025C090
:1015200001F00A0E2D6E2E6A24C028F025C029F085
:10153000A7EC0DF028C000F029C001F0300E002605
:10154000000E0122010E00C0DBFFFD0EDBCF00F01C
:10155000FE0EDBCF01F0640E2D6E2E6A00C028F067
:1015600001C029F0A7EC0DF024C000F025C001F067
:101570000A0E2D6E2E6A24C028F025C029F0A7EC93
:101580000DF024C000F025C001F0300E0026000E42
:101590000122020E00C0DBFF030EDFCFDBFF010ED6
:1015A000DB50E76E040EE7CFDBFF020EDB50E76E89
:1015B000050EE7CFDBFF060EDB6AD950030F006E86
:1015C000DACF01F0F36EDACFF4FF170EE15C02E23E
:1015D000E16AE552E16EE552E7CFD9FF1200D9CFBB
:1015E000E6FFE1CFD9FF060EE126DE6ADD6A010ED5
:1015F000F36E020EF3CFDBFF030EDB6AFD0EDBCFD3
:10160000E6FFFE0EDBCFE6FF19EC22F0E552E552D5
:10161000040EF3CFDBFF050EF4CFDBFFDE6ADD6ADD
:10162000DECF00F0DDCF01F0040EDBCF02F0050EBF
:10163000DBCF03F001500318E8AE02D0033404D02E
:101640000250005C035001582BE2FD0EDBCF00F08E
:10165000FE0EDBCF01F0DE500024E96EDD500120EC
:10166000EA6EEF50390811E3FD0EDBCF03F0FE0EFA
:10167000DBCF04F0DE500324E96EDD500420EA6E77
:10168000EFCF02F0300E025C06E2020EDB6A030EC0
:10169000DB6AF36A07D0DF2A010EC2E3DB2AC0D778
:1016A000010EF36EF46A060EE15C02E2E16AE552B5
:1016B000E16EE552E7CFD9FF1200D9CFE6FFE1CFC7
:1016C000D9FF0C0EE126DE6ADD6A020EDB6A030E2C
:1016D000DB6A040EDB6A050EDB6A060EDB6A070EA8
:1016E000DB6A080EDB6A090EDB6AFD0EDBCFE6FF64
:1016F000FE0EDBCFE6FF19EC22F0E552E5520A0EB2
:10170000F3CFDBFF0B0EF4CFDBFF020EDB6A030E21
:10171000DB6A020EDBCF00F0030EDBCF01F00A0E16
:10172000DBCF02F00B0EDBCF03F001500318E8AE65
:1017300002D0033404D00250005C0350015801E38E
:1017400086D0020EDBCFE9FF030EDBCFEAFF930E5C
:10175000E926030EEA22EF50D00FDE6EDD6A0A0E94
:10176000DBCF02F00B0EDBCF03F0020EDB50025C8E
:10177000006E030EDB500358016E0006000E015A86
:10178000040E00C0DBFF050E01C0DBFF040EDBCF43
:1017900028F0050EDBCF29F03DEC0CF027C004F05B
:1017A00028C005F029C006F02AC007F027C0E6FFD0
:1017B00028C0E6FF29C0E6FF2AC0E6FFE66AE66A1F
:1017C000200EE66E410EE66E30EC02F0086E080E5A
:1017D000E15E085026C000F027C001F028C002F0EA
:1017E00029C003F026C027F001C028F002C029F06C
:1017F00003C02AF02EEC0EF0080E28C0DBFF090E05
:1018000029C0DBFF060EDBCF02F0070EDBCF03F0B3
:10181000080EDBCF28F0090EDBCF29F0DECF2DF04C
:10182000DDCF2EF001EC0EF002502624006E0350A6
:101830002720016E060E00C0DBFF070E01C0DBFF94
:10184000020EDB2A030E01E264D7DB2A62D7060E02
:10185000DBCF00F0070EDBCF01F000C0F3FF01C0CB
:10186000F4FF0C0EE15C02E2E16AE552E16EE55242
:06187000E7CFD9FF1200D2
:0A187600219E08D0219E29AE05D066
:10188000286C291EE86A2922218E29C023F028C04D
:1018900022F0336A326A8E0E246E256AD7EF0EF07C
:1018A000216A13EC0FF02BEC0FF021B6BBEF0EF01A
:1018B00021A205D021BABBEF0EF0C2EF0EF021BA83
:1018C000CEEF0EF021A005D021B8BBEF0EF0CEEF89
:1018D0000EF021B8C2EF0EF0256A7F0E2A24246E86
:1018E000E86A25222F50245EE86A255A1A0E306EC7
:1018F0002A6A326A336A226A236A2C50275E2D5084
:10190000285A2E50295A000E2A5A09E72C50272609
:101910002D5028222E502922000E2A2201D0328A50
:10192000D8902736283629362A36D890323633369C
:1019300022362336302EE1D7295028102710D8A47C
:10194000328AD7EF0EF0216A13EC0FF02BEC0FF078
:1019500021B6BBEF0EF021A205D021B8BBEF0EF0EF
:10196000C2EF0EF021AA05D021B0BBEF0EF0C2EFFE
:101970000EF021B002D021A802D0CEEF0EF0256AE1
:101980002F502A24246EE86A25227E0E245EE86AFF
:10199000255A326A336A226A236A2E502902F4CF0A
:1019A00023F0F3CF22F02D502902F3503326F450C8
:1019B0002222000E23222E502802F3503326F45008
:1019C0002222000E23222C502902F3503226F450FA
:1019D0003322000E222223222D502802F3503226D9
:1019E000F4503322000E222223222E502702F350DD
:1019F0003226F4503322000E222223222C502802B9
:101A0000F4503226000E3322222223222D502702A8
:101A1000F4503226000E332222222322D7EF0EF07A
:101A20002F7E216A13EC0FF02BEC0FF021B6BBEFE9
:101A30000EF021A20AD021AA03D021BEBBEF0EF0E6
:101A400021A4C7EF0EF0C4EF0EF021AA05D021ACFF
:101A5000C7EF0EF0C4EF0EF021A00AD021A808D0E5
:101A600021BE04D021A402D0D0EF0EF0D4EF0EF0AE
:101A7000326A256A2F502A5C316E10E327C033F09A
:101A800028C022F029C023F02AC030F02CC027F053
:101A90002DC028F02EC029F0213A09D02CC033F0F7
:101AA0002DC022F02EC023F02FC030F0316C219ECB
:101AB00021BC218E30C024F021B003EF0FF01A0EAC
:101AC000316003EF0FF0246A2A6A21A408D0276C42
:101AD000281E291E2A1EE86A282229222A2221AC31
:101AE00008D0336C221E231E241EE86A22222322E1
:101AF0002422266A315207E02A342932283227323A
:101B00002632312EF9D72750332628502222295049
:101B100023222A50242226C032F0219E24AE0BD04C
:101B2000326C331E221E231E241EE86A3322222218
:101B300023222422218E24A006D0D88023322232D0
:101B400033323232302A30C024F0D7EF0EF0206A20
:101B50002EAEB0EF0DF02D6C2E1EE86A2E22201E48
:101B600029AEB8EF0DF0286C291EE86A2922201E44
:101B70004BEC22F029BEC8EF0DF020AE000C286C13
:101B8000291EE86A2922246C251EE86A2522000CF9
:101B900020BEBFEF0DF02188FF0C206AE86A2EAE50
:101BA000DAEF0DF02B6C2C1E2D1E2E1E2C222D225A
:101BB0002E22201E29AEE5EF0DF0266C271E281ED2
:101BC000291E272228222922201E27EC22F029BEA6
:101BD000FCEF0DF020AE000C266C271E281E291EDF
:101BE000E86A272228222922226C231E241E251E71
:101BF000232224222522000C20BEECEF0DF02188A8
:101C0000FF0C29C033F028C032F028502D02F4CF49
:101C100027F0F3CF26F029502E02F4CF29F0F3CF8E
:101C200028F02D02F3502726F4502822E86A2922B2
:101C300032502E02F3502726F4502822E86A292237
:101C40002EAE27EF0EF03250285E3350295A33AEB5
:101C5000000C2D50285E2E50295A000C216A13ECDE
:101C60000FF021B638EF0EF021A20ED021B405D02E
:101C70007F0E296EFF0E286E1FD0800E296E286AF7
:101C80001BD0296A286A18D021B0FBD78F0E2A6092
:101C9000EDD77E0E2A64F5D78E0E2A5C05E0D8902B
:101CA000293228322A2AF8D721A406D0286C291EE6
:101CB000E86A292229AEE5D7120066EC0EF021B6BB
:101CC000000C21B0000C21B4000C010C216A13ECB3
:101CD0000FF02BEC0FF021B6120021AE08D021A09E
:101CE00004D021A802D021801200219012002F5090
:101CF0002A5C0BE12E50295C08E12D50285C05E19F
:101D00002C50275C02E121801200D8A002D0218E45
:101D100010D02A502FC02AF02F6E29502EC029F043
:101D20002E6E28502DC028F02D6E27502CC027F085
:101D30002C6E2F502A5C10E0FF0F09E0219021B497
:101D400003D021AE2184120021AE219412002F2A4B
:101D5000D8902E322D322C322C50275E2D50285AFE
:101D60002E50295A29BEEAD7D89027362836293648
:101D70002A2EF8D7C8D77F0E2A6EFF0E296E286E3E
:101D8000276E12007F0E21BEFF0E2A6E02D07F0E3C
:101D90002A6E800E296E286A276AF3D721AE04D0F6
:101DA000800E2A6E296AF7D72A6A296AF4D7235047
:101DB000221033103210F8E025BEF0D723BE0CD02D
:101DC00024502510EBE0D8903236333622362336B5
:101DD0002406D8A02506F2D72550D4E12428D2E045
:101DE00032AE11D07F0E321402E133A00CD0332A70
:101DF000E86A2222232207E3D880233222323332B8
:101E0000242A2428BFE02450C9E033C027F022C090
:101E100028F02334296E24302A6E29322A9E21BECE
:101E20002A8EC1EF0EF029362A3602E32184217E64
:101E300006E121802A6A296A286A276A12002A286C
:101E400003E0D88029321200D890293202E12182A1
:101E50001200218612002E362F3602E3218C217EBD
:101E600006E121882F6A2E6A2D6A2C6A12002F281B
:101E700003E0D8802E321200D8902E32EAE1218A77
:101E80001200216A13EC0FF021B64BEF0FF021A2E4
:101E90000FD021B407D07F0E296EFF0E286E276E5B
:101EA000266E25D0800E296E01D0296A000EF6D745
:101EB00021B0FBD7266A9F0E2A60EBD77E0E2A64DC
:101EC000F4D79E0E2A5C07E0D890293228322732B8
:101ED00026322A2AF6D721A40AD0266C271E281ECD
:101EE000291EE86A27222822292229AEDED71200DD
:101EF00066EC0EF021B6000C21B0010C000C66EC73
:101F00000EF021B6000C21B0000C21A4000C010C35
:101F1000D9CFE6FFDACFE6FFE1CFD9FFE2CFDAFF94
:101F2000260EE12402E3E168E652E16ED950FA0F91
:101F3000E96EFF0EDA20EA6E010EEECFDBFF020E35
:101F4000EECFDBFF030EEECFDBFF040EEECFDBFFA9
:101F5000050EDB6A060EDB6A800EF36E070EF3CF0A
:101F6000DBFF330EF36E080EF3CFDBFFD950090F02
:101F7000E66E000EDA20E66E98DA0CEC1FF0006ECA
:101F8000060EE15C02E2E16AE552E16E0050DF6EAE
:101F9000800EDF5C07E1010EDB68020EDB68030EDA
:101FA000DB681DD0DF0466E0040EDF5C05E10F0E88
:101FB000DB5001E1D5D127D007DA170E2C6E720E57
:101FC0002D6EB10E2E6E420E2F6EEAD95DEC0EF024
:101FD000010A07E1220E0201FB6FFC6B4ADA7F0E59
:101FE0004BD0F2D9D80E2C6E8E0E2D6ECE0E2E6EDC
:101FF000C20E2F6ED5D97FEC0FF0010A0DE1220E33
:102000000201FB6FFC6B010EDB6A020EDB6A030E42
:10201000DB6A040EDB6AA4D1D950FA0FE96EFF0E19
:10202000F1D9C6EC21F0E552E552E552E55226C061
:1020300000F027C001F028C002F029C003F0050E0F
:10204000DBCF04F0060EDBCF05F0070EDBCF06F08A
:10205000080EDBCF07F004C02CF005C02DF006C041
:102060002EF007C02FF026C027F025DA7FEC0FF006
:10207000010A07E1FED93F0EF36E040EF3CFDBFF3A
:102080006FD1A2D93B0E2C6EAA0E2D6EB80E2E6EFD
:102090003F0E2F6E85D9C1D987D92F6A81D97FECA0
:1020A0000FF0010A04E10EDA10EC0DF003D00ADAA9
:1020B00011EC0DF02EEC0EF01C0E28C0DBFF1D0EF7
:1020C00029C0DBFF1C0EDBCF28F01D0EDBCF29F073
:1020D0003DEC0CF0D8D92C6A2D6A800E2E6EBF0E06
:1020E0002F6E9BD9FA0EDBCF04F0FB0EDBCF05F091
:1020F000FC0EDBCF06F0FD0EDBCF07F01E0EDBCFB4
:102100000CF01F0EDBCF0DF0200EDBCF0EF0210EFA
:10211000DBCF0FF02C6A800E2D6E310E2E6E3F0E2F
:102120002F6E0CC027F00DC028F00EC029F00FC094
:102130002AF0A3EC0CF027C008F028C009F029C051
:102140000AF02AC00BF055D9A7D911EC0DF09BD994
:102150001E0EDBCF14F01F0EDBCF15F0200EDBCFF1
:1021600016F0210EDBCF17F0830E2C6E800E2D6E35
:102170005E0E2E6EB90E2F6E14C027F015C028F01B
:1021800016C029F017C02AF0A3EC0CF027C010F0FD
:1021900028C011F029C012F02AC013F098D9180EE7
:1021A00027C0DBFF190E28C0DBFF1A0E29C0DBFF9A
:1021B0001B0E2AC0DBFF180EDBCF27F0190EDBCF7A
:1021C00028F01A0EDBCF29F01B0EDBCF2AF034D912
:1021D000220E27C0DBFF230E28C0DBFF240E29C000
:1021E000DBFF250E37D9080E2C6E530E2D6E880E90
:1021F0002E6E3B0EF6D8800E2E6E3E0E2F6E11EC1C
:102200000DF01AD9100E27C0DBFF110E28C0DBFF1E
:10221000120E29C0DBFF130E1DD95B0E2C6EBF0EF4
:102220002D6E4C0E2E6E3D0EDCD82E6A3F0E2F6E9C
:1022300011EC0DF0140E27C0DBFF150E28C0DBFFDC
:10224000160E29C0DBFF170E2AC0DBFF006A016AE9
:10225000026A3F0E036E100EDBCF08F0110EDBCFCB
:1022600009F0120EDBCF0AF0130EDBCF0BF0140EC9
:10227000DBCF10F0150EDBCF11F0160EDBCF12F016
:10228000170EDBCF13F0100EDBCF14F0110EDBCFE7
:1022900015F0120EDBCF16F0130EDBCF17F014C0C3
:1022A0002CF015C02DF016C02EF017C02FF010C066
:1022B00027F011C028F012C029F013C02AF010EC4A
:1022C0000DF027C00CF028C00DF029C00EF02AC078
:1022D0000FF08FD808C027F009C028F00AC029F0F5
:1022E0000BC02AF050EC0CF027C004F028C005F019
:1022F00029C006F02AC007F0EAD8010E27C0DBFF8C
:10230000020E28C0DBFF030E29C0DBFF040E2AC02B
:10231000DBFF010EE76E1C0EDBCF00F01D0EDBCFE6
:1023200001F0E7500026000E012200C0E6FF01C0C8
:10233000E6FFBBD8DEEC1DF0026E060EE15C02E2A9
:10234000E16AE552E16E0250010E26C0DBFF020E8B
:1023500027C0DBFF030E28C0DBFF040E29C0DBFF14
:10236000010EDBCF00F0020EDBCF01F0030EDBCF5E
:1023700002F0040EDBCF03F000C026F001C027F00E
:1023800002C028F003C029F0260EE15C02E2E16AF7
:10239000E552E16EE552E5CFDAFFE7CFD9FF120053
:1023A00000C027F05BEF12F01E0EDBCF00F01F0E17
:1023B000DBCF01F0200EDBCF02F0210EDBCF03F0EC
:1023C0002C6A2D6A2E6A1200FA0EDBCF00F0FB0E8B
:1023D000DBCF01F0FC0EDBCF02F0FD0EDBCF03F014
:1023E00012002F6E59D8A3EC0CF04DD82C6A2D6A30
:1023F000120027C02CF028C02DF029C02EF02AC0D2
:102400002FF01200DA20EA6EEECFE6FFEECFE6FF05
:10241000EECFE6FFEFCFE6FF1200A3EC0CF01E0EAE
:1024200027C0DBFF1F0E28C0DBFF200E29C0DBFF0B
:10243000210E2AC0DBFF1200180EDBCF2CF0190E84
:10244000DBCF2DF01A0EDBCF2EF01B0EDBCF2FF0E3
:10245000A3EF0CF02AC0DBFF220EDBCF04F0230E2B
:10246000DBCF05F0240EDBCF06F0250EDBCF07F027
:102470001200010EDB6A020EDB6A800EF36E030EA1
:10248000F3CFDBFF120027C000F028C001F029C005
:1024900002F02AC003F0120004C027F005C028F0A3
:1024A00006C029F007C02AF01200D950010FE96ECA
:1024B000000E02EF12F001C028F002C029F003C0A4
:1024C0002AF0120071DF3F0E2F6ED0EF11F091DF76
:0624D00067DF11EF0DF0C3
:0A24D600D9CFE6FFE1CFD9FFFD0EDC
:1024E000DBCF28F0FE0EDBCF29F0010E281801E12A
:1024F000295001E1D0D0090E281801E1295001E14D
:10250000B0D0080E281801E1295001E1A0D00A0E30
:10251000281801E1295001E190D0070E281801E1A7
:10252000295001E186D0060E281801E1295001E169
:1025300076D0050E281801E1295067E0040E28180E
:1025400001E129505FE00B0E281801E1295050E00D
:10255000030E281801E1295039E0020E281801E184
:10256000295022E0285001E086D0295001E083D094
:10257000380EE66E010EE66E40EC1DF0E552E552B7
:102580005C0EE66E010EE66E40EC1DF0E552E55283
:10259000890EE66E010EE66E40EC1DF0E552E55246
:1025A000BC0EE66E010E6AD0000EE66E010EE66EFF
:1025B00040EC1DF0E552E552E90EE66E010EE66EC6
:1025C00040EC1DF0E552E55273D865D0160EE66E6C
:1025D000010EE66E40EC1DF0E552E552E90EE66EA6
:1025E000010EE66E40EC1DF0E552E55225D953D0C0
:1025F0000001020EB9194FE1BA514DE1240EE66E09
:10260000010E3CD0BFEC07F046D0D50EE66E010EB1
:10261000E66E40EC1DF0E552E55241D83CD0D70EB5
:10262000E66E010EE66E40EC1DF0E552E5523BD839
:1026300032D0D90EE66E010E29D00001020EB91972
:102640002AE1BA5128E1DF0EE66E010E1FD000012B
:10265000020EB91920E1BA511EE1DB0EE66E010E41
:1026600015D00001020EB91916E1BA5114E1DD0EC0
:10267000E66E010E0BD0E10EE66E010EE66E40EC4A
:102680001DF0E552E552E90EE66E010EE66E40ECF5
:102690001DF0E552E552E552E7CFD9FF12000001E7
:1026A000B36BB46B1200010E0001B36FB46B120078
:1026B000D9CFE6FFE1CFD9FF090EE126D9CFE9FF57
:1026C000DACFEAFF500EEE6E4C0EEE6E5A0EEE6E44
:1026D000200EEE6E770EEE6E6F0EEE6E720EEE6EDA
:1026E0006B0EEE6EEE6A0001B56BB66B2AEC1CF059
:1026F0000001B351B41135E10001B7510001D65DBD
:10270000006ED7510001B855016E00C0E6FFE66EBD
:10271000BB0EE66E000EE66E94D8E552E552E55229
:10272000E552BB0EE66E000EE66E40EC1DF0E55283
:10273000E552EE0EE66E010EE66E40EC1DF0E5523F
:10274000E552F70EE66E010EE66E40EC1DF0E55226
:10275000E552EC0EE66E010EE66E40EC1DF0E55221
:10276000E5520001010EB31955E1B45153E10001E6
:10277000B7510001D65D066ED7510001B855076EFE
:1027800006C028F0296E3DEC0CF027C002F028C0EE
:1027900003F029C004F02AC005F0290E2C6E5C0E4F
:1027A0002D6E0F0E2E6E3D0E2F6EA3EC0CF02EEC48
:1027B0000EF028C000F029C001F028C0E6FF29C0B3
:1027C000E6FFBB0EE66E000EE66E3BD8E552E55224
:1027D000E552E552BB0EE66E000EE66E40EC1DF0D3
:1027E000E552E552F40EE66E010EE66E40EC1DF089
:1027F000E552E552F70EE66E010EE66E40EC1DF076
:10280000E552E552EC0EE66E010EE66E40EC1DF070
:10281000E552E5520001010EB51901E067D7B65146
:1028200001E064D7090EE15C02E2E16AE552E16E83
:10283000E552E7CFD9FF1200D6C0B7F0D7C0B8F045
:102840001200D9CFE6FFE1CFD9FF060EE126DE6AFE
:10285000DD6AFB0EDBCF28F0FC0EDBCF29F0020E89
:1028600028C0DBFF030E29C0DBFF040EDB6A050E68
:10287000DB6A020EDBCF00F0030EDBCF01F0013488
:102880001FE200500008000E01541AE2DF2A010E78
:1028900001E3DB2A0A0E006E016A020EDBCF28F08C
:1028A000030EDBCF29F000C02DF001C02EF0A7EC05
:1028B0000DF0020E28C0DBFF030E29C0DBFFD9D7C5
:1028C000FB0EDBCF28F0FC0EDBCF29F0020E28C078
:1028D000DBFF030E29C0DBFFD9CFE9FFDACFEAFF28
:1028E000040EEECFDBFF050EEDCFDBFFDECF00F0F9
:1028F000DDCF01F0013447E200500008000E015422
:1029000042E2020EDBCF02F0030EDBCF03F00A0E31
:102910002D6E2E6A02C028F003C029F0A7EC0DF03E
:1029200024C002F025C003F0300E0226000E032260
:10293000FD0EDBCF00F0FE0EDBCF01F0DE500024F9
:10294000E96EDD500120EA6EE906000EEA5A02C087
:10295000EFFFDF06010E01E2DB060A0E006E016AE0
:10296000020EDBCF28F0030EDBCF29F000C02DF0E4
:1029700001C02EF0A7EC0DF0020E28C0DBFF030E05
:1029800029C0DBFFB3D7040EDBCF00F0050EDBCF91
:1029900001F0FD0EDB500024E96EFE0EDB5001203D
:1029A000EA6E2C0EEF6E040EDB2A050E01E3DB2A25
:1029B000040EDBCF00F0050EDBCF01F0FD0EDB5087
:1029C0000024E96EFE0EDB500120EA6EEF6A060E6F
:1029D000E15C02E2E16AE552E16EE552E7CFD9FF40
:0229E0001200E3
:0E29E200D9CFE6FFDACFE6FFE1CFD9FFE2CF93
:1029F000DAFF260EE12402E3E168E652E16ED950E7
:102A0000050FE1D90CEC1FF0006E060EE15C02E24E
:102A1000E16AE552E16E0050DF6E800EDF5C05E09A
:102A20000B0EDB5012E0DF0410E0210E0201FB6F01
:102A3000FC6B010EDB68020EDB68030EDB687F0EA9
:102A4000F36E040EF3CFDBFF8FD1040EDF5C0EE1DB
:102A50003EDA010EEECFDBFF020EEECFDBFF030E00
:102A6000EECFDBFF040EEECFDBFF7ED1DF0410E103
:102A7000210E0201FB6FFC6B010EDB6A020EDB6AAA
:102A8000800EF36E030EF3CFDBFF040EDB686CD118
:102A9000D9500C0F98D97AEC1EF0006E060EE15C4E
:102AA00002E2E16AE552E16E0050FA0E26C0DBFF59
:102AB000FB0E27C0DBFFFC0E28C0DBFFFD0E29C08C
:102AC000DBFFA6D9F30E2C6E040E2D6E350E2E6E86
:102AD0003F0E87D95DEC0EF0010A09E1B3D984D924
:102AE00010EC0DF067D9EDD984D9ACD916D00C0E05
:102AF000DB060D0E01E2DB068BD92C6A2D6A2E6AED
:102B00003F0E6FD976D9160EDBCF04F0170EDBCF50
:102B100005F0180EDBCF06F0190E66D9A3EC0CF009
:102B200049D9CFD911EC0DF01A0E27C0DBFF1B0ECF
:102B300028C0DBFF1C0E29C0DBFF1D0E2AC0DBFFF7
:102B4000160EDBCF27F0170EDBCF28F0180EDBCFE9
:102B500029F0190EDBCF2AF01A0EDBCF2CF01B0E5A
:102B6000DBCF2DF01C0EDBCF2EF01D0EDBCF2FF0B8
:102B700050EC0CF01FD9120E27C0DBFF130E28C03B
:102B8000DBFF140E29C0DBFF150E2AC0DBFF4DD979
:102B9000120EDBCF2CF0130EDBCF2DF0140EDBCF9B
:102BA0002EF0150E62D90E0E27C0DBFF0F0E28C0C7
:102BB000DBFF100E29C0DBFF110E2AC0DBFF3D0E2C
:102BC000F36E1E0EF3CFDBFF7E0EF36E1F0EF3CF00
:102BD000DBFF0D0EF36E200EF3CFDBFFBF0EF36EA7
:102BE000210EF3CFDBFF0E0EDBCF00F00F0EDBCF9D
:102BF00001F0100EDBCF02F0110EDBCF03F03A0E26
:102C00002C6E3F0E2D6ED40E2E6EC00EEAD811EC37
:102C10000DF0220E27C0DBFF230E28C0DBFF240EA1
:102C200029C0DBFF250E2AC0DBFF0E0EDBCF27F00D
:102C30000F0EDBCF28F0100EDBCF29F0110EDBCF0B
:102C40002AF01E0EDBCF2CF01F0EDBCF2DF0200E56
:102C5000DBCF2EF0210E09D9220EDBCF2CF0230E74
:102C6000DBCF2DF0240EDBCF2EF0250EDBCF2FF0A7
:102C700050EC0CF007D9120EDBCF00F0130EDBCFB7
:102C800001F0140EDBCF02F0150EDBCF03F0CDD830
:102C9000010EDBCF2CF0020EDBCF2DF0030EDBCFCD
:102CA0002EF0040EE2D827C004F028C005F029C099
:102CB00006F02AC007F078D8046A800E056E310E3F
:102CC000066E3F0E076EC9D827C008F028C009F06D
:102CD00029C00AF02AC00BF0CCD8E1D8A3EC0CF044
:102CE00069D8830E146E800E156E5E0E166EB90EC8
:102CF000176EB3D827C018F028C019F029C01AF0F1
:102D00002AC01BF0B6D814C027F015C028F016C092
:102D100029F017C02AF0A3EC0CF027C010F028C04F
:102D200011F029C012F02AC013F0010EDBCF1CF005
:102D3000020EDBCF1DF0030EDBCF1EF0040EDBCF47
:102D40001FF01CC02CF01DC02DF01EC02EF01FC0A7
:102D50002FF011EC0DF027C00CF028C00DF029C0A9
:102D60000EF02AC00FF020D8010EDBCF00F0020ECB
:102D7000DBCF01F0030EDBCF02F0040EDBCF03F05C
:102D800000C026F001C027F002C028F003C029F0DF
:102D9000260EE15C02E2E16AE552E16EE552E5CF22
:102DA000DAFFE7CFD9FF120064D882D811EC0DF01A
:102DB00042EF17F027C000F028C001F029C002F050
:102DC0002AC003F01200E66E000EDA20E66E7FD80D
:102DD000EECFE6FFEECFE6FFEECFE6FFEFCFE6FF6A
:102DE00012002F6E58EF17F0DBCF07F06AD84FEFC5
:102DF00017F010EC0DF0160E27C0DBFF170E28C0E1
:102E0000DBFF180E29C0DBFF190E2AC0DBFF120002
:102E1000FA0EDBCF00F0FB0EDBCF01F0FC0EDBCFB8
:102E200002F0FD0EDBCF03F01200120EDBCF27F015
:102E3000130EDBCF28F0140EDBCF29F0150EDBCFFD
:102E40002AF01200FA0EDBCF04F0FB0EDBCF05F008
:102E5000FC0EDBCF06F0FD0E12000C0EDBCF28F0CF
:102E60000D0EDBCF29F03DEF0CF0DBCF2FF0A3EF01
:102E70000CF027C02CF028C02DF029C02EF02AC05D
:102E80002FF01200010E27C0DBFF020E28C0DBFF6F
:102E9000030E29C0DBFF040E2AC0DBFF120004C0B2
:102EA00027F005C028F006C029F007C02AF012005C
:102EB00000C027F001C028F002C029F003C02AF0AA
:102EC00012002C6A2D6A2E6A3F0E2F6E1200D95006
:0C2ED000FA0FE96EFF0EDA20EA6E120025
:042EDC00D9CFE6FF65
:102EE000E1CFD9FF020EE126DE6ADD6A3FD8FB0E94
:102EF000DBCFE6FFFC0EDBCFE6FFFD0EDBCFE6FF10
:102F0000FE0EDBCFE6FF68D8E552E552E552E5520A
:102F1000F90EDBCF00F0FA0EDBCF01F0DE5000241B
:102F2000E96EDD500120EA6EEF5016E0F90EDBCFBE
:102F300000F0FA0EDBCF01F0DE500024E96EDD5028
:102F40000120EA6EEF50E66E1BD8E5524FD9DF2A1A
:102F5000010EDEE3DB2ADCD7020EE15C02E2E16A6D
:102F6000E552E16EE552E7CFD9FF1200C00EE66EE2
:102F70002DD9E552C10EE66E29D9E552F6EF18F0CB
:102F8000D9CFE6FFE1CFD9FF030EE126DF6A010EBC
:102F9000DB6A020EDB6AFE0EDB380F0B0F0BD0096B
:102FA000DF6EFE0EDB500F0BD009E76E010EE7CF90
:102FB000DBFFDFCFE6FF0AD9E552010EDBCFE6FFEC
:102FC00005D9E552030EE15C02E2E16AE552E16EE9
:102FD000E552E7CFD9FF1200D9CFE6FFE1CFD9FF05
:102FE000030EE126DF6A010EDB6A020EDB6AD950AE
:102FF000FD0FE96EFF0EDA20EA6EEE50ED1007E1EC
:10300000FB0EDB50E76E020EE7CFDBFF1AD0D95084
:10301000FD0FE96EFF0EDA20EA6E010EEE1811E1E7
:10302000ED500FE1400EE76EFB0EDBCF00F0FC0E23
:10303000DBCF01F0E7500026000E0122020E00C097
:10304000DBFF020EDB380F0B0F0BC809DF6E020E21
:10305000DB500F0BC009E76E010EE7CFDBFFDFCFC0
:10306000E6FFB4D8E552010EDBCFE6FFAFD8E5525C
:10307000030EE15C02E2E16AE552E16EE552E7CF60
:10308000D9FF1200D9CFE6FFE1CFD9FF020EE1262A
:10309000DE6ADD6A959E959C959A95989590959295
:1030A000959495968C9E8C8E8C988C9A8C9C8C8CFE
:1030B000DE6ADD6ADECF00F0DDCF01F0D89001508E
:1030C00004E6100E005C270E015806E20000DF2A1D
:1030D000010E01E3DB2AEED7C20EE66E77D8E55289
:1030E00085D8C20EE66E72D8E55280D8C80EE66E5C
:1030F0006DD8E5527BD8C00EE66E68D8E55276D81A
:10310000CC0EE66E63D8E55271D8C00EE66E5ED87E
:10311000E5526CD8C10EE66E59D8E55267D8C00E9C
:10312000E66E54D8E55262D8C60EE66E4FD8E55228
:103130005DD88C8E0000000000000000020EE15CF3
:1031400002E2E16AE552E16EE552E7CFD9FF1200F3
:10315000D9CFE6FFE1CFD9FF020EE126DE6ADD6AB4
:10316000020E286E296AFD0EDBCF2DF0FE0EDBCF9E
:103170002EF001EC0EF0FD0E26C0DBFFFE0E27C088
:10318000DBFFDECF00F0DDCF01F0FD0EDBCF02F084
:10319000FE0EDBCF03F001500318E8AE02D003347B
:1031A00004D00250005C0350015806E20000DF2A00
:1031B000010E01E3DB2AE5D7020EE15C02E2E16ADF
:1031C000E552E16EE552E7CFD9FF1200D9CFE6FF15
:1031D000E1CFD9FFFE0EDB508C6E000000008C9C0E
:1031E00000000000E552E7CFD9FF1200D9CFE6FF7B
:1031F000E1CFD9FFE6528C988C8A958608D8DF6E8D
:10320000DFBEFCD7E552E552E7CFD9FF1200D9CF98
:10321000E6FFE1CFD9FF020EE126958695849582DF
:1032200095808C8C000000008350DF6E8C9CDF50FA
:10323000100D010EF3CFDBFF8C8C000000008350DB
:10324000DF6E8C9C0D0EDF14DF6E010EDB50DF1085
:10325000E76E010EE7CFDBFF9596959495929590DA
:10326000010EDB5000D0006E020EE15C02E2E16A6A
:0E327000E552E16E0050E552E7CFD9FF1200A3
:02327E00D9CFA6
:10328000E6FFE1CFD9FF020EE126DE6ADD6A00012A
:10329000B56BB66B000EE66E020EE66E40EC1DF0EE
:1032A000E552E552E60EE66E020EE66E40EC1DF0CB
:1032B000E552E552D9CFE9FFDACFEAFFEE50ED1043
:1032C00046E12AEC1CF00001010EB51904E1B651EB
:1032D00002E1B56BB66B0101FE6BFF6B0C0EFFAF2D
:1032E00002D0D89003D0FE5D000EFF59E3E2FEC18C
:1032F00000F0FFC101F00F0E0102F3CF01F0000258
:10330000F3CF00F0F4500126320E0026020E012207
:1033100000C0E6FF01C0E6FF930EE66E030EE66E08
:10332000F9EC21F0E552E552E552E55200090AE1D7
:10333000FEC1E6FFFFC1E6FF6BEC12F0E552E5527D
:10334000B1EC1DF00101FE2B000EFF23C7D7020ECA
:10335000E15C02E2E16AE552E16EE552E7CFD9FFB6
:103360001200D9CFE6FFE1CFD9FF700EE126D9CF09
:10337000E9FFDACFEAFF500EEE6E6C0EEE6E650ED0
:10338000EE6E610EEE6E730EEE6E650EEE6E200E3C
:10339000EE6E650EEE6E6E0EEE6E740EEE6E650ED9
:1033A000EE6E720EEE6E200EEE6E740EEE6E680E07
:1033B000EE6E650EEE6E200EEE6E630EEE6E6F0E0E
:1033C000EE6E720EEE6EEE6E650EEE6E630EEE6ECD
:1033D000740EEE6E200EEE6E700EEE6E610EEE6EE0
:1033E000730EEE6EEE6E770EEE6E6F0EEE6E720E6A
:1033F000EE6E640EEE6E200EEE6E660EEE6E6F0ECC
:10340000EE6E720EEE6E200EEE6E610EEE6E630EBE
:10341000EE6EEE6E650EEE6E730EEE6EEE6E200EBE
:10342000EE6E740EEE6E6F0EEE6E200EEE6E660E8B
:10343000EE6E610EEE6E630EEE6E740EEE6E6F0E3D
:10344000EE6E720EEE6E790EEE6E200EEE6E6D0E5C
:10345000EE6E6F0EEE6E640EEE6E650EEE6E2E0E5E
:10346000EE6E0A0EEE6E0D0EEE6EEE6AD950400F45
:10347000E96EDACFEAFF310EEE6E320EEE6E330EEB
:10348000EE6EEE6AD950440FE96EDACFEAFF490ECC
:10349000EE6E6E0EEE6E630EEE6E6F0EEE6E720ED2
:1034A000EE6EEE6E650EEE6E630EEE6E740EEE6EEA
:1034B0002E0EEE6E200EEE6E590EEE6E6F0EEE6E4E
:1034C000750EEE6E200EEE6E680EEE6E610EEE6EF6
:1034D000760EEE6E650EEE6E200EEE6E620EEE6EE7
:1034E000650EEE6EEE6E6E0EEE6E200EEE6E640EDD
:1034F000EE6E650EEE6E6E0EEE6E690EEE6E650E83
:10350000EE6E640EEE6E200EEE6E610EEE6E630ECB
:10351000EE6EEE6E650EEE6E730EEE6EEE6E2E0EAF
:10352000EE6E0A0EEE6E0D0EEE6EEE6A010EF36E8C
:103530006E0EF3CFDBFF6F0EDB6AD9CFE6FFDACF7B
:10354000E6FF40EC1DF0E552E552D9506E0FE96EF2
:10355000DACFEAFFEE50ED102AE0D950400FE66EC8
:10356000000EDA20E66E930EE66E030EE66EF9ECC0
:1035700021F0E552E552E552E55200090AE1020E5A
:103580000001B96FBA6B6E0EDB6A6F0EDB6A77DE15
:10359000DCD7D950440FE66E000EDA20E66E40EC20
:1035A0001DF0E552E5526E0EDB6A6F0EDB6A700E9F
:1035B000E15C02E2E16AE552E16EE552E7CFD9FF54
:0235C0001200F7
:0E35C200D9CFE6FFDACFE6FFE1CFD9FFE2CFA7
:1035D000DAFF130EE12402E3E168E652E16E0C0E1D
:1035E000DB6AD950FA0FE96EFF0EDA20EA6E080E98
:1035F000EECFDBFF090EEECFDBFF0A0EEECFDBFFD7
:103600000B0EEECFDBFF1FD9D950080F17D9EECF25
:10361000E6FFEECFE6FFEECFE6FFEFCFE6FF0CECE6
:103620001FF0006E060EE15C02E2E16AE552E16E17
:103630000050DF6E020EDF5C01E0BCD0050EDBCF78
:1036400002F0060EDBCF03F0F80EDB50025C006EDA
:10365000F90EDB500358016E7F0E005E000E015A1A
:103660000D0E00C0DBFF0E0E01C0DBFF0D0E0E0EB7
:10367000DBCF01F00001800E01140AE0010EF36EB1
:103680000C0EF3CFDBFF070EDB5001E098D09DD08E
:103690000D0EDBCF00F00E0EDBCF01F0D890015005
:1036A00004E6170E005C000E015801E39ED004688A
:1036B00005687F0E066E076A0D0EDB501F0B04C0F7
:1036C00000F005C001F006C002F007C003F007E0FB
:1036D000D8900332023201320032E806F9E10F0ECF
:1036E00000C0DBFF100E01C0DBFF110E02C0DBFFCC
:1036F000120E03C0DBFF0F0EDBCF00F0100EDBCF8E
:1037000001F0110EDBCF02F0120EDBCF03F0D95027
:10371000010F94D8EE500016EE500116EE5002162E
:10372000EE500316005001100210031002E1000ECB
:1037300001D0010EE76E0C0EE7CFDBFFDB5055E04A
:10374000046A056A800E066E076A010E086E096A31
:103750000A6A0B6AD9500F0F71D8EE500826EE5046
:103760000922EE500A22EE500B220850045C006E33
:1037700009500558016E0A500658026E0B50075842
:10378000036ED950010F5AD80050EE160150EE16B4
:103790000250EE160350EE16D950080FE66E000EDA
:1037A000DA20E66E50D89AEC1FF0E552E552E55269
:1037B000E5521BD0DF0419E1070EDB5006E0006A7A
:1037C000016A026A800E036E04D0006A016A026A0E
:1037D000036A080E00C0DBFF090E01C0DBFF0A0E02
:1037E00002C0DBFF0B0E03C0DBFFF60EDBCFE9FFF1
:1037F000F70EDBCFEAFF0C0EDBCFEFFF080EDBCFBF
:1038000000F0090EDBCF01F00A0EDBCF02F00B0E49
:10381000DBCF03F000C026F001C027F002C028F083
:1038200003C029F0130EE15C02E2E16AE552E16EA9
:10383000E552E5CFDAFFE7CFD9FF1200E96E000EBF
:10384000DA20EA6E1200D950010FE66E000EDA207F
:04385000E66E12000E
:0C385400D9CFE6FFE1CFD9FF020EE1263C
:10386000140EDE6EDD6AD4C0E6FFD5C0E6FFDECF03
:10387000E6FFDDCFE6FFD8C0E6FFD9C0E6FFDA0EEF
:10388000E66E000EE66E8B0EE66E000EE66E27D834
:10389000006E0A0EE15E0050F3CFD6F0F4CFD7F001
:1038A0000001D82B000ED923DECF00F0DDCF01F0D0
:1038B000D9510118E8AE02D0013404D00050D85DCF
:1038C0000150D95902E3D86BD96B020EE15C02E2D8
:1038D000E16AE552E16EE552E7CFD9FF1200D9CF98
:1038E000E6FFE1CFD9FFF90EDBCF08F0FA0EDBCF10
:1038F00009F0D89008360936FD0EDB500824E96E31
:10390000FE0EDB500920EA6EEECF04F0EFCF05F09B
:10391000066A076A05AE02D006680768FB0EDBCFB1
:10392000E9FFFC0EDBCFEAFF0450EE5C006E0550B1
:10393000EE58016E0650EE58026E0750EE58036EB8
:10394000F50EDBCF0AF0F60EDBCF0BF00C6A0D6A3A
:103950000BAE02D00C680D680A5000260B500122F5
:103960000C5002220D500322FB0EDBCFE9FFFC0EB0
:10397000DBCFEAFF00C0EEFF01C0EEFF02C0EEFFAA
:1039800003C0EEFFF90EDBCF00F0FA0EDBCF01F043
:10399000D89000360136FD0EDB500024E96EFE0E95
:1039A000DB500120EA6EF50EDBCFEEFFF60EDBCF2B
:1039B000EDFFF70EDBCF06F0F80EDBCF07F0086A5D
:1039C000096A07AE02D008680968FB0EDBCFE9FF81
:1039D000FC0EDBCFEAFFEECF02F0EECF03F0EECF2E
:1039E00004F0EFCF05F002C026F003C027F004C0BA
:1039F00028F005C029F006C02BF007C02CF008C045
:103A00002DF009C02EF0CDEC0DF026C0F3FF27C03D
:0A3A1000F4FFE552E7CFD9FF1200E2
:063A1A00D08EF28EF28C4A
:103A2000F28CF190F194F2941200F29EF29C12004A
:103A3000FCDFF28AD59CD59AD584F80ED76E300E6D
:103A4000D66E9386938481968194F00EC1140F09EB
:103A5000C16EF286F2900DEF1DF08B8E8B8CAB8ECB
:103A6000AC8EAC9CAC8AAC98AC84AB8EAB9CAB9A65
:103A7000AB88AB96AB94AB92B896400EAF6E12008B
:103A8000D9CFE6FFE1CFD9FFFD0EDBCFE9FFFE0E78
:103A9000DBCFEAFFEF500FE0FD0EDBCFE6FFFE0EBF
:103AA000DBCFE6FF0ED8E552E552FD0EDB2AFE0E17
:103AB000EBE3DB2AE9D7F36AF46AE552E7CFD9FFF3
:103AC0001200D9CFE6FFE1CFD9FFACA2FED7FD0EA1
:103AD000DBCFE9FFFE0EDBCFEAFFEF50AD6EE55224
:103AE000E7CFD9FF1200D9CFE6FFE1CFD9FFE652E9
:103AF000AE50DF6E930E0201F725E96E030EF8213A
:103B0000EA6EDFCFEFFF930EF725E96E030EF82183
:103B1000EA6EEF500D080BE1010EF36FF46B930E9C
:103B2000F725E96E030EF821EA6EEF6A13D0930EC3
:103B3000F725E96E030EF821EA6EEF500301F9193B
:103B4000F96F0201F72B000EF823100EF71904E1AC
:103B5000F85102E1F76BF86BE552E552E7CFD9FF78
:103B60001200D9CFE6FFE1CFD9FF020EE126DE6ACF
:103B7000DD6ADECF00F0DDCF01F0D890015004E621
:103B8000110E005C000E01580FE2DECFE9FFDDCF21
:103B9000EAFF930EE926030EEA22300EEF6EDF2ACB
:103BA000010EE7E3DB2AE5D7020EE15C02E2E16AFF
:0C3BB000E552E16EE552E7CFD9FF1200AC
:043BBC0096D8E1CFE7
:103BC000D9FFE2CFDAFF0C0EE12402E3E168E6520E
:103BD000E16ED950FA0FE96EFF0EDA20EA6E080E98
:103BE000EECFDBFF090EEECFDBFF0A0EEECFDBFFE1
:103BF0000B0EEECFDBFF79D8D950080FE96E000E1F
:103C0000DA20EA6EEECFE6FFEECFE6FFEECFE6FF7C
:103C1000EFCFE6FF0CEC1FF0006E060EE15C02E257
:103C2000E16AE552E16E0050E76E070EE7CFDBFF79
:103C3000DB50840B3AE1070EDB041AE1060EDB5081
:103C400006E0006A016A026A800E036E04D0006A10
:103C5000016A026A036A080E00C0DBFF090E01C098
:103C6000DBFF0A0E02C0DBFF0B0E03C0DBFF1DD023
:103C7000F80EDBCF00F0F90EDBCF01F0D950040FC6
:103C8000E96E000EDA20EA6E0050EE260150ED22B9
:103C9000D950080FE66E000EDA20E66E26D89AECB0
:103CA0001FF0E552E552E552E552080EDBCF00F079
:103CB000090EDBCF01F00A0EDBCF02F00B0EDBCFDB
:103CC00003F000C026F001C027F002C028F003C0B6
:103CD00029F00C0EE15C02E2E16AE552E16EE55288
:103CE000E5CFDAFFE7CFD9FF1200D9CFE6FFDACF71
:043CF000E6FF1200D9
:0C3CF400D9CFE6FFDACFE6FFE1CFD9FF21
:103D0000E2CFDAFF0C0EE12402E3E168E652E16E55
:103D1000D950FA0FE96EFF0EDA20EA6E010EEECFEF
:103D2000DBFF020EEECFDBFF030EEECFDBFF040E58
:103D3000EECFDBFF63D8D950010FE96E000EDA2019
:103D4000EA6EEECFE6FFEECFE6FFEECFE6FFEFCF77
:103D5000E6FF0CEC1FF0006E060EE15C02E2E16A89
:103D6000E552E16E0050DF6E850EDF1404E04DD8A1
:103D7000EE6AED6A23D0090EDBCF00F00A0EDBCF2E
:103D800001F0820E0026FF0E01223FD800C0EEFF98
:103D900001C0EDFF7E0EF36E090EF3CFDBFF0A0EBE
:103DA000DB6AD950010FE66E000EDA20E66E26D8E7
:103DB0009AEC1FF0E552E552E552E552010EDBCFD9
:103DC00000F0020EDBCF01F0030EDBCF02F0040E99
:103DD000DBCF03F000C026F001C027F002C028F0BE
:103DE00003C029F00C0EE15C02E2E16AE552E16EEB
:103DF000E552E5CFDAFFE7CFD9FF1200D950050F22
:103E0000E66E000EDA20E66E1200F80EDBCFE9FF58
:083E1000F90EDBCFEAFF1200FE
:083E1800D9CFE6FFDACFE6FF87
:103E2000E1CFD9FFE2CFDAFFE652006801687F0EEA
:103E3000026E036AD950FA0FE96EFF0EDA20EA6EBD
:103E4000EE500016EE500116EE500216EE5003161C
:103E50006AD800C0EEFF01C0EEFF02C0EEFF03C053
:103E6000EEFFFD0EDB50800B02E0010E01D0000ED4
:103E7000E66E59D8060EE926000EEA22E552E75012
:103E8000EF6EFC0EDBCF00F0FD0EDBCF01F0D89023
:103E900000360136FC0E00C0DBFFFD0E01C0DBFF6B
:103EA000DB50E66E40D8040EE926000EEA22E55209
:103EB000E750EE6EED6AFD0EDB50006E016AFF0EFC
:103EC000001818E1015016E12ED8EECF00F0EECF29
:103ED00001F0EECF02F0EFCF03F00050011002101E
:103EE000031006E0210E0201FB6FFC6B800E0BD06D
:103EF000040E09D0FD0EDB5008E115D8EE6AEE6A1B
:103F0000EE6AEE6A010EDF6E06D0020EDF6E0BD88F
:103F1000EE52EE52EE8EDF50E552E552E5CFDAFF7B
:103F2000E7CFD9FF1200F80EDBCFE9FFF90EDBCFA8
:043F3000EAFF120092
:0C3F3400D9CFE6FFDACFE6FFE1CFD9FFDE
:103F4000E2CFDAFF5BD8013411E20050FE08000E28
:103F500001540CE276D805E06CD8800EEE6EEE6867
:103F600047D067D8800EEE6E7F0E0ED047D8D8901F
:103F7000015004E6010E005C000E01580BE261D80E
:103F800005E057D8EE6A800EEE6E32D052D8EE6A57
:103F9000EE6A2ED047D8EECF00F0EECF01F0EECF94
:103FA00002F0EFCF03F032D800C0EEFF01C0EEFF09
:103FB00002C0EEFF03C0EEFF21D80050010B05E068
:103FC00025D8020E3AD8EF8E04D020D8020E35D86C
:103FD000EF9E14D8D8900132003218D8030E2DD895
:103FE00000C0EFFF1AD804E011D8030E26D8EF8ED8
:103FF000E552E5CFDAFFE7CFD9FF120013D8040E60
:104000001CD8EECF00F0EFCF01F01200FA0EDBCF9C
:10401000E9FFFB0EDBCFEAFF120004D8060E0DD835
:10402000EF501200FC0EDBCFE9FFFD0EDBCFEAFF05
:104030001200ECDFEE6AEE6A1200E926000EEA22B8
:0E4040001200220E0201FB6FFC6B0DEF20F050
:02404E00D9CFC8
:10405000E6FFDACFE6FFE1CFD9FFE2CFDAFF060EC7
:10406000E12402E3E168E652E16ED950050FE66E05
:10407000000EDA20E66E000EE66EE66AD950FA0F00
:10408000E96EFF0EDA20EA6EEECFE6FFEECFE6FF36
:10409000EECFE6FFEFCFE6FFE1EC1AF0006E080E80
:1040A000E15C02E2E16AE552E16E0050010E26C0D9
:1040B000DBFF020E27C0DBFF030E28C0DBFF040E70
:1040C00029C0DBFF050EDB502AE0040EDB50800B1D
:1040D00026E0006A016A800E026E3F0E036ED95020
:1040E000010FE96E000EDA20EA6EEECF27F0EECF78
:1040F00028F0EECF29F0EFCF2AF000C02CF001C05D
:104100002DF002C02EF003C02FF010EC0DF02AC0ED
:10411000EDFF29C0EDFF28C0EDFF27C0EFFF010E26
:10412000DBCF00F0020EDBCF01F0030EDBCF02F09D
:10413000040EDBCF03F000C026F001C027F002C060
:1041400028F003C029F0060EE15C02E2E16AE552C4
:0E415000E16EE552E5CFDAFFE7CFD9FF1200AE
:02415E00D9CFB7
:10416000E6FFDACFE6FFE1CFD9FFE2CFDAFF060EB6
:10417000E12402E3E168E652E16ED950050FE66EF4
:10418000000EDA20E66E000EE66EE66AD950FA0FEF
:10419000E96EFF0EDA20EA6EEECFE6FFEECFE6FF25
:1041A000EECFE6FFEFCFE6FFE1EC1AF0006E080E6F
:1041B000E15C02E2E16AE552E16E0050010E26C0C8
:1041C000DBFF020E27C0DBFF030E28C0DBFF040E5F
:1041D00029C0DBFF050EDB502AE0040EDB50800B0C
:1041E00026E1006A016A800E026E3F0E036ED9500E
:1041F000010FE96E000EDA20EA6EEECF27F0EECF67
:1042000028F0EECF29F0EFCF2AF000C02CF001C04B
:104210002DF002C02EF003C02FF011EC0DF02AC0DB
:10422000EDFF29C0EDFF28C0EDFF27C0EFFF010E15
:10423000DBCF00F0020EDBCF01F0030EDBCF02F08C
:10424000040EDBCF03F000C026F001C027F002C04F
:1042500028F003C029F0060EE15C02E2E16AE552B3
:0E426000E16EE552E5CFDAFFE7CFD9FF12009D
:02426E00220E1E
:10427000F66E040EF76E000EF86E02010900F5509E
:10428000EE6F0900F550EF6F03E1EE6701D03DD00E
:104290000900F550E96F0900F550EA6F0900F55083
:1042A000EB6F09000900F550E96E0900F550EA6E60
:1042B000090009000900F550EC6F0900F550ED6F99
:1042C00009000900F6CFF0F2F7CFF1F2F8CFF2F2E1
:1042D000E9C2F6FFEAC2F7FFEBC2F8FF0201EC53B6
:1042E00002E1ED5307E00900F550EE6EEC07F8E24D
:1042F000ED07F9D7F0C2F6FFF1C2F7FFF2C2F8FFFF
:0C4300000201EE07000EEF5BBFD71200B9
:04430C00D9CFE6FF20
:10431000E1CFD9FF0F0EE126D9CFE9FFDACFEAFFCF
:10432000530EEE6E450EEE6E540EEE6E5F0EEE6E9A
:104330004D0EEE6E4F0EEE6E440EEE6E450EEE6EB0
:104340005F0EEE6E430EEE6E4F0EEE6E550EEE6E7F
:104350004E0EEE6E540EEE6EEE6AD9CFE6FFDACF59
:10436000E6FF000EE66EE66AE66EE66A6EEC17F0B1
:10437000006E060EE15E00500F0EE15C02E2E16AA3
:0C438000E552E16EE552E7CFD9FF1200D4
:04438C00D9CFE6FFA0
:10439000DACFE6FFE1CFD9FFE2CFDAFFE652E6520D
:1043A000D950FD0F006EFF0EDA2000C0DEFFDD6E7B
:1043B000DECFE9FFDDCFEAFFEF9EFA0EDBCF00F0A4
:1043C000FB0EDBCF01F0FC0EDBCF02F0FD0EDBCFEE
:1043D00003F000C026F001C027F002C028F003C09F
:1043E00029F0E552E552E552E5CFDAFFE7CFD9FFF4
:0243F0001200B9
:0E43F200D9CFE6FFDACFE6FFFA0EE3CFD9FF10
:10440000FB0EE3CFDAFFFC0EE3CFE9FFFD0EE3CFB7
:10441000EAFFDE50EF5C02E1EE66FBD7F36EFF0EC3
:10442000E3CFDAFFE552FF0EE3CFD9FFE552F350B9
:104430001200FE0EE3CFE9FFFF0EE3CFEAFFF36ABF
:0E444000F46AEE5203E0F34AF42AFBD71200AE
:02444E00256ADD
:10445000246A236A226A200EE76ED8902636273611
:104460002836293622362336243625362B50225C30
:104470002C5023582D5024582E50255809E32B50EA
:10448000225E2C50235A2D50245A2E50255A262A6B
:06449000E72EE4D7120044
:0A449600256A246A100EE76ED89024
:1044A00028362936243625362D50245C2E502558A2
:1044B00005E32D50245E2E50255A282AE72EF0D7EA
:0244C0001200E8
:0E44C200000EF36E00EE00F0060E01D81200A0
:1044D000EA6002D0EE6AFCD7F350E9601200EE6A9F
:0244E000FCD707
:0E44E20015EE00F025EE00F0F86A219C37EC94
:0E44F00021F007EC00F00FEC00F0FBD71200FB
:0244FE000100BB
:104500000000000000000D0A0057656C636F6D65C8
:1045100020746F20636F756E74206D6F64652E0A52
:104520000D00274241434B2720746F206578697442
:104530000A0D27534554434F554E542720746F207E
:104540006368616E676520636F756E740A0D27532B
:10455000484F57434F554E542720746F20636F7553
:104560006E742E00456E74657220636F756E7420D4
:104570006E756D6265723A00436F756E743A0049EC
:104580006E76616C696420696E7075740A0D000046
:01459000002A
:0F4591007965730A0D006E6F0A0D0000000000BF
:1045A000000000000000000000000000000000000B
:1045B00000000000000000000000000000000000FB
:0C45C000000000000000000000000000EF
:0445CC00596F75208E
:1045D00061726520696E207765696768206D6F6418
:1045E0006500546172696E67207363616C65730066
:1045F00063616C6962726174696E67207363616C78
:1046000065733A0054686520666F6C6C6F77696EED
:104610006720636F6D6D616E6473206172652076D3
:10462000616C69643A0A0D0048454C502C20555382
:1046300045522C2057454947482C20544152452C7F
:1046400020434F554E542C205345545F4752414D03
:1046500053200A0D005345545F4F554E4345532C8C
:1046600020464143544F52592C20574549474854FE
:104670005F52454144494E47532C205354415449BD
:1046800053544943530A0D005345545F53414D5011
:104690004C45532C2043414C494252415445003132
:1046A00000320033003400350036003700646566A0
:1046B00061756C74000D0A000D006772616D730006
:0A46C0006F7A002020202020200047
:0646CA0057656C636F6D83
:1046D0006520746F20666163746F7279206D6F64FA
:1046E000652E0A0D2074797065202748454C5027A7
:1046F0000A0D000A0D006D73673A200048454C50C2
:10470000000000000000000000000055534552006A
:104710000000000000000000000057454947480025
:10472000000000000000000000544152450000005D
:104730000000000000000000434F554E54000000F0
:10474000000000000000005345545F4752414D53A4
:104750000000000000005345545F4F554E43455341
:104760000000000000464143544F525900303030A1
:10477000303030305745494748545F5245414449ED
:104780004E47535354415449535449435300000036
:1047900000005345545F53414D504C4553000000B9
:1047A0000043414C49425241544500000000000082
:0347B0000D0A00EF
:020000040030CA
:0100010002FC
:0100020018E5
:010003001EDE
:010005008179
:010006008475
:010008000FE8
:01000900C036
:01000A000FE6
:01000B00E014
:01000C000FE4
:01000D0040B2
:00000001FF
