:020000040000FA
:060000003FEF05F01200C5
:020006001200E6
:06000800C3EF00F012003E
:08001800ECEF00F01200D9CF5B
:10002000E6FFE1CFD9FF6C0EE126DE6ADD6AD9502A
:10003000020F28DA530EEE6E650EEE6E6E0EEE6E49
:10004000640EEE6E200EEE6E490EEE6E6E0EEE6ECD
:10005000700EEE6E750EEE6E740EEE6E3A0E16DAD1
:100060000E0F10DA0D0EEE6E0A0E10DA110FCBD94C
:10007000520E02DA1B0FC7D9500EFED9250F02DA35
:10008000530EEE6E740EEE6E610EEE6E720EEE6E2E
:10009000740EFCD92B0FF6D9440EEE6E450EEE6EA3
:1000A000420EEE6E550EEE6E470EEE6E0A0EEE6EC0
:1000B0000D0EECD9330F6BD9EE6AD950350FE2D95A
:1000C000300EE4D9370FDED9300EE4D93A0F5FD9BC
:1000D000BED93D0FD7D9320EDDD9400FD3D9330E5B
:1000E000D9D9430FCFD9340ED5D9460FCBD9350E38
:1000F000D1D9490FC7D9360ECDD94C0FC3D9370E38
:10010000C9D94F0FBFD9380EC5D9520FBBD9390E37
:10011000C1D9550F3CD9300EB9D9580F38D9B6D9F5
:100120005B0F35D9320EB2D95E0F31D9330EAED94D
:10013000610F2DD9340EAAD9640F29D9350EA6D94D
:10014000670F25D9360EEE6EEE6A6A0EDB6A6B0E0D
:10015000DB6A08EC04F08AD8CEEC02F000EC04F084
:1001600084EC02F0D950020FE66E000EDA207CD942
:10017000146E060EE15E1450D950250F6CD9D9507B
:100180000E0F69D9FFD717D900EE00F0140EE8045E
:1001900003E3EECFE4FFFBD700EE14F0040EE80417
:1001A00003E3EECFE4FFFBD7E6529EAA02D042EC77
:1001B00004F0E55200EE17F0040EE80403E3E5CF87
:1001C000EDFFFBD700EE13F0140EE80403E3E5CFD8
:1001D000EDFFFBD705D91100D8CFE4FFE0CFE4FF56
:1001E000E46EE9D800EE00F0140EE80403E3EECF6D
:1001F000E4FFFBD700EE14F0040EE80403E3EECFB7
:10020000E4FFFBD7E6529EAC19D0C4500101806FC9
:10021000816BC282E66E81C1E6FF670EE66E010E5B
:10022000E66E3DD8E552E552E552E552670EE66EC0
:10023000010E1AD9186E060EE15E1850E55200EE56
:1002400017F0040EE80403E3E5CFEDFFFBD700EE63
:1002500013F0140EE80403E3E5CFEDFFFBD7C0D89D
:10026000E550E5CFE0FFE5CFD8FF1000C284C2968D
:10027000C298C29AC180C182C184C196C198C19AF4
:10028000C080C082C084C096C098C08AC09EC28010
:1002900000000000000000000000C2821200D9CF60
:1002A000E6FFE1CFD9FF060EE126DE6ADD6AC8D897
:1002B000040EDB6A050EDB6A020EDBCF14F0030EC0
:1002C000DBCF15F015340BE214500008000E155466
:1002D00006E2DF2A010E01E3DB2A5DD8EDD7B0D8B4
:1002E000D9CFE9FFDACFEAFF040EEECFDBFF050E30
:1002F000EDCFDBFFDECF14F0DDCF15F0153433E2A8
:1003000014500008000E15542EE2020EDBCF16F03A
:10031000030EDBCF17F00A0E0D6E0E6A16C008F042
:1003200017C009F077EC04F004C016F005C017F010
:10033000300E1626000E1722FD0EDBCF14F0FE0E37
:10034000DBCF15F0DE501424E96EDD501520EA6E87
:10035000E906000EEA5A16C0EFFFDF06010E01E2C1
:10036000DB0619D8C7D75DD82C0EEF6E040EDB2A3A
:10037000050E01E3DB2A55D8EF6A060EE15C02E2C6
:10038000E16AE552E16EE552E7CFD9FF12007AD873
:10039000310EEE6E12000A0E146E156A020EDBCFDD
:1003A00008F0030EDBCF09F014C00DF015C00EF0FD
:1003B00077EC04F072D0DACFE4FFE2CFDAFFE9CFD6
:1003C000E4FFEACFE4FFF6CFE4FFF7CFE4FFF5CF99
:1003D000E4FFF3CFE4FFF4CFE4FFFACFE4FF120031
:1003E000E5CFFAFFE5CFF4FFE5CFF3FFE5CFF5FF6B
:1003F000E5CFF7FFE5CFF6FFE5CFEAFFE5CFE9FF71
:10040000E5CFDAFF12003ED8450EEE6E6E0EEE6EB0
:10041000740EEE6E650EEE6E720EEE6E200EEE6EC9
:100420001200040EDBCF14F0050EDBCF15F0FD0E2D
:10043000DB501424E96EFE0EDB501520EA6E12002C
:10044000FB0EDBCF08F0FC0EDBCF09F026D0EE6A06
:10045000EE6AD9501200E66E000EDA20E66E1BEC52
:1004600004F0E552E5521200E66E000EE66EE66A12
:10047000E66EE66A5BEF02F0EE6E3A0EEE6E200E6E
:1004800046EF02F0E96EDACFEAFF1200EE6EEE6A96
:10049000D9501200EE6E27EF02F0020E08C0DBFF0B
:0804A000030E09C0DBFF12008E
:0804A80001009A0A000088011E
:0604B00000001300000033
:0A04B6009FD9020EE126DE6ADD6A1E
:1004C00023D8FB0EDBCFE6FFFC0EDBCFE6FFFD0EF5
:1004D000DBCFE6FFFE0EDBCFE6FF30D8E552E5527C
:1004E000E552E55265D90AE063D9E66E17D8E552C0
:1004F00009D9DF2A010EF6E3DB2AF4D7020EE15C0C
:1005000002E2E16AE5526BD1C00EE66EEBD8E5522D
:10051000C10EE66EE7D8E55282EF03F057D9FE0E22
:10052000DB380F0B0F0BD009DF6EFE0EDB500F0B0D
:10053000D0092ED902E2E16AE55251D147D954D906
:10054000EE50ED1007E1FB0EDB50E76E020EE7CF39
:10055000DBFF15D049D9010EEE1811E1ED500FE186
:10056000400EE76EFB0EDBCF14F0FC0EDBCF15F078
:10057000E7501426000E1522020E14C0DBFF020EF7
:10058000DB380F0B0F0BC809DF6E020EDB500F0BB1
:10059000C009FED802E2E16AE55221D1D9CFE6FFD7
:1005A000E1CFD9FF020EE126DE6ADD6A959E959CB9
:1005B000959A959895909592959495968C9E8C8EFB
:1005C0008C988C9A8C9C8C8CDE6ADD6ADECF14F061
:1005D000DDCF15F0D890155004E6100E145C270EF0
:1005E000155806E20000DF2A010E01E3DB2AEED7F0
:1005F000C20EE66E77D8E55285D8C20EE66E72D886
:10060000E55280D8C80EE66E6DD8E5527BD8C00E94
:10061000E66E68D8E55276D8CC0EE66E63D8E55221
:1006200071D8C00EE66E5ED8E5526CD8C10EE66E8B
:1006300059D8E55267D8C00EE66E54D8E55262D854
:10064000C60EE66E4FD8E5525DD88C8E00000000D5
:1006500000000000020EE15C02E2E16AE552E16E98
:10066000E552E7CFD9FF1200D9CFE6FFE1CFD9FF9E
:10067000020EE126DE6ADD6A020E086E096AFD0ED0
:10068000DBCF0DF0FE0EDBCF0EF09DEC04F0FD0E87
:1006900006C0DBFFFE0E07C0DBFFDECF14F0DDCFB0
:1006A00015F0FD0EDBCF16F0FE0EDBCF17F0155068
:1006B0001718E8AE02D0173404D01650145C175047
:1006C000155806E20000DF2A010E01E3DB2AE5D718
:1006D000020EE15C02E2E16AE552E16EE552E7CF2B
:1006E000D9FF1200D9CFE6FFE1CFD9FFFE0EDB50D4
:1006F0008C6E000000008C9C00000000E552E7CFEB
:10070000D9FF120078D8E6528C988C8A958608D842
:10071000DF6EDFBEFCD7E552E552E7CFD9FF12000E
:10072000D9CFE6FFE1CFD9FF020EE1269586958469
:10073000958295808C8C000000008350DF6E8C9C2D
:10074000DF50100D010EF3CFDBFF8C8C000000009A
:100750008350DF6E8C9C0D0EDF14DF6E010EDB50BC
:10076000DF10E76E010EE7CFDBFF9596959495922B
:100770009590010EDB5000D0146E020EE15C02E297
:10078000E16AE552E16E1450E552E7CFD9FF12005D
:10079000E76E010EE7CFDBFFDFCFE6FFA3DFE55219
:1007A000010EDBCFE6FF9EDFE552030EE15C120097
:1007B000F90EDBCF14F0FA0EDBCF15F0DE50142467
:1007C000E96EDD501520EA6EEF50120014D8030ECA
:1007D000E126DF6A010EDB6A020EDB6A1200E16EBF
:1007E000E552E7CFD9FF1200D950FD0FE96EFF0E99
:1007F000DA20EA6E1200D9CFE6FFE1CFD9FF12006E
:10080000D08E9D8A9D8C9F9C9F8AF28EF28C1200C6
:100810008B8E8B8CAB8EAC8EAC9CAC8AAC98AC8443
:10082000AB8EAB9CAB9AAB88AB96AB94AB92B896C5
:10083000400EAF6E1200D9CFE6FFE1CFD9FF4FD8FF
:100840000FE0FD0EDBCFE6FFFE0EDBCFE6FF0ED89E
:10085000E552E552FD0EDB2AFE0EF1E3DB2AEFD76F
:10086000F36AF46AE552E7CFD9FF1200D9CFE6FF69
:10087000E1CFD9FFACA2FED732D8AD6EE552E7CFBB
:10088000D9FF1200000E010124D8AECFEFFF000EF9
:1008900020D8EF500D080BE1010E0101886F896B24
:1008A000000E010116D8EF6A8C6B8D6B1200000EE2
:1008B00010D8EF5001016619666F01018C2B000EF4
:1008C0008D23100E8C1904E18D5102E18C6B8D6B20
:1008D00012008C25E96E010E8D21EA6E1200FD0ECC
:0E08E000DBCFE9FFFE0EDBCFEAFFEF50120088
:0208EE00006A9E
:1008F0000EAE80EF04F00D6C0E1EE86A0E22001E94
:1009000009AE88EF04F0086C091EE86A0922001E8F
:1009100019EC05F009BE98EF04F000AE000C086C6D
:10092000091EE86A0922046C051EE86A0522000C0B
:1009300000BE8FEF04F00188FF0C09C013F008C05F
:1009400012F008500D02F4CF07F0F3CF06F0095073
:100950000E02F4CF09F0F3CF08F00D02F350072692
:10096000F4500822E86A092212500E02F3500726BA
:10097000F4500822E86A09220EAEC3EF04F01250C8
:10098000085E1350095A13AE000C0D50085E0E504D
:04099000095A000CF4
:0C099400A80EF66E040EF76E000EF86E52
:1009A00001010900F550A06F0900F550A16F03E1A6
:1009B000A06701D03DD00900F5509B6F0900F550AC
:1009C0009C6F0900F5509D6F09000900F550E96E14
:1009D0000900F550EA6E090009000900F5509E6F04
:1009E0000900F5509F6F09000900F6CFA2F1F7CF7B
:1009F000A3F1F8CFA4F19BC1F6FF9CC1F7FF9DC105
:100A0000F8FF01019E5302E19F5307E00900F550F2
:100A1000EE6E9E07F8E29F07F9D7A2C1F6FFA3C1C9
:100A2000F7FFA4C1F8FF0101A007000EA15BBFD72B
:020A30001200B2
:0E0A3200056A046A100EE76ED8900836093681
:100A4000043605360D50045C0E50055805E30D5074
:0E0A5000045E0E50055A082AE72EF0D7120059
:020A5E00000E88
:100A6000F36E00EE00F0060E01D81200EA6002D02C
:0E0A7000EE6AFCD7F350E9601200EE6AFCD784
:020A7E0015EE73
:100A800000F025EE00F0F86A019CCAEC04F003ECDB
:0A0A900000F00FEC00F0FBD712009D
:060A9A0000000100000055
:0D0AA00000007965730A0D006E6F0A0D00ED
:020000040030CA
:0100010002FC
:0100020018E5
:010003001EDE
:010005008179
:010006008475
:010008000FE8
:01000900C036
:01000A000FE6
:01000B00E014
:01000C000FE4
:01000D0040B2
:00000001FF
