:020000040000FA
:06000000ADEF06F0120056
:020006001200E6
:06000800B1EF00F0120050
:02000E001200DE
:08001800DBEF00F01200D9CF6C
:10002000E6FFE1CFD9FF6C0EE126DE6ADD6AD9502A
:10003000020F2DDA530EEE6E650EEE6E6E0EEE6E44
:10004000640EEE6E200EEE6E490EEE6E6E0EEE6ECD
:10005000700EEE6E750EEE6E740EEE6E3A0E1BDACC
:100060000E0F15DA0D0EEE6E0A0E15DA110FE1D92C
:10007000520E07DA1B0FDDD9500E03DA250F07DA0F
:10008000530EEE6E740EEE6E610EEE6E720EEE6E2E
:10009000740E01DA2B0FFBD9440EEE6E450EEE6E98
:1000A000420EEE6E550EEE6E470EEE6E0A0EEE6EC0
:1000B0000D0EF1D9330F81D9EE6AD950350FE7D93A
:1000C000300EE9D9370FE3D9300EE9D93A0F75D997
:1000D000D4D93D0FDCD9320EE2D9400FD8D9330E36
:1000E000DED9430FD4D9340EDAD9460FD0D9350E24
:1000F000D6D9490FCCD9360ED2D94C0FC8D9370E24
:10010000CED94F0FC4D9380ECAD9520FC0D9390E23
:10011000C6D9550F52D9300EBED9580F4ED9BBD9BA
:100120005B0F4BD9320EB7D95E0F47D9330EB3D917
:10013000610F43D9340EAFD9640F3FD9350EABD917
:10014000670F3BD9360EEE6EEE6A6A0EDB6A6B0EF7
:10015000DB6A19EC04F0A0D8DFEC02F011EC04F03B
:10016000FFD73FD900EE00F0140EE80403E3EECF12
:10017000E4FFFBD700EE14F0040EE80403E3EECF37
:10018000E4FFFBD7E6529EAA03D047EC04F09E9A08
:10019000E55200EE17F0040EE80403E3E5CFEDFFAF
:1001A000FBD700EE13F0140EE80403E3E5CFEDFFF8
:1001B000FBD72CD91100D8CFE4FFE0CFE4FFE46EE9
:1001C00010D900EE00F0140EE80403E3EECFE4FFD4
:1001D000FBD700EE14F0040EE80403E3EECFE4FFD7
:1001E000FBD7E6529EAC40D0C4500301806F816BB8
:1001F000D89080378137D89080378137060EC3CFAB
:10020000E7FF070B04E0E742E79EE806FCE1E75062
:1002100002E1000E01D0010E186E196A18BE1968AD
:10022000030180511810806F81511910816F80C3B4
:10023000E6FFE66E670EE66E030EE66E46D8E55202
:10024000E552E552E552670EE66E030EE66E000ECD
:10025000E66EE66AE66EE66A6CEC02F0186E060E72
:10026000E15E18509E9CC282E55200EE17F0040E2B
:10027000E80403E3E5CFEDFFFBD700EE13F0140E27
:10028000E80403E3E5CFEDFFFBD7C0D8E550E5CFA9
:10029000E0FFE5CFD8FF1000C284C296C298C29A90
:1002A000C180C182C184C196C188C18AC080C08218
:1002B000C084C096C098C08AC09EC2800000000062
:1002C000000000000000C2821200D9CFE6FFE1CF9B
:1002D000D9FF060EE126DE6ADD6AC8D8040EDB6AA5
:1002E000050EDB6A020EDBCF14F0030EDBCF15F038
:1002F00015340BE214500008000E155406E2DF2AF4
:10030000010E01E3DB2A5DD8EDD7B0D8D9CFE9FFE4
:10031000DACFEAFF040EEECFDBFF050EEDCFDBFFF9
:10032000DECF14F0DDCF15F0153433E214500008A1
:10033000000E15542EE2020EDBCF16F0030EDBCFBB
:1003400017F00A0E0D6E0E6A16C008F017C009F0FD
:1003500085EC05F004C016F005C017F0300E162627
:10036000000E1722FD0EDBCF14F0FE0EDBCF15F0D2
:10037000DE501424E96EDD501520EA6EE906000E09
:10038000EA5A16C0EFFFDF06010E01E2DB0619D8BC
:10039000C7D75DD82C0EEF6E040EDB2A050E01E3E5
:1003A000DB2A55D8EF6A060EE15C02E2E16AE5520B
:1003B000E16EE552E7CFD9FF120069D8310EEE6E3B
:1003C00012000A0E146E156A020EDBCF08F0030E3F
:1003D000DBCF09F014C00DF015C00EF085EC05F070
:1003E00061D0DACFE4FFE2CFDAFFE9CFE4FFEACF72
:1003F000E4FFF6CFE4FFF7CFE4FFF5CFE4FFF3CF60
:10040000E4FFF4CFE4FFFACFE4FF1200E5CFFAFFF8
:10041000E5CFF4FFE5CFF3FFE5CFF5FFE5CFF7FF3D
:10042000E5CFF6FFE5CFEAFFE5CFE9FFE5CFDAFF5D
:1004300012002DD8450EEE6E6E0EEE6E740EEE6E40
:10044000650EEE6E720EEE6E200EEE6E1200040E53
:10045000DBCF14F0050EDBCF15F0FD0EDB501424BE
:10046000E96EFE0EDB501520EA6E1200FB0EDBCFAC
:1004700008F0FC0EDBCF09F015D0EE6AEE6AD95019
:100480001200EE6E3A0EEE6E200E4BEF02F0E96EA9
:10049000DACFEAFF1200EE6EEE6AD9501200EE6E6D
:1004A0003DEF02F0020E08C0DBFF030E09C0DBFFC8
:0204B000120038
:0E04B2000300830E000000020000E9000000BD
:1004C000890D000000010000FA000000760D000018
:0804D000E90200001300000026
:0804D8009FD9020EE126DE6A45
:1004E000DD6A23D8FB0EDBCFE6FFFC0EDBCFE6FF99
:1004F000FD0EDBCFE6FFFE0EDBCFE6FF30D8E55288
:10050000E552E552E55265D90AE063D9E66E17D89F
:10051000E55209D9DF2A010EF6E3DB2AF4D7020EF1
:10052000E15C02E2E16AE5526BD1C00EE66EEBD807
:10053000E552C10EE66EE7D8E55293EF03F057D9C6
:10054000FE0EDB380F0B0F0BD009DF6EFE0EDB50FB
:100550000F0BD0092ED902E2E16AE55251D147D9F9
:1005600054D9EE50ED1007E1FB0EDB50E76E020EA2
:10057000E7CFDBFF15D049D9010EEE1811E1ED50A0
:100580000FE1400EE76EFB0EDBCF14F0FC0EDBCF6D
:1005900015F0E7501426000E1522020E14C0DBFFE2
:1005A000020EDB380F0B0F0BC809DF6E020EDB509B
:1005B0000F0BC009FED802E2E16AE55221D1D9CF82
:1005C000E6FFE1CFD9FF020EE126DE6ADD6A959EE5
:1005D000959C959A959895909592959495968C9EC4
:1005E0008C8E8C988C9A8C9C8C8CDE6ADD6ADECF2B
:1005F00014F0DDCF15F0D890155004E6100E145C01
:10060000270E155806E20000DF2A010E01E3DB2A5F
:10061000EED7C20EE66E77D8E55285D8C20EE66EEA
:1006200072D8E55280D8C80EE66E6DD8E5527BD8F8
:10063000C00EE66E68D8E55276D8CC0EE66E63D86A
:10064000E55271D8C00EE66E5ED8E5526CD8C10E88
:10065000E66E59D8E55267D8C00EE66E54D8E5521A
:1006600062D8C60EE66E4FD8E5525DD88C8E00007B
:10067000000000000000020EE15C02E2E16AE552C7
:10068000E16EE552E7CFD9FF1200D9CFE6FFE1CF07
:10069000D9FF020EE126DE6ADD6A020E086E096AE3
:1006A000FD0EDBCF0DF0FE0EDBCF0EF0ABEC05F058
:1006B000FD0E06C0DBFFFE0E07C0DBFFDECF14F031
:1006C000DDCF15F0FD0EDBCF16F0FE0EDBCF17F001
:1006D00015501718E8AE02D0173404D01650145C29
:1006E0001750155806E20000DF2A010E01E3DB2A4D
:1006F000E5D7020EE15C02E2E16AE552E16EE55205
:10070000E7CFD9FF1200D9CFE6FFE1CFD9FFFE0E28
:10071000DB508C6E000000008C9C00000000E55255
:10072000E7CFD9FF120078D8E6528C988C8A95864C
:1007300008D8DF6EDFBEFCD7E552E552E7CFD9FF20
:100740001200D9CFE6FFE1CFD9FF020EE126958650
:100750009584958295808C8C000000008350DF6E1C
:100760008C9CDF50100D010EF3CFDBFF8C8C000052
:1007700000008350DF6E8C9C0D0EDF14DF6E010EC7
:10078000DB50DF10E76E010EE7CFDBFF9596959407
:1007900095929590010EDB5000D0146E020EE15C34
:1007A00002E2E16AE552E16E1450E552E7CFD9FF6B
:1007B0001200E76E010EE7CFDBFFDFCFE6FFA3DF1E
:1007C000E552010EDBCFE6FF9EDFE552030EE15C52
:1007D0001200F90EDBCF14F0FA0EDBCF15F0DE506D
:1007E0001424E96EDD501520EA6EEF50120014D883
:1007F000030EE126DF6A010EDB6A020EDB6A1200DD
:10080000E16EE552E7CFD9FF1200D950FD0FE96E36
:10081000FF0EDA20EA6E1200D9CFE6FFE1CFD9FF52
:020820001200C4
:0E082200D08E9D8A9D8C9F9C9F8AF28EF28CB8
:1008300012008B8E8B8CAB8EAC8EAC9CAC8AAC9841
:10084000AC84AB8EAB9CAB9AAB88AB96AB94AB92C3
:10085000B896400EAF6E12006BD862D80FE0FD0E56
:10086000DBCFE6FFFE0EDBCFE6FF0BD8E552E5520D
:10087000FD0EDB2AFE0EF1E3DB2AEFD7F36AF46A02
:100880005CD056D8ACA2FED74BD8AD6E56D050D85F
:10089000E652AE50DF6E000E02013CD8DFCFEFFF14
:1008A000000E38D8EF500D0809E1010E0201E96F82
:1008B000EA6B000E02012ED8EF6A0FD0000E2AD884
:1008C000EF5003016619666F0201ED2B000EEE2357
:1008D000100EED1904E1EE5102E1ED6BEE6BE55205
:1008E0002CD00201FC6BFD6B110EFDAF02D0D89035
:1008F00003D0FC5D000EFD590CE2000EFC25E96EF4
:10090000030EFD21EA6E300EEF6EFC2B000EFD2370
:10091000EBD71200ED25E96E030EEE21EA6E120010
:10092000FD0EDBCFE9FFFE0EDBCFEAFFEF5012003A
:10093000D9CFE6FFE1CFD9FF1200E552E7CFD9FFCB
:020940001200A3
:0E094200D9CFE6FFE1CFD9FFFD0EDBCF08F0E5
:10095000FE0EDBCF09F0010E081801E1095076E028
:10096000090E081801E1095065E0080E081801E1B8
:1009700009505CE00A0E081801E1095053E0070E27
:10098000081801E109504AE0060E081801E1095073
:1009900041E0050E081801E1095038E0040E08187E
:1009A00001E109502FE00B0E081801E1095026E083
:1009B000030E081801E109501DE0020E081801E1BC
:1009C000095014E008503AE1095038E1380EE66E5B
:1009D000010E40D85C0EE66E010E3CD8890EE66E24
:1009E000010E38D8BC0EE66E010E2BD0000EE66E5E
:1009F000010E27D0160EE66E010E23D0240EE66EF1
:100A0000010E1FD0D30EE66E010E1FD0D70EE66E7C
:100A1000010E1BD0DB0EE66E010E17D0DF0EE66E68
:100A2000010E13D0EB0EE66E010E0FD0E30EE66E54
:100A3000010E0BD0E70EE66E010E07D0EF0EE66E4C
:100A4000010E08D8F70EE66E010E04D8E552E7CF86
:100A5000D9FF1200E66E2CEC04F0E552E5521200CC
:100A6000D9CFE6FFE1CFD9FF020EE126DE6ADD6ACB
:100A7000D9CFE9FFDACFEAFFEE50ED103CE10201F9
:100A8000FC6BFD6B0C0EFDAF02D0D89003D0FC5D6B
:100A9000000EFD59EDE2FCC214F0FDC215F00F0E80
:100AA0001502F3CF15F01402F3CF14F0F45015260D
:100AB000320E1426020E152214C0E6FF15C0E6FF02
:100AC000000EE66E030EE66E67EC06F0E552E552A8
:100AD000E552E55200090AE1FCC2E6FFFDC2E6FF6D
:100AE000A1EC04F0E552E55271EC04F00201FC2B9C
:100AF000000EFD23C7D7020EE15C02E2E16AE55277
:0A0B0000E16EE552E7CFD9FF1200C5
:060B0A00006A0EAE8EEF42
:100B100005F00D6C0E1EE86A0E22001E09AE96EF5F
:100B200005F0086C091EE86A0922001E87EC06F031
:100B300009BEA6EF05F000AE000C086C091EE86ABD
:100B40000922046C051EE86A0522000C00BE9DEF18
:100B500005F00188FF0C09C013F008C012F008501E
:100B60000D02F4CF07F0F3CF06F009500E02F4CFD8
:100B700009F0F3CF08F00D02F3500726F4500822D5
:100B8000E86A092212500E02F3500726F450082298
:100B9000E86A09220EAED1EF05F01250085E13503C
:100BA000095A13AE000C0D50085E0E50095A000C85
:100BB000B20EF66E040EF76E000EF86E0301090019
:100BC000F5508D6F0900F5508E6F03E18D6701D0F0
:100BD0003DD00900F550886F0900F550896F090074
:100BE000F5508A6F09000900F550E96E0900F550CB
:100BF000EA6E090009000900F5508B6F0900F550F5
:100C00008C6F09000900F6CF8FF3F7CF90F3F8CF80
:100C100091F388C3F6FF89C3F7FF8AC3F8FF030186
:100C20008B5302E18C5307E00900F550EE6E8B0701
:100C3000F8E28C07F9D78FC3F6FF90C3F7FF91C393
:0E0C4000F8FF03018D07000E8E5BBFD7120078
:020C4E00D9CFFC
:100C5000E6FFE1CFD9FF0F0EE126D9CFE9FFDACFCA
:100C6000EAFF530EEE6E450EEE6E540EEE6E5F0E04
:100C7000EE6E4D0EEE6E4F0EEE6E440EEE6E450EA7
:100C8000EE6E5F0EEE6E430EEE6E4F0EEE6E550E76
:100C9000EE6E4E0EEE6E540EEE6EEE6AD9CFE6FF9D
:100CA000DACFE6FF000EE66EE66AE66EE66A6CEC08
:100CB00002F0146E060EE15E14500F0EE15C02E2CB
:0E0CC000E16AE552E16EE552E7CFD9FF12007E
:020CCE00D9CF7C
:100CD000E6FFDACFE6FFFA0EE3CFD9FFFB0EE3CF54
:100CE000DAFFFC0EE3CFE9FFFD0EE3CFEAFFDE50B3
:100CF000EF5C02E1EE66FBD7F36EFF0EE3CFDAFFA7
:0E0D0000E552FF0EE3CFD9FFE552F35012008B
:020D0E00056A74
:100D1000046A100EE76ED890083609360436053698
:100D20000D50045C0E50055805E30D50045E0E5046
:0A0D3000055A082AE72EF0D712003A
:060D3A00000EF36E00EE56
:100D400000F0060E01D81200EA6002D0EE6AFCD76D
:0A0D5000F350E9601200EE6AFCD7D0
:060D5A0015EE00F025EE8D
:100D600000F0F86A019CD8EC05F007EC00F00FECFD
:060D700000F0FBD71200A9
:0A0D76000000010000000000796594
:090D8000730A0D006E6F0A0D00EC
:070D8900596F7520617265CE
:100D900020696E207765696768206D6F646500540F
:100DA0006172696E67207363616C65730063616C67
:100DB0006962726174696E67207363616C65733A0E
:100DC0000054686520666F6C6C6F77696E6720638E
:100DD0006F6D6D616E6473206172652076616C6900
:100DE000643A0A0D0048454C502C20555345522C6E
:100DF0002057454947482C20544152452C20434F09
:100E0000554E542C205345545F4752414D53200AB0
:100E10000D005345545F4F554E4345532C204641DA
:100E200043544F52592C205745494748545F524527
:100E30004144494E47532C2053544154495354493B
:100E400043530A0D005345545F53414D504C455395
:100E50002C2043414C49425241544500310A0D0077
:100E6000320A0D00330A0D00340D0A00350D0A0058
:100E7000360D0A00370D0A0064656661756C7400F2
:030E80000D0A0058
:0D0E830057656C636F6D6520746F206661AC
:100E900063746F7279206D6F64652E0A0D2074790A
:100EA0007065202748454C50270A0D000A0D006D3B
:100EB00073673A200048454C5000000000000000D5
:100EC00000000000555345520000000000000000E3
:100ED000000000574549474800000000000000009E
:100EE00000005441524500000000000000000000D6
:100EF00000434F554E540000000000000000000069
:100F00005345545F4752414D5300000000000053C9
:100F100045545F4F554E4345530000000000464185
:100F200043544F5259000808080808080857454913
:100F30004748545F52454144494E475353544154E6
:100F400049535449435300000000005345545F5334
:100F5000414D504C45530000000043414C49425222
:0C0F60004154450000000000000D0A0094
:020000040030CA
:0100010002FC
:0100020018E5
:010003001EDE
:010005008179
:010006008475
:010008000FE8
:01000900C036
:01000A000FE6
:01000B00E014
:01000C000FE4
:01000D0040B2
:00000001FF
