:020000040000FA
:06000000DDEF01F012002B
:020006000000F8
:08000800D9CFE6FFDACFE6FFD5
:10001000E1CFD9FFE2CFDAFFF00E81169316939C61
:10002000939A93988A9C8A9A8A98B3EC00F0300E3F
:1000300035D8050EE66E90EC01F0E552300E2ED864
:10004000010EE66E90EC01F0E552320E27D82BD867
:10005000FEE129D8FEE1FD0EDBCFE6FF67EC01F003
:10006000E55221D8FEE1080E19D81DD8FEE10F0E89
:1000700015D819D8FEE1010E11D815D8FEE1040EED
:100080000DD811D8FEE1800EE66E13EC01F0E552BA
:10009000E552E5CFDAFFE7CFD9FF1200E66E67EC55
:0E00A00001F0E5521200A7EC01F00009120079
:0200AE00060E3C
:1000B000F66E000EF76E000EF86E00010900F550A6
:1000C000856F0900F550866F03E1856701D03DD04B
:1000D0000900F550806F0900F550816F0900F55057
:1000E000826F09000900F550E96E0900F550EA6ECB
:1000F000090009000900F550836F0900F550846F6D
:1001000009000900F6CF87F0F7CF88F0F8CF89F023
:1001100080C0F6FF81C0F7FF82C0F8FF0001835363
:1001200002E1845307E00900F550EE6E8307F8E220
:100130008407F9D787C0F6FF88C0F7FF89C0F8FFAA
:0C01400000018507000E865BBFD712008F
:04014C0000000000AF
:10015000000000000000000000000000000000009F
:10016000000000001200250EE66EBDEC01F0E55225
:1001700012000C0EE66EBDEC01F0E5521200280EE6
:10018000E66E04EC00F0E552A7EC01F00009FCE19A
:100190000D0EE66E67EC01F0E552A7EC01F00009E8
:1001A000FCE1630EE66E3EEC01F0E552A7EC01F0D7
:1001B0000009FCE1D60EE66E030EE66EE3EC00F0FD
:0601C000E552E552EED706
:0A01C600D9CFE6FFDACFE6FFE1CF64
:1001D000D9FFE2CFDAFF1BD814E0A7EC01F0000949
:1001E000FCE115D8E66E3EEC01F0E552D950FB0F6C
:1001F000E96EFF0EDA20EA6EEE2A000EEE22EE2203
:10020000EAD7E552E5CFDAFFE7CFD9FF1200FB0EC0
:10021000DBCFF6FFFC0EDBCFF7FFFD0EDBCFF8FFE9
:060220000800F550120079
:0A022600D9CFE6FFDACFE6FFE1CF03
:10023000D9FFE2CFDAFFF00E93168116FD0EDB50E8
:100240008009E8380F0B0F0B81128A9C8A9A0FD80D
:10025000F00E8116FD0EDB500F0B811208D80F0E29
:100260009312E552E5CFDAFFE7CFD9FF1200A6ECF3
:0C02700000F08A88A6EC00F08A981200CA
:04027C00D9CFE6FFF1
:10028000DACFE6FFE1CFD9FFE2CFDAFFF00E931627
:100290008116FD0EDB380F0B0F0B81128A8A8A9CA8
:1002A0000FD8F00E8116FD0EDB500F0B811208D80F
:1002B0000F0E9312E552E5CFDAFFE7CFD9FF120018
:0E02C000A6EC00F08A88A6EC00F08A981200E6
:0202CE00D9CF86
:1002D000E6FFDACFE6FFE1CFD9FFE2CFDAFFF00E9B
:1002E00093168116FD0EDB380F0B0F0B81128A9CC3
:1002F0008A9A0FD8F00E8116FD0EDB500F0B81127B
:1003000008D80F0E9312E552E5CFDAFFE7CFD9FFF9
:100310001200A6EC00F08A88A6EC00F08A98120081
:10032000FF0EE350036EEF0E01D0F30EE76EE72EE3
:1003300097EF01F00C0E026EE76AE72E9DEF01F0D9
:0E034000022E9CEF01F0032E95EF01F012004B
:02034E008A8C97
:100350008A9AA6EC00F08A88A6EC00F081A602D06A
:1003600003D8010C01D8000C8A98A6EC00F08A880A
:0A037000A6EC00F08A988A9C1200A7
:06037A00FF0EE350036ECC
:10038000480E01D04C0EE76EE72EFED7E76AE72E47
:0A039000FED7032EF7D7000012007D
:06039A00000EF36E00EE00
:1003A00000F0060E01D81200EA6002D0EE6AFCD717
:0A03B000F350E9601200EE6AFCD77A
:0603BA0015EE00F025EE37
:1003C00000F0F86A019C57EC00F0F4EC01F0BFEC8F
:0603D00000F0FBD7120053
:0A03D600534F4D455448494E47204F
:0803E000504C45415353450008
:0203E800120001
:020000040030CA
:0100010002FC
:0100020018E5
:010003001EDE
:010005008179
:010006008475
:010008000FE8
:01000900C036
:01000A000FE6
:01000B00E014
:01000C000FE4
:01000D0040B2
:00000001FF
