:020000040000FA
:06000000A9EF0AF0120056
:020006001200E6
:0600080010EF00F01200F1
:02000E001200DE
:02001000FEFFF1
:0800180012EF00F012001200CB
:100020000DD81100D8CFE4FFE0CFE4FFE46E06D88E
:10003000E550E5CFE0FFE5CFD8FF1000DACFE4FFD1
:0A004000E652E552E5CFDAFF1200A8
:06004A000100100000009F
:080050008A000000020000001C
:0800580068EC05F0FB0EDBCFA4
:10006000F3FFDB06F35000090AE0B6EC05F0FA0EE8
:1000700021EC06F0F3E1151CF1E1010E01D0000EB8
:1000800097EF05F068EC05F03B0EE12402E3E16830
:10009000E652E16E010EDB6A020EDB6AF90EDBCF7F
:1000A000F6FFFA0EDBCFF7FFFB0EDBCFF8FF080001
:1000B000F550DF6EDF5002E1BBEF04F0250EDF5C90
:1000C00002E0AEEF04F0030EDB6A040EDB6A050EFD
:1000D000DB6A060EDB6A070EDB6AD0EC04F02D0E3D
:1000E000DF5C0CE02B0EDF5C09E0200EDF5C06E03D
:1000F000230EDF5C03E0300EDF5C1AE1DF50300AD4
:1001000014E0130A0FE0030A0AE00B0A05E0060AEE
:10011000E4E1030EDB80E1D7030EDB82DED7030EC2
:10012000DB84DBD7030EDB86D8D7030EDB88D5D77D
:100130002A0EDF5C1BE1CCEC04F01AEC05F010E0B9
:10014000030EDB8008680968130EDBCF0DF0140E78
:10015000DBCF0EF0C6EC09F0040E06C0DBFF03D0C7
:10016000130E03EC05F0D0EC04F00BD0090EDB6AA3
:1001700071EC05F003E0E5EC05F0FAD7090E03ECAD
:1001800005F0030EDBB0DB982E0EDF5C1BE1D0EC3C
:1001900004F02A0EDF5C0BE1CCEC04F01AEC05F065
:1001A00003E1130E55EC05F0D0EC04F00BD0090E72
:1001B000DB6A71EC05F003E0E5EC05F0FAD7090E17
:1001C00055EC05F0680EDF5C07E1D0EC04F0680E3A
:1001D000DF5C1DE1030E18D0740EDF5C17E07A0EB1
:1001E000DF5C14E0480EDF5C06E0540EDF5C03E0E9
:1001F0005A0EDF5C02E1020E07D06C0EDF5C03E0FA
:100200006A0EDF5C04E1010EA8EC05F0C9DBDF50EB
:100210006E0A01E17FD31E0A01E192D1200A01E1B9
:100220008FD13F0A01E149D11A0A01E146D10D0AF5
:1002300001E143D1200A01E140D13A0A01E13DD177
:10024000200A01E13AD1260A01E135D10D0A01E186
:1002500032D11A0A01E1D9D0200A4AE0300A1FE05F
:10026000460A0EE0250A01E083D3D950F90FE96E62
:10027000FF0EDA20EA6E010EEE5E000EEE5AEE5A26
:10028000B6EC05F0250EE66E95DB03E1151C01E1E9
:1002900069D3B2EC05F001E26BD3DB2A69D3080E17
:1002A000DB6A040EDB50010806E2040EDB047AEC84
:1002B00005F0DB508BDB080EDB5009E0030EDB5052
:1002C000010B05E172DB01E04DD3080EDB6A64DB54
:1002D000EFCFDFFF2AEC06F003E1151C01E142D36A
:1002E000B2EC05F001E3DB2A60DB01E141D33AD354
:1002F000070EDB5002080FE1F6EC05F0030EBDEC33
:1003000005F00E0EEECFDBFF0F0EEECFDBFF100E73
:10031000EECFDBFF20D0F70EDBCF17F0F80EDBCFF0
:1003200018F0020E175E000E185AF70E17C0DBFF0A
:10033000F80E18C0DBFF17C0E9FF18C0EAFFADECEC
:1003400005F0166A0E0E14C0DBFF0F0E15C0DBFFA2
:10035000100E16C0DBFF0E0EDBCFE6FF0F0EDBCF5D
:10036000E6FF100EDBCFE6FF6FEC09F0E552E55239
:10037000E552130E07C0DBFF140E08C0DBFF060EAC
:10038000DB5005E0130EF1EC05F001E26ADB15EC41
:1003900006F002E2130E37DBD8EC05F006E0040E9F
:1003A000F1EC05F002E2050E2EDB030EDBB005D00A
:1003B000FCDA01E0D7D2080EDB6A090EDB6A0E0E0A
:1003C000DBCFF6FF0F0EDBCFF7FF100EDBCFF8FF12
:1003D0000800F550DF6EDF5014E01BEC06F011E270
:1003E0002AEC06F003E1151C01E1BCD2BBDB01E302
:1003F000DB2A090EDB2AD9500E0FE96E000ECBDB8B
:10040000E7D7D3DA01E1B4D2ADD2C6DA110EEECF1E
:10041000DBFF120EEDCFDBFF110EDBCFE6FF120E7E
:10042000DBCFE6FF61EC09F0E552E552130EF3CFA6
:10043000DBFF140EF4CFDBFF060EDB5004E0130EDF
:10044000D0DB01E20EDB15EC06F002E2130EDBDA84
:10045000AFDB05E0040EC5DB02E2050ED4DA030EC5
:10046000DBB005D0A2DA01E07DD2080EDB6A090E0E
:10047000DB6A110EDBCFE9FF120EDBCFEAFFEFCF15
:10048000DFFFDF5014E0D7DB12E2E4DB03E1151CF1
:1004900001E168D267DB01E3DB2A090EDB2A110EDA
:1004A000DB2ADBCFE9FF120EE8E3DB2AE6D77DDAB1
:1004B00001E15ED257D2030EDB8E070EDB0410E1A2
:1004C00095DB040E5ADB0A0EEECFDBFF0B0EEECFF0
:1004D000DBFF0C0EEECFDBFF0D0EEECFDBFF6CD0A3
:1004E000070EDB5003082CE1030EDBAE0DD0B2DAB1
:1004F000020E76DAEFCF14F0156A166A176A14AE98
:1005000039D01568166835D0F70EDBCF15F0F80E28
:10051000DBCF16F0020E155E000E165AF70E15C050
:10052000DBFFF80E16C0DBFF15C0E9FF16C0EAFFBF
:10053000EFCF14F00A0E14C0DBFF0B0EDB6A38D0CD
:10054000070EDB50020809E1030EDBAE04D059DBD5
:1005500016AE10D00ED055DB0DD0030EDBAE12D090
:1005600079DA020E3DDAF9DA166A176A15AE02D0A8
:1005700016681768E2DA0C0E16C0DBFF0D0E17C006
:10058000DBFF1AD0F70EDBCF16F0F80EDBCF17F03B
:10059000020E165E000E175AF70E16C0DBFFF80E9D
:1005A00017C0DBFF16C0E9FF17C0EAFFD6DAC5DACD
:1005B0000C0EDB6A0D0EDB6A060EDB5005E1010E48
:1005C000F36E050EF3CFDBFF150EDB6A160EDB6A4A
:1005D000D950370F146E000EDA20156E390E14C084
:1005E000DBFF3A0E15C0DBFF380EDB6A080EDB6A54
:1005F0000A0EAEDADF50780A12E0200A10E0280A6C
:100600000CE0200A0AE03F0A06E00D0A02E0200A98
:1006100008E1020E05D0080E03D0080EDF26100EEA
:1006200097DA030EDBBE02D0DB92DB94DB50800B4B
:1006300024E08ADAD890030EEB50000A08E6000E98
:10064000EE5C000EEE58000EEE58000EEE5815E26D
:1006500013DA0B680C680D680E6829EC09F00A0EB5
:1006600002C0DBFF0B0E03C0DBFF0C0E04C0DBFF80
:100670000D0E05C0DBFF2D0E08D0030EDBA202D04D
:100680002B0E03D0DBA408D0200EF36E170EF3CF91
:10069000DBFF150EDB2A02D0170EDB6A050EDB50DE
:1006A00003E1B7D901E189D08A0E146E150E156EDB
:1006B000000E166E070EDBCF17F0186A196A1A6A59
:1006C00017C00BF018C00CF019C00DF01AC00EF0D6
:1006D000D3D9F3EC09F014500224F36E1550032023
:1006E000F46E16500420F86EF4CFF7FFF3CFF6FF48
:1006F0000800090EF5CFDBFF580EDF5C0FE1610E3D
:10070000F36E090E7BD90AE3200E146E090EDBCFBF
:10071000E7FF1450E75E090EE7CFDBFF070EDBCFE4
:1007200014F0156A166A176A0FDA14C00BF015C0B8
:100730000CF016C00DF017C00EF0EECF06F0EECFA5
:1007400007F0EECF08F0EFCF09F0F3EC09F009C0A5
:10075000EDFF08C0EDFF07C0EDFF06C0EFFF390E4B
:10076000DBCFE9FFDB063A0EDBCFEAFF01E2DB0677
:10077000090EDBCFEFFF150EDB2A4BD995E1030EF7
:10078000DBA61DD06F0EDF5C06E1C1D918E3150EA4
:10079000DB285BDA14D0780EDF5C09E0580EDF5CF2
:1007A00006E0620EDF5C03E0420EDF5C08E1020E51
:1007B000F36E160EF3CFDBFF02D0150EDB6A030ECD
:1007C000DB50100B0EE0040EDBCF14F0050EDB50F7
:1007D000D880145406E2060EDB5003E1040EDB5011
:1007E00034DA95D90AE2050EDBCFE7FF150EDB50B0
:1007F000E75E050EE7CFDBFF02D0050EDB6A040ED5
:10080000DBCF14F0160E45D9D880145414E2160E1E
:10081000DBCFE6FF150EDBCFE6FF040EDBCFE6FFF6
:10082000050EDB50E552E75CE552D880E754E5520F
:10083000D880E7545FD9030EDB50010B0BE1080EA3
:10084000DB5008E0B2D801E08DD0080EDB50BED8F6
:10085000080EDB6A170EDB5007E088D9170EF1D9B6
:1008600003E1151C01E17ED0160EDB5016E07ED9A7
:10087000300EE66E9FD802E1151C74E077D9DFCF09
:10088000E6FFE7EC08F0E552E552E552F4CF15F04B
:100890000001F31C02E1151C65E0050EDBCF14F02E
:1008A000160EDB50D880145409E2050EDBCFE7FFAB
:1008B000160EDB50E75E050EE7CFDBFF300EE66E6F
:1008C000050ECBD94FE1390EDB2ADBCFE9FF3A0E1B
:1008D00001E3DB2ADBCFEAFF090EEFCFDBFFDB50C2
:1008E0000EE044D9090EADD902E1151C3BE0390EEA
:1008F000DB2ADBCFE9FF3A0EEDE3DB2AEBD755D855
:1009000031E1160EDBCFE6FF080EC3D8E552E7242F
:100910005DD82ED0070EDB50030A1CE0010A14E05C
:10092000030A07E07BD9DBCFEEFF020EDBCFEDFF42
:100930001FD0F5D8196A17AE02D0186819682CD8DC
:10094000BCD819C0EEFF14D0EAD817BE186824D856
:10095000B4D80ED063D9DBCFEFFF0AD07BD905E145
:10096000151C03E1F368F46810D0FCD801E3DB2A1E
:1009700079D957EF00F0010EDBCF14F0020EDBCF78
:1009800015F014C0F3FF15C0F4FF3B0EE15C02E26A
:10099000E16AE552E16ECBD029D9020EBDEF05F038
:1009A00061D90800F550DF6E1200200EE66E080EC9
:1009B0002DEF06F0E7EC08F0E552E552E552F3CFF3
:1009C00014F0F4CF15F00001F31C1200146E156A38
:1009D000D950010F4DD91450EE261550ED221200BA
:1009E000185E000E195AF70E18C0DBFFF80E19C07A
:1009F000DBFF18C0E9FF19C0EAFF1200DBCFF4FFEC
:100A0000F350F45C1200DB50E76E040EE7CFDBFF1F
:100A100012000A0EDBCF14F00B0EDBCF15F00C0E1C
:100A2000DBCF16F00D0EDBCF17F01450151016109B
:100A300017101200130EEECFDBFF140EEDCFDBFF0D
:100A4000130EDBCF14F0140EDBCF15F00001800E77
:100A500015141200F70EDBCF18F0F80EDBCF19F0EB
:100A60001200050EDB50E66ED950130F01D9E55286
:100A7000E750EE6EED6A12000A0EDBCF06F00B0EA9
:100A8000DBCF07F00C0EDBCF08F00D0EDBCF09F04B
:100A90001200DBCFE6FF150EDBCFE6FF050EDB50C5
:100AA000E552E724E552E7241200DB50CED8010ED0
:100AB000F36E060EF3CFDBFF1200EE50EFCFEAFF2E
:100AC000E96E16C0EEFF17C0EEFF18C0EEFF120071
:100AD000D9CFE6FFDACFE6FFE1CFD9FFE2CFDAFFE9
:100AE0001200DFCFE6FFE66A67EC0AF0E552E55256
:100AF000F3501200E76E080EE7CFDBFF1200EECFD7
:100B000014F0EECF15F0EFCF16F0176A1200050EB5
:100B1000DBCF14F0150EDB50D88014541200010EF8
:100B2000DBCF16F0020EDBCF17F0186A1200E55289
:100B3000E5CFDAFFE7CFD9FF12000A0E14C0DBFFC2
:100B40000B0E15C0DBFF1200D9500A0F38EF06F06C
:100B5000F36E070EF3CFDBFF1200EECF14F0EFCFF2
:100B600015F01200010EDB2A020E1200FC0EDBCF84
:100B7000E6FFFD0EDBCFE6FF1200145E000E155AF5
:100B8000F70E14C0DBFFF80E15C0DBFF14C0E9FF41
:100B900015C0EAFF1200DA20EA6EEF2AEECFF6FF68
:100BA000000EEF22EECFF7FFEF22EECFF8FF12009C
:100BB000040EDBCFE6FF130EDB50E552E75C9ADF55
:100BC000DB5004DF060EDB501200090EDB500A0D6D
:100BD000F350DF24D00FE76E090EE7CFDBFFD0EF35
:100BE00004F0DB50F36E050EFEEF04F0F70EDBCFE2
:100BF00014F0F80EDBCF15F01200DFCFE6FFDAEFCE
:100C000004F028DF030EECDE7FEF05F02CEC00F0A3
:100C1000E552E552E552E55200091200BDDEEE5004
:100C2000EFCFEAFFE96E010E1200130EDB50F36EF8
:100C3000040EFEEF04F0040EDB50F36E090EFEEF1F
:100C400004F0DBCFE6FFDAEF04F0E76E050EE7CF46
:100C5000DBFF12008BDFFDEF05F0DBCFE6FF86DF69
:100C600006EF06F0D950F90FE96EFF0ECBEF05F055
:0A0C7000E96E000EDA20EA6E1200B1
:060C7A009FD9020EE126E5
:100C8000DE6ADD6A23D8FB0EDBCFE6FFFC0EDBCF8E
:100C9000E6FFFD0EDBCFE6FFFE0EDBCFE6FF30D832
:100CA000E552E552E552E55265D90AE063D9E66EB0
:100CB00017D8E55209D9DF2A010EF6E3DB2AF4D76B
:100CC000020EE15C02E2E16AE5526BD1C00EE66E13
:100CD000EBD8E552C10EE66EE7D8E55264EF07F0B7
:100CE00057D9FE0EDB380F0B0F0BD009DF6EFE0E4F
:100CF000DB500F0BD0092ED902E2E16AE55251D147
:100D000047D954D9EE50ED1007E1FB0EDB50E76EEA
:100D1000020EE7CFDBFF15D049D9010EEE1811E125
:100D2000ED500FE1400EE76EFB0EDBCF14F0FC0E32
:100D3000DBCF15F0E7501426000E1522020E14C06A
:100D4000DBFF020EDB380F0B0F0BC809DF6E020E44
:100D5000DB500F0BC009FED802E2E16AE55221D157
:100D6000D9CFE6FFE1CFD9FF020EE126DE6ADD6AC8
:100D7000959E959C959A9598959095929594959613
:100D80008C9E8C8E8C988C9A8C9C8C8CDE6ADD6A06
:100D9000DECF14F0DDCF15F0D890155004E6E80E44
:100DA000145C030E155806E20000DF2A010E01E371
:100DB000DB2AEED7C20EE66E77D8E55285D8C20E92
:100DC000E66E72D8E55280D8C80EE66E6DD8E55250
:100DD0007BD8C00EE66E68D8E55276D8CC0EE66EAB
:100DE00063D8E55271D8C00EE66E5ED8E5526CD875
:100DF000C10EE66E59D8E55267D8C00EE66E54D8DB
:100E0000E55262D8C60EE66E4FD8E5525DD88C8E9C
:100E10000000000000000000020EE15C02E2E16A56
:100E2000E552E16EE552E7CFD9FF1200D9CFE6FFD8
:100E3000E1CFD9FF020EE126DE6ADD6A020E086EFE
:100E4000096AFD0EDBCF0DF0FE0EDBCF0EF0C6EC17
:100E500009F0FD0E06C0DBFFFE0E07C0DBFFDECF94
:100E600014F0DDCF15F0FD0EDBCF16F0FE0EDBCF5C
:100E700017F015501718E8AE02D0173404D01650EA
:100E8000145C1750155806E20000DF2A010E01E33A
:100E9000DB2AE5D7020EE15C02E2E16AE552E16E8F
:100EA000E552E7CFD9FF1200D9CFE6FFE1CFD9FF56
:100EB000FE0EDB508C6E000000008C9C00000000D9
:100EC000E552E7CFD9FF120078D8E6528C988C8A89
:100ED000958608D8DF6EDFBEFCD7E552E552E7CF36
:100EE000D9FF1200D9CFE6FFE1CFD9FF020EE126EC
:100EF00095869584958295808C8C000000008350A7
:100F0000DF6E8C9CDF50100D010EF3CFDBFF8C8C5D
:100F1000000000008350DF6E8C9C0D0EDF14DF6E2E
:100F2000010EDB50DF10E76E010EE7CFDBFF959679
:100F3000959495929590010EDB5000D0146E020EA0
:100F4000E15C02E2E16AE552E16E1450E552E7CF5E
:100F5000D9FF1200E76E010EE7CFDBFFDFCFE6FF20
:100F6000A3DFE552010EDBCFE6FF9EDFE552030E65
:100F7000E15C1200F90EDBCF14F0FA0EDBCF15F0B6
:100F8000DE501424E96EDD501520EA6EEF50120099
:100F900014D8030EE126DF6A010EDB6A020EDB6A5B
:100FA0001200E16EE552E7CFD9FF1200D950FD0FD4
:100FB000E96EFF0EDA20EA6E1200D9CFE6FFE1CF2C
:040FC000D9FF120043
:0C0FC4007365745F7765696768745F6F20
:100FD000756E6365730A007365745F77656967682A
:100FE000745F6772616D730A004920616D20696EDC
:100FF00020757365725F72656D6F74655F6D6F6488
:10100000650A004920616D20696E20757365725F05
:101010006C6F63616C5F6D6F6465007365745F6DA9
:101020006F64655F77656967680A007365745F6DF3
:101030006F64655F636F756E74206973207265738A
:10104000706F6E64696E670A006F6E206C696E6502
:101050002025640A00546172652E6320697320772D
:101060006F726B696E670A004F75747075742077C4
:10107000656967687420746F204C43440A004F759B
:10108000747075742077656967687420746F205375
:07109000657269616C0A0042
:081098004A0EF66E000EF76E21
:1010A000000EF86E00010900F550856F0900F5503B
:1010B000866F03E1856701D03DD00900F550806F50
:1010C0000900F550816F0900F550826F0900090091
:1010D000F550E96E0900F550EA6E090009000900B3
:1010E000F550836F0900F550846F09000900F6CFB1
:1010F00087F0F7CF88F0F8CF89F080C0F6FF81C085
:10110000F7FF82C0F8FF0001835302E1845307E038
:101110000900F550EE6E8307F8E28407F9D787C01F
:10112000F6FF88C0F7FF89C0F8FF00018507000EB1
:06113000865BBFD7120030
:0A113600D9CFE6FFDACFE6FFE1CFE4
:10114000D9FFE2CFDAFFE652E652E652E652D95034
:10115000FB0F146EFF0EDA20156E14C0DEFFDD6E7D
:10116000DECFE6FFDDCFE6FFFB0EDBCFE6FFFC0EBA
:10117000DBCFE6FFFD0EDBCFE6FF8AC0E6FF8BC0CC
:10118000E6FF42EC00F0146E070EE15C02E2E16A59
:10119000E552E16E1450020EF3CFDBFF030EF4CFE5
:1011A000DBFF020EDBCF14F0030EDBCF15F014C013
:1011B000F3FF15C0F4FF040EE15C02E2E16AE552C0
:0E11C000E16EE552E5CFDAFFE7CFD9FF12006E
:0211CE00D9CF77
:1011D000E6FFDACFE6FFE1CFD9FFE2CFDAFFFB0E81
:1011E000DBCF14F0FC0EDBCF15F00001800E1514E0
:1011F0001AE1FB0EDBCFE9FFFC0EDBCFEAFFEECFFF
:10120000F3FFEDCFF4FFEE2A000EEF22F3CFE9FF5C
:10121000F4CFEAFFFD0EDBCFEFFFEF50156AF36E60
:1012200015C0F4FF10D0FB0EDB50FE0806E1FD0EEA
:10123000DBCFE6FFB7EC0AF005D0FD0EDBCFE6FF13
:1012400003EC00F0E552E552E5CFDAFFE7CFD9FF36
:0212500012008A
:0E12520006500B02F3CF02F0F4CF03F00C02B3
:10126000F3500326000EF420046E06500D02F350D6
:101270000426000EF420056E06500E02F3500526DB
:1012800007500B02F3500326F4500422000E0522EF
:1012900007500C02F3500426F450052207500D02AB
:1012A000F350052608500B02F3500426F450052293
:1012B00008500C02F350052609500B02F350052686
:0212C00012001A
:0E12C200FE0EE3CFE9FFFF0EE3CFEAFFF36A73
:1012D000F46AEE5203E0F34AF42AFBD71200FF0E41
:1012E000E3CFF8FFE552FF0EE3CFF7FFE552FF0E25
:1012F000E3CFF6FFE552E66AE66AE66A0900F552D0
:1013000009E0FD0EE32A05E1FE0EE32A02E1FF0EED
:10131000E32AF4D7FD0EE3CF07F0FE0EE3CF08F08B
:08132000FF0EE3CF09F01200FB
:08132800D9CFE6FFE1CFD9FFA8
:10133000730EE66EE66AE66A9BEC08F0E552E5524B
:10134000E552FD0EDBCFE6FFFE0EDBCFE6FF490EDA
:10135000146E100E12D8176E050EE15E1750F36A68
:10136000F46AE552E7CFD9FF12002B0E146E100E6F
:1013700004D8E552E552E5521200156E166A14C003
:0C138000E6FFE66E16C0E6FF9BEF08F0EB
:04138C0009C013F091
:1013900008C012F008500D02F4CF07F0F3CF06F0AA
:1013A00009500E02F4CF09F0F3CF08F00D02F3500C
:1013B0000726F4500822E86A092212500E02F35060
:1013C0000726F4500822E86A09220EAEECEF09F075
:1013D0001250085E1350095A13AE000C0D50085EEF
:0613E0000E50095A000C3A
:0A13E600056A046A036A026A200E19
:1013F000E76ED890063607360836093602360336C9
:10140000043605360B50025C0C5003580D5004583E
:101410000E50055809E30B50025E0C50035A0D5054
:0E142000045A0E50055A062AE72EE4D7120091
:02142E00D9CF14
:10143000E6FFE1CFD9FF7E0E146E100E08D0D9CF93
:10144000E6FFE1CFD9FF680E146E100E00D0156EC6
:10145000166A14C0E6FFE66E16C0E6FF9BEC08F0C5
:0E146000E552E552E552E552E7CFD9FF120002
:02146E00030E6B
:10147000146E100E08D0E90E146E0F0E04D0E90E93
:10148000146E0F0E00D0156E166A14C0E6FFE66EDD
:1014900016C0E6FF9BEC08F0E552E552E552F36A10
:0414A000F46A1200D8
:0C14A400D70E146E0F0E04D0C40E146E90
:1014B0000F0E00D0156E166A14C0E6FFE66E16C059
:0E14C000E6FF9BEC08F0E552E552E552120003
:0214CE00F36ABF
:1014D000F46AFF0EE124E96EFF0EE220EA6EED668B
:1014E00007D02F0EEF6404D03A0EEF6001D0F32A3C
:0214F0001200E8
:0E14F200550E146E100E156E166A14C0E6FF2D
:10150000E66E16C0E6FF9BEC08F0E552E552E552A8
:021510001200C7
:0E1512001B0E146E100E156E166A14C0E6FF46
:10152000E66E16C0E6FF9BEC08F0E552E552E55288
:021530001200A7
:0E153200000EF36E00EE00F0060E01D812005F
:10154000EA6002D0EE6AFCD7F350E9601200EE6A5E
:02155000FCD7C6
:0E15520015EE00F025EE00F0F86A019C4CEC5E
:0E15600008F007EC00F00FEC00F0FBD71200D3
:02156E00FF0E6E
:10157000E350ACBA04D0AF6AAB8EAC8A949CACA2F8
:0A158000FED7AD6EF36EF46A1200A0
:06158A003031323334352C
:0B15900036373839616263646566001D
:020000040030CA
:0100010002FC
:010003001EDE
:010006008178
:00000001FF
