:020000040000FA
:060000000EEF03F01200F8
:020006000000F8
:060008002EEF00F01200D3
:02000E001200DE
:020010001200DC
:020012001200DA
:020014001200D8
:020016001200D6
:0800180030EF00F01200B4EC1F
:1000200000F0F7EC01F007D80AEC02F004D81FEC5E
:1000300002F001D8F6D7010E936E81B0FED781B0E1
:100040000CD08184E80EE66E030EE66E1AEC01F029
:10005000E552E552819481A0FED712000DD811001F
:10006000D8CFE4FFE0CFE4FFE46E06D8E550E5CF5B
:10007000E0FFE5CFD8FF1000DACFE4FFE652E5520B
:06008000E5CFDAFF1200DB
:0A008600AED9020EE126DE6ADD6A43
:100090001FD8FB0EDBCFE6FFFC0EDBCFE6FF94D9CB
:1000A00032D8E552E552E552E55273D90AE071D9EA
:1000B000E66E18D8E5520CD9DF2A010EF6E3DB2AEA
:1000C000F4D7020EE15C02E2E16AE552E16E78D11A
:1000D000C00EE66EEDD8E552C10EE66EE9D8E552E7
:1000E00068EF01F064D9FE0EDB380F0B0F0BD0095F
:1000F000DF6EFE0EDB500F0BD0093BD902E2E16A46
:10010000E552E16E5DD153D966D9EE50ED1007E1AD
:10011000FB0EDB50E76E020EE7CFDBFF15D05BD99D
:10012000010EEE1811E1ED500FE1400EE76EFB0EEF
:10013000DBCF14F0FC0EDBCF15F0E7501426000ED9
:100140001522020E14C0DBFF020EDB380F0B0F0B63
:10015000C809DF6E020EDB500F0BC0090AD902E29C
:10016000E16AE552E16E2CD1D9CFE6FFE1CFD9FFAC
:10017000020EE126DE6ADD6A959E959C959A959819
:1001800095909592959495968C9E8C8E8C988C9A41
:100190008C9C8C8CDE6ADD6ADECF14F0DDCF15F02E
:1001A000D890155004E6E80E145C030E155806E2CC
:1001B0000000DF2A010E01E3DB2AEED7C20EE66E55
:1001C00077D8E55285D8C20EE66E72D8E55280D84F
:1001D000C80EE66E6DD8E5527BD8C00EE66E68D8C4
:1001E000E55276D8CC0EE66E63D8E55271D8C00ED3
:1001F000E66E5ED8E5526CD8C10EE66E59D8E5526F
:1002000067D8C00EE66E54D8E55262D8C60EE66EC8
:100210004FD8E5525DD88C8E000000000000000031
:10022000020EE15C02E2E16AE552E16EE552E7CFDF
:10023000D9FF1200D9CFE6FFE1CFD9FF020EE126A8
:10024000DE6ADD6A020E086E096AFD0EDBCF0DF074
:10025000FE0EDBCF0EF0B0EC02F0FD0E06C0DBFFB1
:10026000FE0E07C0DBFFDECF14F0DDCF15F0FD0E74
:10027000DBCF16F0FE0EDBCF17F015501718E8AEE7
:1002800002D0173404D01650145C1750155806E2EB
:100290000000DF2A010E01E3DB2AE5D7020EE15C54
:1002A00002E2E16AE552E16EE552E7CFD9FF1200C2
:1002B000D9CFE6FFE1CFD9FFFE0EDB508C6E0000F8
:1002C00000008C9C00000000E552E7CFD9FF12002F
:1002D00089D8E6528C988C8A958613D8DF6EDFBE5B
:1002E000FCD7E5526DD07ED8F3DF6ED8000EE66EF7
:1002F000E66AE66EE66AC7DE146E060EE15E14502C
:100300005FD0D9CFE6FFE1CFD9FF020EE126958677
:100310009584958295808C8C000000008350DF6E60
:100320008C9CDF50100D010EF3CFDBFF8C8C000096
:1003300000008350DF6E8C9C0D0EDF14DF6E010E0B
:10034000DB50DF10E76E010EE7CFDBFF959695944B
:1003500095929590010EDB5000D0146E020EE15C78
:1003600002E2E16AE552E16E1450E552E7CFD9FFAF
:100370001200E76E010EE7CFDBFFDFCFE6FF98DF6D
:10038000E552010EDBCFE6FF93DFE552030EE15CA1
:100390001200F90EDBCF14F0FA0EDBCF15F0DE50B1
:1003A0001424E96EDD501520EA6EEF5012001AD8C1
:1003B000030EE126DF6A010EDB6A020EDB6A120021
:1003C000E552E7CFD9FF1200FD0EDBCFE6FFFE0EB0
:1003D000DBCFE6FF1200D950FD0FE96EFF0EDA20E9
:0E03E000EA6E1200D9CFE6FFE1CFD9FF12007E
:0203EE0064D8D1
:1003F0000B0E4DD86C0EEE6E6F0EEE6E630EEE6E43
:10040000610EEE6E6C0E36D80B0EE15C02E2E16A14
:10041000E5524DD051D80C0E3AD8720EEE6E650EE4
:10042000EE6E6D0EEE6E6F0EEE6E740EEE6E650E6F
:1004300021D80C0EE15C02E2E16AE55238D03CD8EA
:10044000080EE126D9CFE9FFDACFEAFF460EEE6EBD
:10045000610EEE6E630EEE6E740EEE6E6F0EEE6E4D
:10046000720EEE6E790E06D8080EE15C02E2E16AC9
:10047000E5521DD0EE6EEE6AD9CFE6FFDACFE6FF89
:1004800073EC01F0E552E552F36AF46A1200E126DA
:10049000D9CFE9FFDACFEAFF750EEE6E730EEE6E7E
:1004A000650EEE6E720EEE6E200EEE6E1200E16EB6
:1004B000E552E7CFD9FF1200D9CFE6FFE1CFD9FF50
:0204C000120028
:0E04C200060EF66E000EF76E000EF86E0001CC
:1004D0000900F550856F0900F550866F03E18567C7
:1004E00001D03DD00900F550806F0900F550816FB3
:1004F0000900F550826F09000900F550E96E090006
:10050000F550EA6E090009000900F550836F0900F3
:10051000F550846F09000900F6CF87F0F7CF88F017
:10052000F8CF89F080C0F6FF81C0F7FF82C0F8FFE6
:100530000001835302E1845307E00900F550EE6E99
:100540008307F8E28407F9D787C0F6FF88C0F7FF72
:1005500089C0F8FF00018507000E865BBFD7120037
:1005600009C013F008C012F008500D02F4CF07F0D4
:10057000F3CF06F009500E02F4CF09F0F3CF08F0E4
:100580000D02F3500726F4500822E86A092212509F
:100590000E02F3500726F4500822E86A09220EAE34
:1005A000D6EF02F01250085E1350095A13AE000C39
:0A05B0000D50085E0E50095A000CB1
:0605BA00D9CFE6FFE55277
:1005C000E7CFD9FF1200D9CFE6FFE1CFD9FF68EC22
:1005D00001F0FD0EDBCFE6FFFE0EDBCFE6FF000EE7
:1005E000E66EE66AE66EE66A43EC00F0146E060E0E
:0C05F000E15E1450E552E7CFD9FF120085
:0405FC00000EF36E8C
:1006000000EE00F0060E01D81200EA6002D0EE6A99
:0C061000FCD7F350E9601200EE6AFCD742
:04061C0015EE00F0E7
:1006200025EE00F0F86A019C61EC02F00BEC00F0A2
:080630000FEC00F0FBD71200F3
:08063800D9CFE6FFF36AF46A72
:0A064000E552E7CFD9FF12001200C7
:020000040030CA
:0100010022DC
:010003000EEE
:010006008178
:00000001FF
